:100000000C94C9010C945F1B0C948A1B0C94B51BB7
:100010000C94E01B0C940B1C0C94361C0C94611C6F
:100020000C948C1C0C9498150C9498150C949815A1
:100030000C948E020C9495240C94FA010C94FA0101
:100040000C94FA010C94FA010C94FA010C94FA0144
:100050000C94FA010C94FA010C94FA010C94B71C5C
:100060000C94FA010C94FA010C94FA010C94FA0124
:100070000C94FA010C94FA010C94FA010C94FA0114
:100080000C94FA010C94FA010C94FA010C9459178F
:100090000C94FA010C94FA010C94FA010C94951941
:1000A0000C94FA010C94FA010C94FA010C94FA01E4
:1000B0000C94FA010C94FA010C94FA010C94FA01D4
:1000C0000C94FA010C94FA010C94FA010C94FA01C4
:1000D0000C94FA010C94FA010C941A200C94502000
:1000E0000C94FA01D008D008D208D408D908D9084D
:1000F000D908DB08DB08DB08DD08E108121BDC1A85
:10010000E41AF01AFD1A1E1B2B1B4F1B451B471B25
:10011000491B4B1B511B531BD31DD61DC51DC91D90
:10012000CF1D0D1EDA1DDE1DE41DE81DEC1DF21DA8
:10013000F61DFA1D0D1E001E041E081E0C94D0088C
:100140000C9484200C94CF1D0C94D7200C94DB08C5
:100150000C9426150C94DC170C9402020C94531B7F
:100160000C94A60F0C94FC010C94D4080C94C91D9B
:100170000C94BF1E0C94D2080C94311F0C94A61E34
:100180000C94E1080C94F21D0C944F1B0C94491B29
:100190000C94AB180C947A200C940A020C94581707
:1001A0000C942B1B0C94D31D0C94DD080C94BD05F2
:1001B0000C94121B0C94D9080C944B1B0C940D1E20
:1001C0000C94090A0C941E1B0C94C61A0C94EC1D7A
:1001D0000C94D4140C949F170C9419020C94AE1721
:1001E0000C94F61D0C94D61D0C94FD1A0C94081E4C
:1001F0000C94B6050C94DA1D0C94041E0C94471B49
:100200000C94270A0C94AF170C94B11E0C94C51DC6
:100210000C94E41A0C94451B0C94FA1D0C94F01ADF
:100220000C94E81D0C94E41D0C94531F0C94511B6A
:100230000C9441150C94B3140C94C20A0C948417BA
:100240000C948C170C94D31E0C94001E0C94DE1D81
:100250000C9427150C94DC1A0C944C021F1C1F1EC6
:100260001F1E1F1F1E1F1E1F00000A0B02090C0D60
:100270000E08070304010000000000000000000059
:10028000000000000000000000000000000000006E
:10029000000000001211100000000000000000002B
:1002A000000000000000000000000000000001024B
:1002B0001020200808102040102040800201020178
:1002C0000804020101020408102040808040201030
:1002D0000804020180040201804020100804020189
:1002E00008040201010204081020408001020408F1
:1002F00010204080050505050705080808080202CA
:1003000002020A0A080804040404010101010101AF
:1003100001010303030303030303040707070C0C92
:100320000C0C0C0C0C0C0202020206060606060659
:1003300006060B0B0B0B0B0B0B0B00002000230016
:10034000260029002C002F003200000100000301CC
:100350000601090100002200250028002B002E00C4
:100360003100340002010000050108010B0100000A
:100370002100240027002A002D0030003300010155
:100380000000040107010A010200B605AB18842031
:10039000BD0511241FBECFEFD1E2DEBFCDBF00E00F
:1003A0000CBF16E0A0E0B2E0E0EDFAE500E00BBF24
:1003B00002C007900D92AE3AB107D9F728E0AEEA35
:1003C000B6E001C01D92A73DB207E1F713E0C0E916
:1003D000D3E000E006C022970109FE010BBF0E9496
:1003E0009E27CA38D10780E00807A9F70E94C820D5
:1003F0000C94562D0C94000081E08093DC0684E080
:100400000C94381B82E08093DC061092DA0685E0BB
:100410000C94381B83E08093DC0684E00E94381B38
:1004200088E10FB6F89480936000109260000FBED0
:1004300008956091D6067091D7068091D806909164
:10044000D9066F5F7F4F8F4F9F4F6093D606709393
:10045000D7068093D8069093D9062AE030E040E092
:1004600050E00E943D27672B682B692BA1F4609117
:10047000D5068091D406833011F48FE303C0853014
:10048000E1F38EE30E94471E9091D50681E0911121
:1004900080E08093D50608958091D6069091D70686
:1004A000A091D806B091D9060196A11DB11D8093E7
:1004B000D6069093D706A093D806B093D90680FDB0
:1004C0000CC06091D5068FE30E94471E9091D5061F
:1004D00081E0911180E08093D5060895EF92FF921C
:1004E0000F931F93CF93DF931F92CDB7DEB77C019D
:1004F000FC0100811181C80169830E948A2C6981F5
:10050000681719F0C8010E94922CC7010F90DF9163
:10051000CF911F910F91FF90EF9008951F920F922E
:100520000FB60F9211248F9384E08093DC068091A4
:10053000DB068F5F8093DB0688E10FB6F89480932B
:100540006000109260000FBE8F910F900FBE0F9051
:100550001F9018956430710581059105C1F198F4DB
:10056000613071058105910509F441C060F1623087
:1005700071058105910549F163307105810591058A
:1005800091F540E835C0673071058105910529F185
:1005900068F46530710581059105E1F066307105FB
:1005A0008105910501F548EE33E023C06032710505
:1005B00081059105A9F0613271058105910599F4D4
:1005C00040E43FE116C040E113C040E411C040E008
:1005D00031E00FC040E032E00CC040ED37E009C030
:1005E00040EA3FE006C0462F372F282F04C040E2E4
:1005F00030E020E090E0642F732F822F089514BE26
:10060000E0E6F0E098E1908380648083A895089507
:1006100083E10E947D1E21E0892B09F420E0822FD6
:1006200008958091DC06843041F40E94080391E033
:10063000813009F090E0892F089580E008958F922D
:100640009F92AF92BF92CF92DF92EF92FF92CF93A1
:10065000DF93EC016A017B010E94011D4B015C01EB
:100660000E94011D681979098A099B096C157D058D
:100670008E059F0530F4FE011995882389F381E0EA
:1006800001C080E0DF91CF91FF90EF90DF90CF909D
:10069000BF90AF909F908F90089560E08BE30E9491
:1006A000471E60E08BE30C940E1ECF93DF93EC01AA
:1006B000653099F038F4613069F06430B9F464E47D
:1006C00072E016C0673079F058F0683079F46FE75F
:1006D00072E00EC067E372E00BC062E572E008C032
:1006E00066E672E005C062E772E002C06FE872E0A1
:1006F000CE010E946325CE01DF91CF91089561E084
:1007000087E00E940E1E61E087E00E94471E83E49E
:1007100097E00C941B1860E087E00E94471E60E0A1
:1007200087E00E940E1EECEBF0E080818A7B8083E4
:1007300060E084E10E94471E60E085E10C94471E62
:10074000CF93DF9300D000D0CDB7DEB70E947F03F8
:10075000CE0101960E942814CE0101960E948A13B0
:100760006093AF067093B0068093B1069093B20683
:100770000E948B0326960FB6F894DEBF0FBECDBF46
:10078000DF91CF9108951F93CF93DF93182FCDE082
:10079000D2E0899161E0111101C060E00E940E1E5B
:1007A00082E0CC31D807A9F7C6E0D2E060E08991B9
:1007B0000E940E1E82E0CD30D807C1F7C6E160E08E
:1007C0008C2F0E94471ECF5FCC32C9F7DF91CF91AB
:1007D0001F9108954F925F926F927F928F929F9296
:1007E000AF92BF92CF92DF92EF92FF920F931F933F
:1007F000CF93DF93CDB7DEB761970FB6F894DEBF26
:100800000FBECDBF482E81E00E94C303AE014F5FF3
:100810005F4F5A0180E1FA0111928A95E9F70DE0E4
:1008200012E0512CC12CD12C7601C394480161E017
:10083000F80180810E94471E86E0682E82E0782EB3
:1008400020E0F30181913F01298B0E947D1E2989BF
:10085000892B41F1822F850D982F9295969597704F
:10086000F50134E0939FE00DF11D112490E0809597
:1008700090958F719927B701A60104C0440F551FA9
:10088000661F771F8A95D2F7DB01CA01408151812B
:1008900062817381842B952BA62BB72B8083918348
:1008A000A283B383215F293661F60F5F1F4F60E09B
:1008B000F40180810E94471E5394FFE05F12B6CF7F
:1008C00030E1439EA00111244255594F20E030E011
:1008D000F50181919191A191B1915F01BA01620FEE
:1008E000731FFB0185839683A783B0872C5F3F4FDF
:1008F0002031310569F780E061960FB6F894DEBFCC
:100900000FBECDBFDF91CF911F910F91FF90EF9060
:10091000DF90CF90BF90AF909F908F907F906F901F
:100920005F904F900C94C30361E08CE00E940E1E18
:1009300061E08CE00E94471E60E088E30E94471E51
:100940006DE470E080E090E00E94301D60E08CE09B
:100950000E94471E60E08CE00C940E1E61E088E36C
:100960000E940E1E61E088E30E94471E60E08CE05A
:100970000E94471E62E470E080E090E00E94301D1B
:1009800060E088E30E94471E60E088E30C940E1E3E
:100990008091D406833011F48FE303C08530E1F3F6
:1009A0008EE361E00E940E1E80E180939100109220
:1009B000900082E08093400780E29EE4909342079B
:1009C00080934107909397008093960082E18093F3
:1009D000910081E090E0A0E0B0E08093D606909393
:1009E000D706A093D806B093D90689E192E09093F8
:1009F0001D0280931C0281E0809371000895CF93C3
:100A0000DF93D82F813019F468E47BE002C06CE8F2
:100A100078E024EB30E040E050E086E30E9454218F
:100A200061E080E40E940E1EC0E061E080E40E946C
:100A3000471E60E470E080E090E00E94301DD130FD
:100A400079F4C13049F424EB30E040E050E068E450
:100A50007BE086E30E94542160E080E40E94471E10
:100A600060E470E080E090E00E94301DCF5FC33012
:100A7000E1F660E080E40E94471E60E080E40E94AE
:100A80000E1E86E3DF91CF910C9480241F93CF93A9
:100A9000DF93182FEB01209731F020E030E0A9011F
:100AA00086E30E94542161E0812F0E940E1E61E0C6
:100AB000812F0E94471E60E870E080E090E00E9475
:100AC000301D60E0812F0E94471ECD2B31F086E360
:100AD000DF91CF911F910C948024DF91CF911F91D2
:100AE00008958830C9F08930E9F0873081F58CE4C9
:100AF00092E090931D0280931C0281E0809371002C
:100B000061E08FE30E940E1E8091D4068430F9F4D8
:100B100061E08EE30C94471E41E06CE878E08FE3DF
:100B20000E94460589E192E090931D0280931C0289
:100B300081E0809371008091D406843041F460E0BC
:100B40008FE30E94471E60E08FE30C940E1E089511
:100B5000843021F0853021F48EE303C08FE301C09F
:100B600080E440E06CE878E00C94460520E04BE03F
:100B70006AE08DED96E00C946F168DED96E00C9486
:100B800016168F929F92AF92BF92CF92DF92EF9202
:100B9000FF926B017C0149015A018091D606909128
:100BA000D706A091D806B091D906892B8A2B8B2B1A
:100BB00051F180ECC81684EDD80681E0E806F10416
:100BC00031F48CE098E00E94A61E892BE1F4C70165
:100BD000B6010E94AA026B017C012091D6063091D9
:100BE000D7064091D8065091D906281939094A09E3
:100BF0005B09A4E1B0E00E94932721E0C616D70666
:100C0000E806F90608F420E0822FFF90EF90DF90CD
:100C1000CF90BF90AF909F908F9008958F929F92AA
:100C2000AF92BF92CF92DF92EF92FF92CF936B0180
:100C30007C018090D6069090D706A090D806B09000
:100C4000D906C1E0F8941092DC068091D606909106
:100C5000D706A091D806B091D906892B8A2B8B2B69
:100C600009F060C0C114D104E104F10461F442E070
:100C700050E062E072E085E00E94C71A43E050E075
:100C80006CEF71E00DC081E0C816D104E104F104FD
:100C900059F481E20E94FF0242E050E06AE072E013
:100CA00084E00E94C71A1FC088E5C816D104E10479
:100CB000F10411F480E215C08CEBC816D104E104F4
:100CC000F10449F487E00E94FF0242E050E062E054
:100CD00072E085E0E6CF809168008E7F80936800A7
:100CE0008C2D0E94FF029CB381E0C816D104E10460
:100CF000F10411F480E101C080E2892B8CBB1092D9
:100D00007A0010927B00809164008F6E8093640063
:100D1000809165008F638093650083B7817F8460D5
:100D200083BF3AC083B7817F83BF809164008160B5
:100D3000809364008091640084608093640080915B
:100D40006400806880936400809164008260809376
:100D500064008091650081608093650080916500EA
:100D6000826080936500809164008062809364005B
:100D70008091640088608093640080916400806446
:100D8000809364008091650080618093650080910C
:100D90006500806280936500789483B7816083BF2B
:100DA000889583B78E7F83BF809165008B7F80930A
:100DB0006500809164008F7D809364008091640061
:100DC0008F7B8093640080916500877F80936500AE
:100DD000809164008F7780936400C0936800CBBBE0
:100DE000A5019401C701B6010E94C10581112ACF56
:100DF000CF91FF90EF90DF90CF90BF90AF909F90FA
:100E00008F900895CF93DF93EC0163E070E080E072
:100E100090E00E940E06BE018CE098E0DF91CF9139
:100E20000C9430215F926F927F928F929F92AF923B
:100E3000BF92CF92DF92EF92FF920F931F93CF93C7
:100E4000DF93CDB7DEB7AC970FB6F894DEBF0FBE19
:100E5000CDBF6C010E947F036DE972E0CE01019667
:100E60003C010E946325B301C6010E947A267C01E1
:100E7000C3010E94F524EF20E09409F4A1C06DE4C1
:100E8000C6010E94B1267C0169E5C6010E94B12617
:100E9000970121503109AC014F5F5F4FB601C3018B
:100EA0000E94B826C3010E94FD264B015C01C301CC
:100EB0000E94F52464E4C6010E94B1267C016DE421
:100EC000C6010E94B126970121503109AC014F5F44
:100ED0005F4FB601C3010E94B826C3010E94FD26E0
:100EE000162FC3010E94F52468E6C6010E94B126B0
:100EF0007C0164E4C6010E94B126970121503109AA
:100F0000AC014F5F5F4FB601C3010E94B826C30119
:100F10000E94FD26562EC3010E94F5246DE6C601EF
:100F20000E94B1267C0168E6C6010E94B1269701A5
:100F300021503109AC014F5F5F4FB601C3010E94E0
:100F4000B826C3010E94FD26062FC3010E94F52486
:100F500063E7C6010E94B1267C016DE6C6010E94CE
:100F6000B126970121503109AC014F5F5F4FB601A7
:100F7000C3010E94B826C3010E94FD26E62EC301CC
:100F80000E94F52463E7C6010E94B126F601248180
:100F90003581AC014F5F5F4FB601C3010E94B82697
:100FA000C3010E94FD26C62EC3010E94F524252DF3
:100FB000412FB401C3010E947613C3010E94B813EC
:100FC000CE0187960E9428148CA51F928F938BA523
:100FD0001F928F938AA51F928F9389A51F928F933B
:100FE00088A51F928F938FA190E08053984F9F9375
:100FF0008F9381EA92E09F938F937F926F920E94EA
:10100000602AB301CE0181960E9463256FEB72E0E6
:10101000CE014B960E946325BE016F5D7F4FCE01CE
:101020004B960E941E26BC01CE0145960E9490253B
:10103000CE0145960E940207CE0145960E94F524F6
:10104000CE014B960E94F524CE0181960E94F52494
:101050000E948B030FB6F894DEBF0FBECDBFAC96D7
:101060000FB6F894DEBF0FBECDBFDF91CF911F91B9
:101070000F91FF90EF90DF90CF90BF90AF909F9037
:101080008F907F906F905F9008958BE30E947D1EFC
:10109000892B71F461E08BE30E940E1E61E08BE30B
:1010A0000E94471E67E070E080E090E00C940E061E
:1010B000089560E08BE30E94471E63E070E080E0EB
:1010C00090E00E940E0661E08BE30E94471E67E0FD
:1010D00070E080E090E00C940E06CF93DF93D82F61
:1010E000C62FCC2371F0C15041E06CE878E08D2F21
:1010F0000E94460562E070E080E090E00E940E06EB
:10110000F0CFDF91CF910895CF93C82F0E946D0843
:1011100080E180939100109271001092D606109297
:10112000D7061092D8061092D90660E08C2F0E9444
:10113000471E60E08C2FCF910C940E1E40E06CE8AF
:1011400078E08FE30E94460564E070E080E090E084
:101150000E940E0640E06CE878E08EE30E944605AF
:1011600064E070E080E090E00E940E0640E06CE8F1
:1011700078E080E40E9446050E94940465E070E0F7
:1011800080E090E00E940E060C94AE04482F50E0E0
:101190004C305105E0F4FA01EE58FF4F0C947E27D5
:1011A0000C94FF040C949E0840E060E070E08FE334
:1011B0000CC00C94A8050C94710563E08EE30C94AC
:1011C0006D0840E06CE878E080E40C9446050895F2
:1011D000682F70E080E090E00E940E068CE098E0BE
:1011E0000E94A61E892B29F08CE098E00E94BF1E69
:1011F000F5CF08950E940E068CE098E00E94A61E8E
:1012000008954F925F926F927F928F929F92AF92CA
:10121000BF92CF92DF92EF92FF920F931F93CF93E3
:10122000DF93CDB7DEB7C058D1090FB6F894DEBF53
:101230000FBECDBF5C012A013B018E010F5F1F4F26
:1012400080E8F80111928A95E9F70E94011D6B016F
:101250007C01912C0E94011D6C197D098E099F094A
:10126000641575058605970548F48CE098E00E94A2
:10127000A61E892B29F097FE0BC002C080E015C086
:10128000B501C8010E940C2A892B21F381E00DC011
:1012900088248394890C8CE098E00E94BF1EF8019A
:1012A000E90DF11D8083982CE0CFC058DF4F0FB6B9
:1012B000F894DEBF0FBECDBFDF91CF911F910F918C
:1012C000FF90EF90DF90CF90BF90AF909F908F9066
:1012D0007F906F905F904F900895EF92FF920F93E1
:1012E0001F93CF93DF9300D01F92CDB7DEB78C0151
:1012F0007B0185E029833A834B835C830E94E80865
:10130000B8018CE098E00E94422129813A814B810A
:101310005C81BA01A901C7010F900F900F900F9047
:10132000DF91CF911F910F91FF90EF900C940109E5
:101330008091D406853089F487E00E94710548E0E9
:1013400056EE60E070E087E29AE00E941F03882377
:10135000C9F088E00E9471051AC024E336E040E03D
:1013600050E066EA74E080ED92E00E946D0948EE7C
:101370005AE160E070E082EC9AE00E941F0388234B
:10138000D9F205C089E00E94710580E0089581E0EE
:101390000895CF93DF93D4E0D15011F4C0E02BC077
:1013A00024E336E040E050E066EA74E08EEE92E03E
:1013B0000E946D0924E336E040E050E066EA74E004
:1013C0008EEF92E00E946D0924E336E040E050E0A9
:1013D00066EA74E08AE093E00E946D0924E336E057
:1013E00040E050E066EA74E087E193E00E946D0916
:1013F000C82F882389F224E336E040E050E066EA13
:1014000074E082EE92E00E946D098C2FDF91CF9103
:10141000089524E336E040E050E063E473E08BE4B9
:1014200093E00E946D09882381F024E336E040E0D8
:1014300050E064E575E08BE793E00E946D0991E070
:10144000811101C090E0892F089580E0089528EC73
:1014500039E440E050E066E873E08EE893E00C94F5
:101460006D0924E336E040E050E068E974E08EE97D
:1014700093E00C946D092F923F924F925F926F927E
:101480007F928F929F92AF92BF92CF92DF92EF9214
:10149000FF920F931F93CF93DF93CDB7DEB7C25860
:1014A000D1090FB6F894DEBF0FBECDBF5C014B0172
:1014B000CF57DF4F59834883C158D04018012901C5
:1014C000CE0101963C0180E8F30111928A95E9F77B
:1014D0000E94011D6B017C0110E00E94011D6C192E
:1014E0007D098E099F09621573058405950548F4E9
:1014F0008CE098E00E94A61E892B29F017FF1CC0E3
:1015000002C080E025C0B501C3010E940C2A892BCE
:1015100089F4B401C3010E940C2A892B59F4CF57D6
:10152000DF4F68817981C158D040C3010E940C2AE5
:10153000892B99F281E00CC001E0010F8CE098E06A
:101540000E94BF1EF301E10FF11D8083102FD0CF49
:10155000CE57DF4F0FB6F894DEBF0FBECDBFDF9181
:10156000CF911F910F91FF90EF90DF90CF90BF90A0
:10157000AF909F908F907F906F905F904F903F9033
:101580002F9008950F931F9385E00E94E80861EA69
:1015900073E08CE098E00E94422104E316E020E032
:1015A00030E04EEA53E061EB73E084EB93E00E949D
:1015B0003B0A1F910F9108954F925F926F927F9215
:1015C0008F929F92AF92BF92CF92DF92EF92FF9253
:1015D0000F931F93CF93DF9300D01F92CDB7DEB749
:1015E0005C017B014A0109831A832B833C830E949F
:1015F000011D2B013C0100E010E00E94011D641957
:1016000075098609970929813A814B815C816217A6
:1016100073078407950768F46701C00ED11E8CE03C
:1016200098E00E94A61E892B31F00815190558F084
:1016300002C080E012C0B501C7010E940C2A892BAC
:10164000E1F281E00AC00F5F1F4F8CE098E00E943A
:10165000BF1EF60181936F01E2CF0F900F900F90A4
:101660000F90DF91CF911F910F91FF90EF90DF903E
:10167000CF90BF90AF909F908F907F906F905F9032
:101680004F900895CF92DF92EF92FF920F931F93A6
:10169000CF93DF93CDB7DEB7C05CD1400FB6F894DF
:1016A000DEBF0FBECDBF8091B2068F938091B10691
:1016B0008F938091B0068F938091AF068F93809126
:1016C000AE061F928F938091D2068F938091D106A0
:1016D0008F938091D0068F938091CF068F938091C6
:1016E000CE068F938091CD068F938091CC068F93F9
:1016F0008091CB068F938091CA068F938091C90603
:101700008F938091C8068F938091C7068F938091A5
:10171000C6068F938091C5068F938091C4068F93E0
:101720008091C3068F938091C2068F938091C106EA
:101730008F938091C0068F938091BF068F93809185
:10174000BE068F938091BD068F938091BC068F93C8
:101750008091BB068F938091BA068F938091B906D2
:101760008F938091B8068F938091B7068F93809165
:10177000B6068F938091B5068F938091B4068F93B0
:101780008091B3068F9387EB93E09F938F938E01A5
:101790000F5F1E4F1F930F930E94602A0FB6F8949D
:1017A000DEBF0FBECDBF60E070E0C8010E94EF2930
:1017B0006C01CE0101967C0180E091E0F7019C0173
:1017C000119221503040E1F7B801CE0187559E4F6C
:1017D0000E946325B601601B710B4AE0CE018B5459
:1017E0009E4F0E94B12569E074E0CE0181559E4F65
:1017F0000E946325BE016B547E4FCE0181559E4FE2
:101800000E941E2661E374E00E943126BE016755E6
:101810007E4F0E941E26BC01CE0185549E4F0E9421
:101820009025CE0181559E4F0E94F524CE018B5408
:101830009E4F0E94F524CE0187559E4F0E94F524AD
:10184000D12CD39499E0D91649F1BE0165547E4F4D
:101850008CE098E00E94302131E0D31641F084E022
:101860008D1550F008E916E020E030E009C006EEE2
:1018700013E020E030E004C004E71CE020E030E0AA
:1018800040E051E0B7018BE994E00E94DC0A882334
:10189000C1F283E00E94C60811E001C010E0CE0151
:1018A00085549E4F0E94F524812FC054DE4F0FB601
:1018B000F894DEBF0FBECDBFDF91CF911F910F9186
:1018C000FF90EF90DF90CF9008952F923F924F922C
:1018D0005F926F927F928F929F92AF92BF92CF92C0
:1018E000DF92EF92FF920F931F93CF93DF931F929C
:1018F0001F92CDB7DEB78091DC06833009F077C048
:1019000080E00E94FF040E94A00381E00E94EA039D
:1019100080E090E00E948A2CD82E082F10E00E94D0
:10192000450886E00E94E8080E94420B95E2D99E95
:10193000900111248823B1F11801A12CB12CC12CE4
:10194000D12C4901E5E28E1A910866246394712C2A
:10195000C3018E5A96403C0181010C191D0909F4FE
:101960003FC024014A0C5B1C5EEAE52E56E0F52ED2
:10197000460C571CC2018E0D9F1D0E948A2CF70138
:1019800081937F01F3EDEF16F6E0FF0699F70E94D1
:10199000420B9FEFC91AD90AE5E2AE1AB1088111CC
:1019A000DBCF1EC04EEAE42E46E0F42EC9018D5A6C
:1019B00096404C0194012E0D3F1DF70161917F016E
:1019C0003A832983CE0101960E946E02F3EDEF1651
:1019D000F6E0FF0679F78DE68D1510F00F5F1F4FCB
:1019E0001A821982602FCE0101960E946E020F901A
:1019F0000F90DF91CF911F910F91FF90EF90DF90AB
:101A0000CF90BF90AF909F908F907F906F905F909E
:101A10004F903F902F9008955F926F927F928F9298
:101A20009F92AF92BF92CF92DF92EF92FF920F936D
:101A30001F93CF93DF93CDB7DEB7CD5AD1090FB641
:101A4000F894DEBF0FBECDBF48EE5AE160E070E013
:101A500082EC9AE00E941F03811102C080E0A4C0C2
:101A6000CE0101967C018EE9F70111928A95E9F782
:101A700085E00E94E80869EA74E08CE098E00E9442
:101A8000422104E316E020E030E04EE950E0B701E7
:101A900086EA94E00E94DC0A882301F38E01015655
:101AA0001F4F8FE0E4EBF4E0D80101900D928A958E
:101AB000E1F7F80101900020E9F731975E2E501A06
:101AC00067E670E0C7010E94EF290A974C016EE6B5
:101AD00070E0C7010E94EF290A975C016FE470E093
:101AE000C7010E94EF2904976C0185E00E94E80875
:101AF0003801862D801B851540F4F30161913F016B
:101B00008CE098E00E942521F4CF60E770E0C701E7
:101B10000E94EF298C010E5F1F4F0815190540F434
:101B2000F80161918F018CE098E00E942521F5CFAA
:101B30006CE28CE098E00E94252169E770E0C70123
:101B40000E94EF298C010E5F1F4F0A151B0540F400
:101B5000F80161918F018CE098E00E942521F5CF7A
:101B60006CE28CE098E00E9425216BE670E0C701F2
:101B70000E94EF298C010E5F1F4F0C151D0540F4CC
:101B8000F80161918F018CE098E00E942521F5CF4A
:101B90008CE098E00E942C2144E356E060E070E085
:101BA00086EA94E00E940109C355DF4F0FB6F8940E
:101BB000DEBF0FBECDBFDF91CF911F910F91FF9080
:101BC000EF90DF90CF90BF90AF909F908F907F90DD
:101BD0006F905F9008958DED96E00E944115892BDE
:101BE00029F08DED96E00E94B314F5CF08950E9480
:101BF0000E068DED96E00E94411508952F923F92BA
:101C00004F925F926F927F928F929F92AF92BF920C
:101C1000CF92DF92EF92FF920F931F93CF93DF93B8
:101C2000CDB7DEB769970FB6F894DEBF0FBECDBF54
:101C3000982E690188E08E010F5E1F4FF801982FE2
:101C400011929A95E9F795EF998B988F9A8A6C8BF8
:101C50004D8B5E01E9E0AE0EB11CF50111928A9543
:101C6000E9F7FE017296CE01479631912F8923271D
:101C70002F8BE817F907C9F70E94EB0DE091DD06FD
:101C8000F091DE060280F381E02D48E050E0B801DB
:101C90008DED96E019950E94011D2B013C01812CD0
:101CA000E12CF12C78E0272E312C0E94011D6419C3
:101CB0007509860997096C157D058E059F0588F0C5
:101CC00081E054C021E0230D8DED96E0298F0E9424
:101CD000B314F501E30DF11D8083298D283041F007
:101CE000322E8DED96E00E944115892B59F7DDCFFC
:101CF000811023C0EFE2F2E0DE011196822D019007
:101D00000D928A95E1F748E050E0BE016F5F7F4F8A
:101D1000C5010E94D929892B81F4E091DD06F0915B
:101D2000DE060280F381E02D48E050E0B8018DED41
:101D300096E0199588248394B7CF8985853F09F06B
:101D4000BFCF8A858911BCCF8889853F09F0B8CF7C
:101D5000F9E09F1639F08CE0981207C08C858093CB
:101D6000AE0603C08C858093D3068D8569960FB629
:101D7000F894DEBF0FBECDBFDF91CF911F910F91C1
:101D8000FF90EF90DF90CF90BF90AF909F908F909B
:101D90007F906F905F904F903F902F90089580912B
:101DA000DA0681110EC044E851E060E070E086EA96
:101DB0009FE00E941F03882381F081E08093DA0670
:101DC000089528E530E040E060E08CE20E94FE0DDE
:101DD00091E0811190E09093DA060895CF93DF931C
:101DE0000E94CF0EC0E068E570E080E090E00E94C5
:101DF000F70D882379F01092DA060E94CF0ED1E019
:101E0000DC0F84E08C0F0E94C608D33011F0CD2F78
:101E1000EACFC3E082E08C0F8093D406CC2321F07C
:101E2000DF91CF910C94C804DF91CF91089526E003
:101E300040E052EC61E070E08CE098E00E94B81F56
:101E400040E05BE460E070E08DED96E00E949F165C
:101E500061E08DE00E940E1E60E08DE00E94471E52
:101E60000E949E080C94EE0ECF92DF92EF92FF92AA
:101E7000CF93C82F0E94CF0E0E944D031092DB0615
:101E8000CC2ED12CE12CF12C8091DB06883018F07F
:101E900081E00E94FF04C701B6010E940E060E9465
:101EA00011038111F1CF8091DC06811102C01092E3
:101EB000DA06CF5FC093D406CF91FF90EF90DF900A
:101EC000CF900895CF9328E43BE040E060E08CE0C1
:101ED0000E94FE0DC82F0E94CF0EC530B1F0C23057
:101EE000A0F00E94940480E00E94FF0467E070E08C
:101EF00080E090E00E940E0664E070E080E090E0F8
:101F00000E940E06CF910C94AE0481E0CF910C9408
:101F1000FF048091DC06813079F41092AE066CEB00
:101F200070E080E090E00E940E060E94080381307D
:101F300019F480E00E94EA038091DC06823029F4E3
:101F400080E00E94EA030C94620F08952CEB30E0CD
:101F500040E060E08CE20E94FE0D91E0811190E093
:101F6000892F0895EF92FF920F931F93CF93DF93E2
:101F7000CDB7DEB768970FB6F894DEBF0FBECDBF02
:101F80008C01FC012481358148E050E0BC01CE0188
:101F900001960E94B826CE0101960E94FD26F62EDB
:101FA000CE0101960E94F524FF2009F466C063EC7F
:101FB00074E0CE0101960E946325CE0101960E9435
:101FC0000207CE0101960E94F52462E080E40E949F
:101FD0006D0820E33FE042E06F2D81E00E94FE0D9E
:101FE000E82E811157C065EF74E08CE098E00E9404
:101FF00042218BE00E94C60864E070E080E090E03F
:102000000E940E0666E070E0C8010E945C268333E1
:1020100051F420E33FE042E06F2D82E00E94FE0D8C
:10202000882309F481C020E33FE042E06F2D83E084
:102030000E94FE0DE82E81112DC080E00E94FF0459
:102040004AE06F2DCE0107960E94B12560E175E050
:10205000CE0101960E946325BE01695F7F4FCE01CC
:1020600001960E941E26BC018CE098E00E9430215F
:10207000CE0101960E94F52446C060E375E0CE01D2
:1020800001960E946325CE0101960E940207CE01AF
:1020900001963BC081E00E94FF046E2DCE010796A1
:1020A0000E9455034AE06E2DCE0143960E94B12551
:1020B00061E475E0CE010D960E946325BE016D5E60
:1020C0007F4FCE010D960E941E2663E575E00E94AB
:1020D0003126BE01695F7F4F0E941E26BC01CE01E2
:1020E00001960E949025CE0101960E940207CE0122
:1020F00001960E94F524CE010D960E94F524CE0192
:1021000043960E94F524CE0107960E94F524689616
:102110000FB6F894DEBF0FBECDBFDF91CF911F91F8
:102120000F91FF90EF90089566E575E08CE098E0E0
:102130000E9442218BE00E94C60864E070E080E0CB
:1021400090E00E940E066FCF0F931F93CF93DF9303
:10215000CDB7DEB768970FB6F894DEBF0FBECDBF20
:10216000FC012481358147E050E0BC01CE0101969D
:102170000E94B826CE0101960E94FD26162FCE01A0
:1021800001960E94F524112389F12CEB30E040E008
:10219000612F84E00E94FE0D082F811134C04AE0B7
:1021A000612FCE010D960E94B1256EE675E0CE013D
:1021B00007960E946325BE01635F7F4FCE0107969D
:1021C0000E941E26BC01CE0101960E949025CE01E0
:1021D00001960E940207CE0101960E94F524CE01CD
:1021E00007960E94F524CE010D9645C060E375E088
:1021F000CE0101960E946325CE0101960E9402073E
:10220000CE01019638C0682FCE0107960E94550373
:102210004AE0602FCE0143960E94B12561E475E04B
:10222000CE010D960E946325BE016D5E7F4FCE01EB
:102230000D960E941E2663E575E00E943126BE01C0
:10224000695F7F4F0E941E26BC01CE0101960E944D
:102250009025CE0101960E940207CE0101960E94B0
:10226000F524CE010D960E94F524CE0143960E94DE
:10227000F524CE0107960E94F52468960FB6F894CF
:10228000DEBF0FBECDBFDF91CF911F910F9108959B
:102290000F931F93CF93DF93CDB7DEB768970FB639
:1022A000F894DEBF0FBECDBF6AE974E0CE0143965D
:1022B0000E94632560EC74ED81E090E00E94FA08D2
:1022C000882309F43EC18CE098E00E94A61E892B69
:1022D00089F38CE098E00E94BF1E8A3009F02BC180
:1022E0006EE975E0CE0101960E946325BE016F5F25
:1022F0007F4FCE0143960E947A268C01CE01019633
:102300000E94F5240F3F1F4FB9F063EA75E0CE013C
:1023100001960E946325CE0101960E940207CE011C
:1023200001960E94F5240E94620F63EB75E08CE039
:1023300098E00E944221F8C061EC75E0CE01019660
:102340000E946325BE016F5F7F4FCE0143960E94BE
:102350007A268C01CE0101960E94F5240F3F1F4F73
:1023600061F0BE016D5E7F4FCE0101960E94902507
:10237000CE0101960E94B20FD3C068EC75E0CE0189
:1023800001960E946325BE016F5F7F4FCE01439689
:102390000E947A268C01CE0101960E94F5240F3FFF
:1023A0001F4F61F0BE016D5E7F4FCE0101960E940E
:1023B0009025CE0101960E94A410B2C06FEC75E08A
:1023C000CE0101960E946325BE016F5F7F4FCE0153
:1023D00043960E947A268C01CE0101960E94F52434
:1023E0000F3F1F4F79F02CEB30E040E060E085E0DC
:1023F0000E94FE0D813019F06BE875E089C067E935
:1024000075E086C068ED75E0CE0101960E946325F7
:10241000BE016F5F7F4FCE0143960E947A268C01EA
:10242000CE0101960E94F5240F3F1F4FB1F110928B
:10243000D3062CEB30E040E060E089E00E94FE0D26
:10244000813041F14AE06091D306CE010D960E94A1
:10245000B1256EED75E0CE0107960E946325BE01A1
:10246000635F7F4FCE0107960E941E26BC01CE01FE
:1024700001960E949025CE0101960E940207CE018E
:1024800001960E94F524CE0107960E94F524CE0104
:102490000D9648C065EF75E03BC067E276E0CE017F
:1024A00001960E946325BE016F5F7F4FCE01439668
:1024B0000E947A268C01CE0101960E94F5240F3FDE
:1024C0001F4F61F0BE016D5E7F4FCE0101960E94ED
:1024D0009025CE0101960E94120722C06CE276E0A0
:1024E000CE0101960E946325BE016F5F7F4FCE0132
:1024F00043960E947A268C01CE0101960E94F52413
:102500000F3F1F4F19F061E376E01DC06FE376E0E7
:10251000CE0101960E946325CE0101960E9402071A
:10252000CE0101960E94F5246AE974E0CE0143963B
:102530000E949925C8CE682FCE0143960E940A2694
:10254000C2CE6EE476E0CE0101960E946325CE01F4
:1025500001960E940207CE0101960E94F524CE0149
:1025600043960E94F52468960FB6F894DEBF0FBE1E
:10257000CDBFDF91CF911F910F91089561E676E075
:102580008CE098E00E9423218CE098E00E94311FAB
:102590000C94310A0E94BE12811104C00E94590895
:1025A0000C94BE1281E008950E9445080E94CA1250
:1025B000882321F18091D406853081F424E336E02C
:1025C00040E050E066EA74E085E696E00E946D091E
:1025D00067E070E080E090E00E940E060E9498099B
:1025E000882371F00E94C909882361F00E940C0DB4
:1025F000811102C083E0089584E0089580E0089589
:1026000081E0089582E008950E94D412682F70E05E
:102610008FE30C9484080E94D412823050F044E777
:102620005CE060E070E089E09AE00E941F038111A5
:1026300005C062E070E08EE30C9484088AE00E949A
:10264000C6080E9448110E94CF0EF3CF8091D40695
:10265000833081F038F4813051F0823081F40E946F
:10266000650C0DC0843049F0853021F008C00E940F
:10267000890F05C00E94041302C00E940B130E9420
:1026800008030C94340F803D27E0920710F0805D22
:10269000974050E0ECE5F2E021E02E1B322F3E0F98
:1026A000361728F43491430F511D3196F7CF63301C
:1026B00038F09C0123703327232B11F44F5F5F4FB9
:1026C0006DE671E0869F9001879F300D969F300DDB
:1026D00011242150310903969695879596958795F3
:1026E000280F391FC901840F951F0895CF92EF92CB
:1026F0000F93FC01603D87E0780710F0605D774044
:102700006083418322830383E482C5820F91EF902B
:10271000CF900895CF93DF93EC0188814A8169813E
:1027200090E00E9443139C01A8E1B0E00E9484273E
:102730009B01AC018B81280F311D411D511DACE364
:10274000B0E00E9493279B01AC018C81280F311DC2
:10275000411D511D0E9493272D81620F711D811D06
:10276000911D60587C4B8249974CDF91CF91089521
:102770001F93CF93DF93EC0168E670E083E497E06A
:102780000E942F1860E083E497E00E94DC172D81FF
:102790001AE0822F612F0E940927682F660F680FA9
:1027A000660F620F83E497E00E94DC172C81822F72
:1027B000612F0E940927682F660F680F660F620F4E
:1027C00083E497E00E94DC172B81822F612F0E9407
:1027D0000927682F660F680F660F620F83E497E082
:1027E0000E94DC1760E083E497E00E94DC172A81F6
:1027F000822F612F0E940927682F660F680F660FCE
:10280000620F83E497E00E94DC172981822F612FF9
:102810000E940927682F660F680F660F620F83E416
:1028200097E00E94DC172881822F612F0E940927E0
:10283000682F660F680F660F620F83E497E00E94AF
:10284000DC1783E497E0DF91CF911F910C94A818D7
:10285000CF92DF92EF92FF920F931F93CF93DF936C
:10286000EC0168E670E083E497E00E942F1860E0D6
:1028700083E497E00E94DC1783E497E00E94A818A5
:1028800047E050E068E670E083E497E00E94A51816
:1028900083E497E00E948C178F77982F92959F7012
:1028A0001AEF082F919F000D112483E497E00E94F6
:1028B0008C179C013327A4E035952795AA95E1F75D
:1028C000F82E129FF00C112483E497E00E948C17DD
:1028D0009C013327B4E035952795BA95E1F7E82EAA
:1028E000129FE00C112483E497E00E948C1783E48C
:1028F00097E00E948C179C01332794E0359527952B
:102900009A95E1F7D82E129FD00C112483E497E01A
:102910000E948C179C01332744E0359527954A95F2
:10292000E1F7C82E129FC00C112483E497E00E94A7
:102930008C179C01332754E0359527955A95E1F77C
:10294000129F800D11248883C982DA82EB82FC8277
:102950000D83CE01DF91CF911F910F91FF90EF90EA
:10296000DF90CF90089520913E0730913F072817C0
:102970003907B9F49091FC068091FD06981789F00B
:10298000E091FC06F0E0E250F94F80812091FC06D6
:1029900030E02F5F3F4F2F7333272093FC0690E0EA
:1029A00008958FEF9FEF08951F93CF93DF93DC017E
:1029B0005C968D919C915D97009749F481E090E041
:1029C00013969C938E93129780E090E03BC05196B3
:1029D000ED91FC91529750962C915097322F309553
:1029E0001FB75E964C915E9741FB772770F941FDCA
:1029F0006095F8944081772311F0422B01C0432366
:102A00004083EC012197F1F748E0508160FF02C05C
:102A1000522B01C053235083EC012197F1F76695A7
:102A2000415099F78081772311F0832301C0822BD5
:102A300080831FBF5C968D919C915D970197F1F704
:102A400081E090E0DF91CF911F910895089520914A
:102A50003E0730913F072817390781F49091FC0613
:102A60008091FD06981751F0E091FC06F0E0E250ED
:102A7000F94F8081992787FD909508958FEF9FEFFB
:102A8000089520913E0730913F072817390771F4C8
:102A90008091FD062091FC0690E0805C9F4F821B98
:102AA000910960E470E00E942927089580E090E099
:102AB0000895E0913E07F0913F07E817F90769F4A0
:102AC000A389B4899C918589809589238C931092E0
:102AD0003F0710923E0781E0089580E00895CF936C
:102AE000DF93EC018A8D9B8D892BF1F080913E075D
:102AF00090913F078C179D07B9F0009711F00E9445
:102B000059158E8D8E7F8E8F1092FD061092FC06C9
:102B1000D0933F07C0933E07EB89FC8980819D8954
:102B2000892B808381E001C080E0DF91CF910895FF
:102B30001F920F920FB60F9211240BB60F922F9384
:102B40003F934F935F936F937F938F939F93AF9335
:102B5000BF93EF93FF93E0913E07F0913F073097CB
:102B600009F451C0868DA685B785958581FF04C07F
:102B70008C91892329F447C08C91892309F043C0A3
:102B8000A389B4899C918589809589238C938689B2
:102B900097890197F1F7208D318DA685B7857585C9
:102BA00058E040E0C9010197F1F7842F90E0959536
:102BB0008795482F6C91672309F04068515091F731
:102BC000868D81FD40958091FD0690E001968F7382
:102BD00099272091FC06281749F0A091FD06B0E046
:102BE000A250B94F4C938093FD0603C0868D81603F
:102BF000868F828D938D0197F1F7A389B4898C918B
:102C00009589892B8C93FF91EF91BF91AF919F9103
:102C10008F917F916F915F914F913F912F910F9085
:102C20000BBE0F900FBE0F901F90189524E736E053
:102C3000FC01318320830C9459151F93CF93DF93AC
:102C4000EC01162F6E8D6695617081E06827812FEB
:102C50000E94471E61E0812F0E940E1E812F90E08E
:102C6000FC01E255FD4FE491E88BFC01EC50FD4F77
:102C7000E491F0E0EE0FFF1FEC5AFC4F8591949128
:102C80009A8B898BDF91CF911F9108951F93CF93DA
:102C9000DF93EC01162F60E0812F0E940E1E8E8DB7
:102CA00081FD04C061E0812F0E94471E1C87812F97
:102CB00090E0FC01E255FD4FE491ED87FC01EC5002
:102CC000FD4FE491F0E0EE0FFF1FE65CFC4F8591B5
:102CD00094919F878E87DF91CF911F910895FF92E6
:102CE0000F931F93CF93DF93EC01F62E522F1B828D
:102CF0001A8208EE13E020E030E00C831D832E835F
:102D00003F8384E796E0998388831F8A1E8A198E01
:102D1000188E1B8E1A8E1D8E1C8E8E8D8E7F50FBF4
:102D200081F98E8F642FCE010E941D166F2DCE016A
:102D3000DF91CF911F910F91FF900C9446160F9346
:102D40001F93CF93DF93EC019A01AB011B8E1A8E78
:102D5000198E188E1F8A1E8A60E079E08DE390E05C
:102D60000E945F27C9012430310520F0B90163506A
:102D7000710902C061E070E07D8F6C8F1C8506EFE9
:102D8000010F043048F06EEC610F643028F062EC03
:102D9000610F683008F07DC0B901769567956431A0
:102DA000710518F06351710902C061E070E07F8B1A
:102DB0006E8B069718F0C901059702C081E090E07C
:102DC000998F888FC901880F991F820F931F96953D
:102DD0008795969587958D30910510F00C9702C0D8
:102DE00081E090E09B8F8A8F043060F08EEC810F41
:102DF000843040F082EC810F883008F051C0A8E6A2
:102E0000B0E050C0A8E6B0E0E8E6F0E09081043021
:102E100028F01E53183010F484E001C081E0892BA3
:102E20008C932C8536EF320F343058F08EEC820FB5
:102E3000843038F082EC820F883030F48DE690E0F8
:102E400005C08BE690E002C080E090E09C8B8B8B0D
:102E5000343010F426500BC0223379F0233379F04C
:102E6000243379F082EC820F883068F4282F81E0D7
:102E700001C0880F2A95EAF707C088E005C084E002
:102E800003C082E001C081E08D8B8C8D9D8D019708
:102E9000F1F7CE01DF91CF911F910F910C946F1537
:102EA000A0E0B0E0883008F4AFCFE0E0F0E0AECFD3
:102EB00008951F920F920FB60F9211240BB60F9226
:102EC0002F933F934F935F936F937F938F939F9332
:102ED000AF93BF93EF93FF93E0911C02F0911D021B
:102EE0001995FF91EF91BF91AF919F918F917F9134
:102EF0006F915F914F913F912F910F900BBE0F906B
:102F00000FBE0F901F9018958091730790E020914D
:102F10007407821B910908952091740780917307AB
:102F2000281750F4E22FF0E0EB58F84F808190E042
:102F30002F5F2093740708958FEF9FEF0895E0911E
:102F4000740780917307E81730F4F0E0EB58F84FFE
:102F5000808190E008958FEF9FEF08950895CF92BC
:102F6000DF92EF92FF920F931F93CF93DF937C0139
:102F7000CB018A0120914F07222389F0EB016B01DD
:102F8000C40ED51ECC15DD0569F06991D701ED9110
:102F9000FC910190F081E02DC7011995F3CF642FCA
:102FA0000E946C19C801DF91CF911F910F91FF9082
:102FB000EF90DF90CF900895CF93DF931F92CDB71E
:102FC000DEB7698320914F072223D1F0209150076B
:102FD000203240F021E030E0FC013383228380E0A6
:102FE00090E015C080915107E82FF0E0EE5AF84FBD
:102FF000998190838F5F809351078093500705C01C
:1030000061E0CE0101960E946C1981E090E00F9082
:10301000DF91CF910895FC011382128248EE53E0B4
:1030200060E070E0448355836683778384E896E0AC
:103030009183808308951092740710927307109201
:103040005107109250070C94AF1881E080934F07FE
:1030500060937207109251071092500708950C94D4
:1030600025180F93062F21E04091500762E577E085
:10307000809172070E941519109251071092500703
:1030800010924F070F9108958F929F92AF92BF9227
:10309000CF92DF92EF92FF920F931F93CF93DF9324
:1030A000EC01F62ED42E48015901EE2019F10E94B0
:1030B00025181E2D143008F013E01150B8F0E881E7
:1030C000F98128E0129FB0011124A501940104C0E8
:1030D00056954795379527956A95D2F7CA01B90154
:1030E0000190F081E02DCE011995E7CF60E0CE018F
:1030F0000E9431184D2D413208F040E22C2D65E739
:1031000077E08F2D0E94CD1810927407809373077B
:10311000DF91CF911F910F91FF90EF90DF90CF90B3
:10312000BF90AF909F908F900895CF92EF920F93A2
:103130001F93C22EE12C00E010E098010E94441879
:103140001F910F91EF90CF90089521E00C94951866
:1031500061E00C94311883E497E00C940B18109202
:10316000020881E0809300081092FF0761E084E18B
:103170000E94471E61E085E10E94471EE9EBF0E0F6
:1031800080818E7F808380818D7F808388E480939F
:10319000B80085E48093BC000895413208F043C034
:1031A000909102089111FCCF91E090930208209336
:1031B00000082FEF209395071092DA07240F209331
:1031C000D9079093010890910108880F892B80936B
:1031D00001088091FF07813061F41092FF07809110
:1031E00001088093BB008091BC0083FDF8CF85EC83
:1031F00001C085EE8093BC00809102088130E1F32C
:103200008091DA07841710F44091DA072BED37E04C
:10321000FB01D9018A2F821B841718F48D918193A9
:10322000F9CF842F089580E008950F93413208F07C
:103230004AC0909102089111FCCF92E0909302084D
:10324000009300089FEF909395071092DA07409340
:10325000D907FB016BED77E0DB019A2F961B9417E2
:1032600018F491919D93F9CF109201089091010863
:10327000880F892B809301088091FF07813061F4CA
:103280001092FF07809101088093BB008091BC00E1
:1032900083FDF8CF85EC01C085EE8093BC0022232E
:1032A00021F0809102088230E1F3809195078F3FF1
:1032B00061F080919507803251F0809195078033BD
:1032C00041F483E007C081E005C080E003C082E0F4
:1032D00001C084E00F910895613298F420910208B2
:1032E000243089F46093B707FC0189EB97E0DC0197
:1032F0002A2F281B261718F421912D93F9CF80E04F
:10330000089581E0089582E0089585ED8093BC00E2
:103310008091BC0084FDFCCF10920208089585ECDA
:103320008093BC001092020808951F920F920FB66E
:103330000F9211240BB60F922F933F934F935F93ED
:103340006F937F938F939F93AF93BF93EF93FF936D
:103350008091B900887F803609F49EC078F5883264
:1033600009F45DC090F4803109F456C038F4882324
:1033700009F4F5C0883009F44FC0F5C0883109F46C
:103380004EC0803209F45FC0EEC0803409F46AC0D8
:1033900058F4803309F457C0883309F0E4C08093AF
:1033A00095070E948F19DFC0803509F44FC088351A
:1033B00009F45DC0883409F0D6C0D3C0883909F457
:1033C000C4C0A8F4883709F467C038F4883609F413
:1033D00063C0803709F460C0C6C0883809F4B5C03E
:1033E000803909F45FC0803809F0BDC05BC0803B04
:1033F00009F483C038F4803A09F466C0883A09F4C5
:103400007CC0B1C0803C09F4A4C0883C09F4A1C0D0
:10341000883B09F487C0A7C08091010810C0909133
:10342000DA078091D907981770F5E091DA0781E003
:103430008E0F8093DA07F0E0E552F84F8081809399
:10344000BB0085EC83C0809395078BC0E091DA07C1
:1034500081E08E0F8093DA078091BB00F0E0E552A7
:10346000F84F80839091DA078091D9076BC0E09183
:10347000DA0781E08E0F8093DA078091BB00F0E0DD
:10348000E552F84F80838091000881116AC081E085
:103490008093FF0784EA5EC083E080930208109265
:1034A0009607CFCF80919607803208F04EC0E0910A
:1034B000960781E08E0F809396078091BB00F0E025
:1034C000E956F84F8083BDCF0E948F1980919607EF
:1034D000803230F4E0919607F0E0E956F84F108220
:1034E0006091960770E0E091FB07F091FC0787E997
:1034F00097E019951092960736C084E080930208F1
:103500001092B8071092B707E091FD07F091FE07FF
:1035100019958091B707811105C081E08093B707A5
:103520001092B907E091B80781E08E0F8093B80739
:10353000F0E0E754F84F80818093BB009091B8078A
:103540008091B707981708F47CCF85E88093BC007A
:103550000AC085EC8093BC001092020804C010924F
:1035600095070E948519FF91EF91BF91AF919F91AF
:103570008F917F916F915F914F913F912F910F901C
:103580000BBE0F900FBE0F901F90189508958830B6
:1035900008F06DC0E82FF0E0EE0FFF1FE25EFD4F78
:1035A0007183608390E0FC013197E730F10590F57D
:1035B000E258FF4F0C947E27809169008C7F842B0A
:1035C00080936900E89A089580916900440F551F1F
:1035D000440F551F837F842B80936900E99A0895D7
:1035E0008091690074E0440F551F7A95E1F78F7C54
:1035F000842B80936900EA9A08958091690066E0BF
:10360000440F551F6A95E1F78F73842B80936900EF
:10361000EB9A089580916A008C7F842B80936A00D6
:10362000EC9A089580916A00440F551F440F551F6E
:10363000837F842B80936A00ED9A089580916A00BD
:1036400024E0440F551F2A95E1F78F7C842B80934B
:103650006A00EE9A089580916A0096E0440F551F23
:103660009A95E1F78F73842B80936A00EF9A0895FF
:10367000883020F5482F50E0FA013197E730F10506
:1036800060F4EB57FF4F0C947E27E8980DC0E99843
:103690000BC0EA9809C0EB9807C0EC9805C0ED98FC
:1036A00003C0EE9801C0EF98E82FF0E0EE0FFF1F87
:1036B000E25EFD4F86EC9AE19183808308951F922C
:1036C0000F920FB60F9211240BB60F922F933F93C8
:1036D0004F935F936F937F938F939F93AF93BF931A
:1036E000EF93FF93E0912202F09123021995FF914D
:1036F000EF91BF91AF919F918F917F916F915F916A
:103700004F913F912F910F900BBE0F900FBE0F90D6
:103710001F9018951F920F920FB60F9211240BB69F
:103720000F922F933F934F935F936F937F938F935A
:103730009F93AF93BF93EF93FF93E0912402F09197
:1037400025021995FF91EF91BF91AF919F918F91B4
:103750007F916F915F914F913F912F910F900BBE91
:103760000F900FBE0F901F9018951F920F920FB6DB
:103770000F9211240BB60F922F933F934F935F93A9
:103780006F937F938F939F93AF93BF93EF93FF9329
:10379000E0912602F09127021995FF91EF91BF91D8
:1037A000AF919F918F917F916F915F914F913F91D9
:1037B0002F910F900BBE0F900FBE0F901F9018957A
:1037C0001F920F920FB60F9211240BB60F922F93E8
:1037D0003F934F935F936F937F938F939F93AF9399
:1037E000BF93EF93FF93E0912802F091290219957E
:1037F000FF91EF91BF91AF919F918F917F916F91C9
:103800005F914F913F912F910F900BBE0F900FBE84
:103810000F901F9018951F920F920FB60F921124C0
:103820000BB60F922F933F934F935F936F937F93BA
:103830008F939F93AF93BF93EF93FF93E0911E02FB
:10384000F0911F021995FF91EF91BF91AF919F9158
:103850008F917F916F915F914F913F912F910F9039
:103860000BBE0F900FBE0F901F9018951F920F92D6
:103870000FB60F9211240BB60F922F933F934F93D5
:103880005F936F937F938F939F93AF93BF93EF93C8
:10389000FF93E0912002F09121021995FF91EF91A1
:1038A000BF91AF919F918F917F916F915F914F9158
:1038B0003F912F910F900BBE0F900FBE0F901F9056
:1038C00018951F920F920FB60F9211240BB60F92FC
:1038D0002F933F934F935F936F937F938F939F9318
:1038E000AF93BF93EF93FF93E0912A02F0912B02E5
:1038F0001995FF91EF91BF91AF919F918F917F911A
:103900006F915F914F913F912F910F900BBE0F9050
:103910000FBE0F901F9018951F920F920FB60F9227
:1039200011240BB60F922F933F934F935F936F9396
:103930007F938F939F93AF93BF93EF93FF93E09108
:103940002C02F0912D021995FF91EF91BF91AF914B
:103950009F918F917F916F915F914F913F912F91A7
:103960000F900BBE0F900FBE0F901F9018951F92D7
:103970000F920FB60F9211242F933F938F939F9323
:10398000AF93BF938091040890910508A091060819
:10399000B09107083091030823E0230F2D3720F45E
:1039A0000196A11DB11D05C026E8230F0296A11D99
:1039B000B11D209303088093040890930508A093F9
:1039C0000608B09307088091080890910908A09113
:1039D0000A08B0910B080196A11DB11D809308083B
:1039E00090930908A0930A08B0930B08BF91AF9178
:1039F0009F918F913F912F910F900FBE0F901F902D
:103A000018952FB7F894609104087091050880917B
:103A10000608909107082FBF08953FB7F89480914A
:103A2000080890910908A0910A08B0910B0826B5E2
:103A3000A89B05C02F3F19F00196A11DB11D3FBFE6
:103A40006627782F892F9A2F620F711D811D911D76
:103A500042E0660F771F881F991F4A95D1F7089596
:103A6000CF92DF92EF92FF92CF93DF936B017C01B5
:103A70000E940D1DEB01C114D104E104F10489F091
:103A80000E9408270E940D1D6C1B7D0B683E734031
:103A900090F381E0C81AD108E108F108C851DC4F61
:103AA000EACFDF91CF91FF90EF90DF90CF90089514
:103AB000789484B5826084BD84B5816084BD85B509
:103AC000826085BD85B5816085BDEEE6F0E08081D0
:103AD00081608083E1E8F0E01082808182608083F1
:103AE000808181608083E0E8F0E080818160808374
:103AF000E1EBF0E0808184608083E0EBF0E08081A6
:103B000081608083E1E9F0E0808182608083808150
:103B100081608083E0E9F0E0808181608083E1EA78
:103B2000F0E0808182608083808181608083E0EA30
:103B3000F0E0808181608083E1E2F1E08081826059
:103B40008083808181608083E0E2F1E08081816018
:103B50008083EAE7F0E080818460808380818260F6
:103B600080838081816080838081806880831092DF
:103B7000C100089590E0FC013197E231F10508F0B1
:103B80004CC0E457FF4F0C947E27809180008F77C4
:103B900003C0809180008F7D809380000895809184
:103BA0008000877FF9CF84B58F7702C084B58F7D81
:103BB00084BD08958091B0008F7703C08091B000DC
:103BC0008F7D8093B0000895809190008F7707C01B
:103BD000809190008F7D03C080919000877F8093BB
:103BE000900008958091A0008F7707C08091A00079
:103BF0008F7D03C08091A000877F8093A0000895EF
:103C0000809120018F7707C0809120018F7D03C0B4
:103C100080912001877F809320010895CF93DF93C7
:103C200090E0FC01E255FD4F2491FC01EC50FD4F6A
:103C30008491882349F190E0880F991FFC01E25993
:103C4000FC4FA591B4918C5A9C4FFC01C591D49125
:103C50009FB7611108C0F8948C91209582238C93B2
:103C6000888182230AC0623051F4F8948C91322FFB
:103C7000309583238C938881822B888304C0F894A9
:103C80008C91822B8C939FBFDF91CF9108950F93DE
:103C90001F93CF93DF931F92CDB7DEB7282F30E06D
:103CA000F901E859FD4F8491F901E255FD4F149156
:103CB000F901EC50FD4F04910023C9F0882321F055
:103CC00069830E94BA1D6981E02FF0E0EE0FFF1FAB
:103CD000EC5AFC4FA591B4919FB7F8948C91611167
:103CE00003C01095812301C0812B8C939FBF0F903F
:103CF000DF91CF911F910F910895CF93DF93282FDC
:103D000030E0F901E859FD4F8491F901E255FD4F8A
:103D1000D491F901EC50FD4FC491CC2391F0811165
:103D20000E94BA1DEC2FF0E0EE0FFF1FE65CFC4F87
:103D3000A591B4912C912D2381E090E021F480E0B5
:103D400002C080E090E0DF91CF910895FC01818D69
:103D5000228D90E0805C9F4F821B91098F73992781
:103D60000895FC01918D828D981731F0828DE80FB6
:103D7000F11D858D90E008958FEF9FEF0895FC0170
:103D8000918D828D981761F0828DDF01A80FB11D92
:103D90005D968C91928D9F5F9F73928F90E00895B6
:103DA0008FEF9FEF089580E090E0892B41F080E055
:103DB00090E0892B21F00E940000811125C080E055
:103DC00090E0892B41F080E090E0892B21F00E9467
:103DD000000081111CC080E090E0892B41F080E060
:103DE00090E0892B21F00E940000811113C08AE726
:103DF00090E2892BA1F080E090E0892B81F00E9475
:103E00007A2081110AC008950E940000D8CF0E9434
:103E10000000E1CF0E940000EACF0C94000008955A
:103E2000FC01848DDF01A80FB11DA35ABF4F2C9157
:103E3000848D90E001968F739927848FA689B78926
:103E40002C93A089B1898C9180648C93938D848DFF
:103E5000981306C00288F389E02D80818F7D8083CE
:103E60000895CF93DF93EC01888D8823C9F0EA8908
:103E7000FB89808185FD05C0A889B9898C9186FD63
:103E80000FC00FB607FCF5CF808185FFF2CFA88960
:103E9000B9898C9185FFEDCFCE010E94101FE7CF2D
:103EA000DF91CF910895CF92DF92FF920F931F93EE
:103EB000CF93DF931F92CDB7DEB76C0181E0D601BF
:103EC00058968C9358975B969C915B975C968C91D7
:103ED0005C97981307C05096ED91FC9151978081A3
:103EE00085FD2EC0F601038D10E00F5F1F4F0F738D
:103EF0001127F02EF601848DF81211C00FB607FCC1
:103F0000F9CFD6015096ED91FC915197808185FFB4
:103F1000F1CFC60169830E94101F6981EBCF838DA9
:103F2000E80FF11DE35AFF4F6083D6015B960C93B7
:103F30005B975296ED91FC915397808180620CC003
:103F4000D6015696ED91FC91579760835096ED916E
:103F5000FC91519780818064808381E090E00F9094
:103F6000DF91CF911F910F91FF90DF90CF90089537
:103F7000BF92CF92DF92EF92FF92CF93DF93EC014B
:103F80006A017B01B22EE889F98982E080834115BC
:103F900081EE580761057105A1F060E079E08DE3DD
:103FA00090E0A70196010E943D2721503109410967
:103FB00051095695479537952795211580E1380782
:103FC00098F0E889F989108260E874E88EE190E061
:103FD000A70196010E943D2721503109410951094D
:103FE0005695479537952795EC85FD853083EE8569
:103FF000FF852083188EEC89FD89B082EA89FB89D0
:10400000808180618083EA89FB89808188608083E8
:10401000EA89FB89808180688083EA89FB898081C5
:104020008F7D8083DF91CF91FF90EF90DF90CF90D5
:10403000BF9008951F920F920FB60F9211240BB6E6
:104040000F922F938F939F93EF93FF93E0911C0810
:10405000F0911D088081E0912208F091230882FDF3
:1040600012C09081809125088F5F8F732091260860
:10407000821751F0E0912508F0E0E45FF74F958F4B
:104080008093250801C08081FF91EF919F918F91CE
:104090002F910F900BBE0F900FBE0F901F90189591
:1040A0001F920F920FB60F9211240BB60F922F93FF
:1040B0003F934F935F936F937F938F939F93AF93B0
:1040C000BF93EF93FF938CE098E00E94101FFF9145
:1040D000EF91BF91AF919F918F917F916F915F9180
:1040E0004F913F912F910F900BBE0F900FBE0F90ED
:1040F0001F9018958CE098E00E94A61E21E0892B65
:1041000009F420E0822F089510920F0810920E08F3
:1041100088EE93E0A0E0B0E080931008909311083F
:10412000A0931208B093130884E996E090930D08C9
:1041300080930C0885E391E0909319088093180808
:1041400084E391E090931B0880931A0880E391E048
:1041500090931D0880931C0881E391E090931F08C1
:1041600080931E0882E391E09093210880932008B9
:1041700086E391E09093230880932208109225080B
:104180001092260810922708109228080895089582
:104190000E94581D0E94C7200E94170FC3EDDEE148
:1041A0000E9426132097E1F30E94D31EF9CFCF92ED
:1041B000DF92EF92FF920F931F93CF93DF937C01D7
:1041C0006A01EB0100E010E00C151D0571F069912A
:1041D000D701ED91FC910190F081E02DC701199577
:1041E000892B19F00F5F1F4FEFCFC801DF91CF91DF
:1041F0001F910F91FF90EF90DF90CF900895611580
:10420000710581F0DB010D900020E9F7AD0141500F
:104210005109461B570BDC01ED91FC910280F381A3
:10422000E02D199480E090E00895DC01ED91FC917F
:10423000DB0114964D915C9115976D917C910280F4
:10424000F381E02D19940C94FF20DC01ED91FC9199
:104250000190F081E02D199468E974E00C94FF203E
:104260000F931F93CF93DF93EC010E9415218C01D4
:10427000CE010E942C21800F911FDF91CF911F91C1
:104280000F9108950F931F93CF93DF93EC010E943A
:10429000FF208C01CE010E942C21800F911FDF9105
:1042A000CF911F910F9108953F924F925F926F921D
:1042B0007F928F929F92AF92BF92CF92DF92EF92B6
:1042C000FF920F931F93CF93DF9300D01F92CDB730
:1042D000DEB78B0129013A0190912E02981721F047
:1042E0009F3F09F0BDC204C0E8E8F3E0349004C188
:1042F00080932E02E8E8F3E0E491EF3F09F4B0C2C6
:10430000E23009F480C074F5EE2309F45BC0E130BB
:1043100009F0F1C01092800010928100909181000C
:1043200098609093810090918100916090938100BA
:10433000282F30E0F901EC50FD4FE491F0E0EE0F52
:10434000FF1FEC5AFC4F459154915093C70840937E
:10435000C608F901E255FD4F24912093C508332486
:104360003394CCC0E43009F49EC00CF474C0E53042
:1043700009F0C1C0109220011092210190912101F9
:104380009860909321019091210191609093210177
:10439000282F30E0F901EC50FD4FE491F0E0EE0FF2
:1043A000FF1FEC5AFC4F459154915093AB0840933A
:1043B000AA08F901E255FD4F24912093A90855E080
:1043C000352E9CC014BC15BC94B5926094BD95B5B7
:1043D000916095BD282F30E0F901EC50FD4FE4913C
:1043E000F0E0EE0FFF1FEC5AFC4F459154915093B3
:1043F000CE084093CD08F901E255FD4F249120935A
:10440000CC08312C7BC01092B0001092B10090917A
:10441000B00092609093B0009091B1009160909341
:10442000B100282F30E0F901EC50FD4FE491F0E0AD
:10443000EE0FFF1FEC5AFC4F459154915093C0086A
:104440004093BF08F901E255FD4F24912093BE0827
:1044500022E0322E53C01092900010929100909161
:104460009100986090939100909191009160909349
:104470009100282F30E0F901EC50FD4FE491F0E07D
:10448000EE0FFF1FEC5AFC4F459154915093B90821
:104490004093B808F901E255FD4F24912093B708E5
:1044A000B3E03B2E2BC01092A0001092A10090917F
:1044B000A10098609093A1009091A10091609093C9
:1044C000A100282F30E0F901EC50FD4FE491F0E01D
:1044D000EE0FFF1FEC5AFC4F459154915093B208D8
:1044E0004093B108F901E255FD4F24912093B008A3
:1044F00074E0372E03C03E2E37FCB2C161E00E944B
:104500000E1E4801A12CB12C832D8D7F09F0C7C050
:1045100060E072E18AE790E0A50194010E945F27C4
:1045200029833A834B835C8369017A0181E0C81A4D
:10453000D108E108F1089FEFC916D104E104F104A4
:1045400009F008F49AC060E472E48FE090E0A501FD
:1045500094010E945F2769017A01E1E0CE1AD10837
:10456000E108F108F2E03F1219C08FEFC816D1043C
:10457000E104F10409F008F48AC060E970ED83E019
:1045800090E0A50194010E945F2769017A0191E002
:10459000C91AD108E108F10883E001C082E0EFEF19
:1045A000CE16D104E104F10409F008F467C068E410
:1045B00078EE81E090E0A50194010E945F276901F7
:1045C0007A01F1E0CF1AD108E108F1083320E1F0D7
:1045D00082E038121BC09FEFC916D104E104F10438
:1045E00009F008F43BC164E274EF80E090E0A501BB
:1045F00094010E945F2769017A01E1E0CE1AD10897
:10460000E108F10885E003C083E001C084E0FFEF2A
:10461000CF16D104E104F10489F180F162E17AE777
:1046200080E090E0A50194010E945F2769017A0172
:1046300081E0C81AD108E108F108311002C084E015
:1046400001C086E09FEFC916D104E104F104B1F086
:10465000A8F0C980DA80EB80FC809AE0F594E794BA
:10466000D794C7949A95D1F7E1E0CE1AD108E10822
:10467000F108332031F087E00BC081E0332011F0E6
:1046800007C085E095B5987F982B95BD56C082E010
:104690009091B100987F982B9093B1004EC060E04C
:1046A00072E18AE790E0A50194010E945F27690109
:1046B0007A01F1E0CF1AD108E108F108C114D10460
:1046C00081E0E806F10488F068E478EE81E090E0AB
:1046D000A50194010E945F2769017A0191E0C91A3E
:1046E000D108E108F10893E001C091E0E1E03E1259
:1046F00007C080918100887F892B809381001DC035
:10470000F3E03F1207C080919100887F892B80934E
:10471000910013C084E0381207C08091A100887F07
:10472000892B8093A10009C0E5E03E1206C080916C
:104730002101887F892B8093210141145104610458
:10474000710471F0D801AA0FBB1FA30192010E944E
:10475000932728EE33E040E050E00E943D2703C05D
:104760002FEF3FEFA901F2E03F1609F443C0F31524
:10477000BCF0332081F181E0381272C0D092890000
:10478000C09288002093C8083093C9084093CA0893
:104790005093CB0880916F00826080936F0060C05F
:1047A00094E0391609F448C03916A4F1E5E03E1248
:1047B00057C0D0922901C09228012093AC083093B1
:1047C000AD084093AE085093AF08809173008260AB
:1047D0008093730045C0C7BC2093CF083093D008A6
:1047E0004093D1085093D20880916E0082608093EC
:1047F0006E0036C0C092B3002093C1083093C20847
:104800004093C3085093C4088091700082608093E5
:10481000700026C0D0929900C09298002093BA08E8
:104820003093BB084093BC085093BD088091710041
:1048300082608093710014C0D092A900C092A80039
:104840002093B3083093B4084093B5085093B6084A
:104850008091720082608093720002C084E018CF61
:104860000F900F900F900F90DF91CF911F910F91AC
:10487000FF90EF90DF90CF90BF90AF909F908F9080
:104880007F906F905F904F903F9008958230A9F095
:1048900028F4882349F0813051F00895843021F1C3
:1048A000E8F0853039F1089510926E0008958091F6
:1048B0006F008D7F80936F000895809170008D7FD1
:1048C0008093700081E08093B0008091B100887F78
:1048D00084608093B1001092B300089580917100BC
:1048E0008D7F809371000895809172008D7F8093F9
:1048F00072000895809173008D7F809373000895F6
:10490000CF93C82F80912E028C1307C0E8E8F3E004
:1049100084919FEF90932E0201C08FEF0E94462456
:1049200060E08C2FCF910C94471E1F920F920FB610
:104930000F9211240BB60F922F933F934F935F93D7
:104940006F937F938F939F93AF93BF93EF93FF9357
:104950008091C1089091C208A091C308B091C40889
:10496000892B8A2B8B2B51F19091BE08E091BF08C7
:10497000F091C0088081892780838091C10890913F
:10498000C208A091C308B091C408181619061A06E7
:104990001B06C4F48091C1089091C208A091C3087D
:1049A000B091C4080197A109B1098093C1089093FF
:1049B000C208A093C308B093C40804C080912E021B
:1049C0000E948024FF91EF91BF91AF919F918F91B1
:1049D0007F916F915F914F913F912F910F900BBEFF
:1049E0000F900FBE0F901F901895FC018081918150
:1049F0000C943A28CF93DF93EC018881998100973A
:104A000011F00E943A28198218821D821C821B8292
:104A10001A82DF91CF9108950F931F93CF93DF9365
:104A2000EC018B016F5F7F4F888199810E94C928BB
:104A3000009731F0998388831B830A8381E001C04A
:104A400080E0DF91CF911F910F910895CF93DF9375
:104A5000EC0188819981892B29F08A819B818617B5
:104A6000970760F4CE010E940C25882341F08C81C9
:104A70009D81892B19F4E881F981108281E0DF9111
:104A8000CF910895EF92FF920F931F93CF93DF93EF
:104A9000EC017B018A01BA010E942625811104C024
:104AA000CE010E94FA2407C01D830C83B7018881C0
:104AB00099810E94FA29CE01DF91CF911F910F9128
:104AC000FF90EF900895FC011182108213821282F0
:104AD000158214826115710559F0FB0101900020C7
:104AE000E9F7AF0141505109461B570B0C94422581
:104AF0000895CF93DF93EC01FB018617970761F0D0
:104B0000608171816115710529F0448155810E9490
:104B1000422502C00E94FA24CE01DF91CF91089570
:104B2000FC011182108213821282158214820C946D
:104B30007925CF93DF93EC016115710561F0FB01DD
:104B400001900020E9F7AF0141505109461B570B76
:104B50000E94422502C00E94FA24CE01DF91CF912B
:104B600008950F931F93CF93DF93CDB7DEB72997A7
:104B70000FB6F894DEBF0FBECDBF8C01862FF801B3
:104B800011821082138212821582148250E0BE01BB
:104B90006F5F7F4F90E00E943B2ABE016F5F7F4FA7
:104BA000C8010E94992529960FB6F894DEBF0FBE62
:104BB000CDBFDF91CF911F910F910895EF92FF929A
:104BC0000F931F93CF93DF93EC017B010C811D8129
:104BD0006115710511F480E016C04115510591F081
:104BE000040F151FB8010E9426258823A1F32881F0
:104BF00039818C819D81B701820F931F0E94FA2910
:104C00001D830C8381E0DF91CF911F910F91FF9065
:104C1000EF900895CF93DF931F921F92CDB7DEB729
:104C200069831A8241E050E0BE016F5F7F4F0E94AE
:104C3000DE250F900F90DF91CF910895CF93DF93F2
:104C4000EC01FB0144815581608171810E94DE2568
:104C5000811103C0CE010E94FA24CE01DF91CF91D1
:104C60000895CF93DF93EC016115710569F0FB01A5
:104C700001900020E9F7AF0141505109461B570B45
:104C80000E94DE25811103C0CE010E94FA24CE01CC
:104C9000DF91CF910895FC0124813581621773075C
:104CA00048F480819181009729F0FC01E60FF71FFD
:104CB0008081089580E008950C944B26CF93DF9374
:104CC000FC01848195814817590778F4C081D1810E
:104CD000FB0160817181CE01840F951F0E940C2A17
:104CE000009719F08C1B9D0B02C08FEF9FEFDF9197
:104CF000CF91089540E050E00C945E26DF92EF9251
:104D0000FF920F931F93CF93DF93EC018C819D81D2
:104D10004817590718F08FEF9FEF1BC08A010F5FEC
:104D20001F4FE881F981E00FF11FD0801082E880E9
:104D3000F980772767FD7095C7010E94012AF70166
:104D4000E00FF11FD082009731F328813981821B57
:104D5000930BDF91CF911F910F91FF90EF90DF9018
:104D60000895FC0144815581415051090C947E26DF
:104D7000BF92CF92DF92EF92FF920F931F93CF9348
:104D8000DF936C017B01EA0189012417350720F4C8
:104D90008D2FE901042F182F6AE974E0C6010E94E3
:104DA0006325D70114968D919C911597C817D90743
:104DB000C8F48017910708F48C01D701ED91FC919C
:104DC0001197E00FF11FB08010826D917C916C0FF4
:104DD0007D1FC6010E949925D701ED91FC91E00F3E
:104DE000F11FB082C601DF91CF911F910F91FF900B
:104DF000EF90DF90CF90BF900895FC01808191816A
:104E0000009711F00C94B22960E070E0CB01089596
:104E10000895991B79E004C0991F961708F0961B16
:104E2000881F7A95C9F780950895AA1BBB1B51E18D
:104E300007C0AA1FBB1FA617B70710F0A61BB70B0A
:104E4000881F991F5A95A9F780959095BC01CD01AF
:104E5000089597FB072E16F4009407D077FD09D02C
:104E60000E94152707FC05D03EF4909581959F4F31
:104E70000895709561957F4F0895A1E21A2EAA1B9F
:104E8000BB1BFD010DC0AA1FBB1FEE1FFF1FA217FA
:104E9000B307E407F50720F0A21BB30BE40BF50BF7
:104EA000661F771F881F991F1A9469F76095709580
:104EB000809590959B01AC01BD01CF010895052E11
:104EC00097FB1EF400940E94762757FD07D00E949E
:104ED0003D2707FC03D04EF40C947627509540955F
:104EE000309521953F4F4F4F5F4F08959095809596
:104EF000709561957F4F8F4F9F4F0895EE0FFF1F65
:104F00000590F491E02D1994A29FB001B39FC001C8
:104F1000A39F700D811D1124911DB29F700D811DE5
:104F20001124911D08950E948427A59F900DB49F80
:104F3000900DA49F800D911D112408950790F69166
:104F4000E02D1994CF93DF938230910510F482E025
:104F500090E0E091D508F091D60820E030E0A0E0A4
:104F6000B0E0309739F14081518148175907B8F0C6
:104F70004817590771F482819381109729F013968D
:104F80009C938E9312972CC09093D6088093D5084B
:104F900027C02115310531F04217530718F0A90138
:104FA000DB0101C0EF019A01BD01DF010280F38145
:104FB000E02DD7CF21153105F9F0281B390B24300E
:104FC000310580F48A819B816115710521F0FB0117
:104FD0009383828304C09093D6088093D508FE0102
:104FE000329644C0FE01E20FF31F81939193225049
:104FF0003109398328833AC02091D3083091D408ED
:10500000232B41F420910202309103023093D40803
:105010002093D3082091000230910102211531051F
:1050200041F42DB73EB74091040250910502241B74
:10503000350BE091D308F091D408E217F307A0F400
:105040002E1B3F0B2817390778F0AC014E5F5F4FDE
:105050002417350748F04E0F5F1F5093D408409334
:10506000D3088193919302C0E0E0F0E0CF01DF919B
:10507000CF910895CF93DF93009709F487C0FC0187
:10508000329713821282C091D508D091D60820970A
:1050900081F420813181280F391F8091D3089091AC
:1050A000D4088217930779F5F093D408E093D308D6
:1050B0006DC0DE0120E030E0AE17BF0750F412965D
:1050C0004D915C9113979D014115510509F1DA014C
:1050D000F3CFB383A28340815181840F951F8A1738
:1050E0009B0771F48D919C911197840F951F0296E7
:1050F0009183808312968D919C91139793838283E1
:105100002115310529F4F093D608E093D5083EC067
:10511000D9011396FC93EE9312974D915D91A40FD4
:10512000B51FEA17FB0779F480819181840F951FE1
:105130000296D90111969C938E9382819381139646
:105140009C938E931297E0E0F0E08A819B81009718
:1051500019F0FE01EC01F9CFCE01029628813981C8
:10516000820F931F2091D3083091D4082817390754
:1051700069F4309729F41092D6081092D50802C02D
:1051800013821282D093D408C093D308DF91CF91B9
:1051900008956F927F928F929F92AF92BF92CF921B
:1051A000DF92EF92FF920F931F93CF93DF93EC0167
:1051B000CB01209781F4DF91CF911F910F91FF9048
:1051C000EF90DF90CF90BF90AF909F908F907F90A7
:1051D0006F900C94A227FE01E60FF71F9E0122504C
:1051E0003109E217F30708F4ACC0D9010D911C9105
:1051F000119706171707B8F00530110508F49FC07E
:10520000A801445051094617570708F498C00250A6
:105210001109061B170B019311936D937C93CF011A
:105220000E943A288CC05B01A01AB10A4E01800E80
:10523000911EA091D508B091D608612C712C60E028
:1052400070E0109709F449C0A815B905C9F5ED90AB
:10525000FC901197670142E0C40ED11CCA14DB0414
:1052600078F147018A189B08640142E0C40ED11C02
:105270001296BC9012971396AC91B5E0CB16D10460
:1052800040F0B282A38391828082D9018D939C9356
:1052900009C00E5F1F4F0E0D1F1DF9011183008302
:1052A000EB2DFA2F6115710531F0DB011396FC939C
:1052B000EE93129744C0F093D608E093D5083FC010
:1052C0006D917C9111976616770608F43B01BD013C
:1052D00012960D90BC91A02DB4CF6091D30870911F
:1052E000D40868157905E9F468167906D0F4409178
:1052F0000002509101024115510541F44DB75EB7CE
:105300006091040270910502461B570BE417F507E4
:10531000C0F4F093D408E093D308F901918380831B
:105320000EC00E94A2277C01009759F0A801BE017F
:105330000E94E629CE010E943A28C70104C0CE018E
:1053400002C080E090E0DF91CF911F910F91FF901C
:10535000EF90DF90CF90BF90AF909F908F907F9015
:105360006F9008951F93FC0199278827BC01E8944A
:1053700011911032E9F3193010F01E30C8F31B32CE
:1053800051F01D3249F4689406C00E94262A610F2C
:10539000711D811D911D119110531A30B0F33EF40F
:1053A00090958095709561957F4F8F4F9F4F1F917E
:1053B0000895FB01DC0104C08D910190801921F456
:1053C00041505040C8F7881B990B0895FB01DC0140
:1053D00002C001900D9241505040D8F70895FC0151
:1053E0008191861721F08823D9F79927089531975D
:1053F000CF010895FB01DC0101900D920020E1F73F
:105400000895FC0181E090E00190061609F4CF01B7
:105410000020D1F701970895FB0151915523A9F080
:10542000BF01DC014D9145174111E1F759F4CD0160
:105430000190002049F04D9140154111C9F3FB0145
:105440004111EFCF81E090E001970895592F482F47
:10545000372F262F660F771F881F991F660F771F1C
:10546000881F991F620F731F841F951F660F771F78
:10547000881F991F08954532510520F4423010F0DD
:105480000C94462AFB011082CB010895BB27FB0137
:105490005527AA27880F991FAA1FA41710F0A41B2D
:1054A00083955051B9F7A05DAA3308F0A95DA19387
:1054B000009779F7B111B1931192CB010C94B62CEE
:1054C0000F931F93CF93DF93CDB7DEB72E970FB611
:1054D000F894DEBF0FBECDBF0E891F8986E08C8396
:1054E0001A8309838FEF9FE79E838D83AE01465E0B
:1054F0005F4F688D798DCE0101960E948F2AEF81D2
:10550000F885E00FF11F10822E960FB6F894DEBFDB
:105510000FBECDBFDF91CF911F910F9108952F92B4
:105520003F924F925F926F927F928F929F92AF9233
:10553000BF92CF92DF92EF92FF920F931F93CF9380
:10554000DF93CDB7DEB72C970FB6F894DEBF0FBE52
:10555000CDBF7C016B018A01FC0117821682838119
:1055600081FFBDC1CE0101964C01F7019381F60187
:1055700093FD859193FF81916F01882309F4ABC15D
:10558000853239F493FD859193FF81916F018532C6
:1055900029F4B70190E00E94C62CE7CF512C312CA2
:1055A00020E02032A0F48B3269F030F4803259F0E0
:1055B000833269F420612CC08D3239F0803339F4A4
:1055C000216026C02260246023C0286021C027FDFE
:1055D00027C030ED380F3A3078F426FF06C0FAE0E5
:1055E0005F9E300D1124532E13C08AE0389E300D7B
:1055F0001124332E20620CC08E3221F426FD6BC1A3
:10560000206406C08C3611F4206802C0883641F44C
:10561000F60193FD859193FF81916F018111C1CFB7
:10562000982F9F7D9554933028F40C5F1F4FFFE314
:10563000F9830DC0833631F0833771F0833509F07B
:105640005BC022C0F801808189830E5F1F4F442414
:105650004394512C540115C03801F2E06F0E711CB7
:10566000F801A080B18026FF03C0652D70E002C064
:105670006FEF7FEFC5012C870E94AB2C2C018301BB
:105680002C852F77222E17C03801F2E06F0E711C87
:10569000F801A080B18026FF03C0652D70E002C034
:1056A0006FEF7FEFC5012C870E94A02C2C012C8569
:1056B0002068222E830123FC1BC0832D90E0481616
:1056C0005906B0F4B70180E290E00E94C62C3A94EB
:1056D000F4CFF50127FC859127FE81915F01B70189
:1056E00090E00E94C62C31103A94F1E04F1A510814
:1056F0004114510471F7E5C0843611F0893639F54B
:10570000F80127FF07C060817181828193810C5F5E
:105710001F4F08C060817181882777FD8095982F81
:105720000E5F1F4F2F76B22E97FF09C09095809580
:10573000709561957F4F8F4F9F4F2068B22E2AE062
:1057400030E0A4010E94F82CA82EA81844C0853788
:1057500029F42F7EB22E2AE030E025C0F22FF97F07
:10576000BF2E8F36C1F018F4883579F0B4C0803779
:1057700019F0883721F0AFC02F2F2061B22EB4FE70
:105780000DC08B2D8460B82E09C024FF0AC09F2F46
:105790009660B92E06C028E030E005C020E130E078
:1057A00002C020E132E0F801B7FE07C060817181DC
:1057B000828193810C5F1F4F06C06081718180E000
:1057C00090E00E5F1F4FA4010E94F82CA82EA8188D
:1057D000FB2DFF77BF2EB6FE0BC02B2D2E7FA51401
:1057E00050F4B4FE0AC0B2FC08C02B2D2E7E05C0BA
:1057F0007A2C2B2D03C07A2C01C0752C24FF0DC0F0
:10580000FE01EA0DF11D8081803311F4297E09C06B
:1058100022FF06C07394739404C0822F867809F027
:10582000739423FD13C020FF06C05A2C731418F480
:10583000530C5718732C731468F4B70180E290E08E
:105840002C870E94C62C73942C85F5CF731410F40A
:10585000371801C0312C24FF12C0B70180E390E05B
:105860002C870E94C62C2C8522FF17C021FF03C065
:1058700088E590E002C088E790E0B7010CC0822F75
:10588000867859F021FD02C080E201C08BE227FD3D
:105890008DE2B70190E00E94C62CA51438F4B70140
:1058A00080E390E00E94C62C5A94F7CFAA94F401AA
:1058B000EA0DF11D8081B70190E00E94C62CA11075
:1058C000F5CF332009F451CEB70180E290E00E9479
:1058D000C62C3A94F6CFF7018681978102C08FEFEC
:1058E0009FEF2C960FB6F894DEBF0FBECDBFDF91B1
:1058F000CF911F910F91FF90EF90DF90CF90BF90CD
:10590000AF909F908F907F906F905F904F903F905F
:105910002F900895F999FECF92BD81BDF89A9927ED
:1059200080B50895262FF999FECF1FBA92BD81BD8B
:1059300020BD0FB6F894FA9AF99A0FBE0196089511
:10594000FC010590615070400110D8F7809590954A
:105950008E0F9F1F0895FC0161507040019001104F
:10596000D8F7809590958E0F9F1F0895DC01FC015C
:10597000672F71917723E1F7329704C07C916D9383
:1059800070836291AE17BF07C8F308950F931F93FA
:10599000CF93DF93182F092FEB018B8181FD03C07B
:1059A0008FEF9FEF20C082FF10C04E815F812C815E
:1059B0003D81421753077CF4E881F9819F012F5FF5
:1059C0003F4F39832883108306C0E885F985812FEE
:1059D0001995892B29F72E813F812F5F3F4F3F83F8
:1059E0002E83812F902FDF91CF911F910F910895DA
:1059F000FA01AA27283051F1203181F1E8946F9300
:105A00006E7F6E5F7F4F8F4F9F4FAF4FB1E03ED0A5
:105A1000B4E03CD0670F781F891F9A1FA11D680F43
:105A2000791F8A1F911DA11D6A0F711D811D911D76
:105A3000A11D20D009F468943F912AE0269F1124EB
:105A40003019305D3193DEF6CF010895462F47704F
:105A5000405D4193B3E00FD0C9F7F6CF462F4F70AA
:105A6000405D4A3318F0495D31FD4052419302D008
:105A7000A9F7EACFB4E0A6959795879577956795AE
:105A8000BA95C9F700976105710508959B01AC01AE
:105A90000A2E06945795479537952795BA95C9F7D5
:105AA000620F731F841F951FA01D089513E0C0E9A6
:105AB000D3E000E006C022970109FE010BBF0E945F
:105AC0009E27C239D10780E00807A9F7F894FFCFD5
:105AD0000000D708800017191B1D1F212316181A54
