:100000000C94AC010C9421120C944C120C947712A9
:100010000C94A2120C94CD120C94F8120C9423138D
:100020000C944E130C94D30D0C94D30D0C94D30D4F
:100030000C9467020C94881C0C94DD010C94DD0177
:100040000C94DD010C94DD010C94DD010C94DD01B8
:100050000C94DD010C94DD010C94DD010C947913FA
:100060000C94DD010C94DC160C9412170C94DD0139
:100070000C94DD010C94DD010C94DD010C94DD0188
:100080000C94DD010C94DD010C94DD010C94DD0178
:100090000C94DD010C94DD010C94DD010C945710DF
:1000A0000C94DD010C94DD010C94DD010C94DD0158
:1000B0000C94DD010C94DD010C94DD010C94DD0148
:1000C0000C94DD010C94DD010C94DD010C94891776
:1000D0000C94BF170C94DD010C94DD010C94DD0130
:1000E0000C94DD01D4119E11A611B211BF11E011C3
:1000F000ED111112071209120B120D121312151223
:100100009514981487148B149114CF149C14A01474
:10011000A614AA14AE14B414B814BC14CF14C21488
:10012000C614CA140C949E110C9481150C941312CD
:100130000C94A0140C94B2110C94E9170C94460A78
:100140000C9498140C94E5010C9446180C94DF015F
:100150000C94930F0C940D120C94BF110C942A1054
:100160000C94BD0F0C94BE0F0C9411120C949B0FA9
:100170000C94EB0F0C9494090C94ED110C94EB017E
:100180000C94AE140C94BC140C9495140C94AA14F6
:100190000C940A060C9491140C942F050C943C17A3
:1001A0000C9415040C9468150C94F3150C94EE0C37
:1001B0000C9473150C9487140C9446170C94D4115A
:1001C0000C94C2140C94A6140C94610D0C940E049F
:1001D0000C9451050C94CF140C9415120C94B41477
:1001E0000C949C140C9488110C9495150C94E011AB
:1001F0000C94B8140C94AE0F0C94620D0C948B14E8
:100200000C9415160C94C6140C94CA140C9447053F
:100210000C9409120C9407120C94A6110C947C0DEA
:100220000C940B120C94F3170C940F0D00000A0B96
:1002300002090C0D0E080703040100000000000075
:1002400000000000000000000000000000000000AE
:10025000000000000000000012111000000000006B
:10026000000000000000000000000000000000008E
:1002700000000102102020080810204010204080BB
:10028000020102010804020101020408102040805A
:1002900080402010080402018004020180402010E8
:1002A0000804020108040201010204081020408031
:1002B000010204081020408005050505070508080F
:1002C0000808020202020A0A0808040404040101E0
:1002D00001010101010103030303030303030407F5
:1002E00007070C0C0C0C0C0C0C0C0202020206068C
:1002F0000606060606060B0B0B0B0B0B0B0B000082
:1003000020002300260029002C002F0032000001CD
:100310000000030106010901000022002500280059
:100320002B002E00310034000201000005010801FD
:100330000B0100002100240027002A002D003000BE
:10034000330001010000040107010A0102000E044C
:100350002A104617F317150411241FBECFEFD1E260
:10036000DEBFCDBF00E00CBF16E0A0E0B2E0EAE9DE
:10037000FAE400E00BBF02C007900D92AC33B10766
:10038000D9F728E0ACE3B6E001C01D92A93FB2075F
:10039000E1F713E0C6E5D3E000E006C022970109CB
:1003A000FE010BBF0E94151FCE34D10780E0080765
:1003B000A9F70E9437180C943B250C94000081E0AB
:1003C0008093650684E00C94FA1182E080936506C0
:1003D00085E00C94FA1183E08093650684E00C9428
:1003E000FA110E94B12060934106709342068093F7
:1003F0004306909344060E94B12060934506709393
:10040000460680934706909348060E94B120609369
:10041000490670934A0680934B0690934C060E94BF
:10042000B12060934D0670934E0680934F069093D3
:1004300050060895EF92FF920F931F93CF93DF938F
:100440001F92CDB7DEB77C01FC0100811181C8018C
:1004500069830E9467246981681719F0C8010E94A6
:100460006F24C7010F90DF91CF911F910F91FF90E3
:10047000EF900895811102C00C94F1010E94B12007
:1004800060935106709352068093530690935406DE
:100490000E94B120609355067093560680935706CC
:1004A000909358060E94B1206093590670935A06A3
:1004B00080935B0690935C060E94B12060935D067A
:1004C00070935E0680935F069093600608951F9276
:1004D0000F920FB60F9211248F9384E080936506DC
:1004E000809164068F5F8093640688E10FB6F8946C
:1004F00080936000109260000FBE8F910F900FBE2E
:100500000F901F90189514BEE0E6F0E088E180831C
:1005100081E68083A8950895CF93C82F90916800B5
:100520009E7F90936800F89442E050E0882341F069
:100530006BEE71E084E00E9489110E9483020CC07E
:1005400065EE71E085E00E94891143E050E06FEDB7
:1005500071E084E00E9489119CB3CC2311F080E10A
:1005600001C080E2892B8CBB10927A0010927B0034
:10057000809164008F6E80936400809165008F632A
:100580008093650083B7817F846083BF83B7816078
:1005900083BF7894889583B78E7F83BF80916400F2
:1005A00080718093640080916500807C80936500F9
:1005B00080916800816080936800D89ACF910895F7
:1005C000CF93DF93EC0128EA30E040E050E068E7A9
:1005D00073E086E30E944719BE0181E997E0DF914D
:1005E000CF910C949F18CF93DF93EC0166E572E0F6
:1005F00080E090E00E94F213BE018EE298E00E943B
:100600009F182CEB30E040E050E068E773E086E3B1
:10061000DF91CF910C9447198F929F92AF92BF9226
:10062000CF92DF92EF92FF92CF93DF93EC016A01BA
:100630007B010E94C3134B015C010E94C313681924
:1006400079098A099B096C157D058E059F0530F493
:10065000FE011995882389F381E001C080E0DF91D4
:10066000CF91FF90EF90DF90CF90BF90AF909F9091
:100670008F90089560E08BE30E94091560E08BE3A2
:100680000E94D01448E753E060E070E086E49AE00E
:100690000E940C036CEB70E080E090E00E94F2138B
:1006A0001092650608950F931F93CF93DF9300D0A8
:1006B00000D0CDB7DEB7182F80916506843011F0D9
:1006C0001092640601E0010F112321F0809164066D
:1006D0008330D0F46BE172E081E997E00E94B118B9
:1006E0000E943A03812F0E948C0262E272E081E94B
:1006F00097E00E94B118009363061123A1F0809146
:100700006506843081F4E0CF69E272E0CE010196A3
:100710000E94561DCE0101960E94E002CE01019674
:100720000E94E81CD7CF26960FB6F894DEBF0FBE06
:10073000CDBFDF91CF911F910F91089548E753E00E
:1007400060E070E086E49AE00E940C0340E35FE022
:1007500060E070E084E999E00E940C03811105C01B
:1007600083E10E943F158F5F01C080E080936306A4
:10077000089526E040E052EC61E070E08EE298E0FF
:100780000E947A1626E040E052EC61E070E081E9D8
:1007900097E00E947A1640E05BE460E070E086E655
:1007A00096E00E94DA0E62E472E081E997E00E942E
:1007B000B11861E086E30E94D01461E08DE00E94F0
:1007C000D0140C949E038BE30E943F15892B71F487
:1007D00061E08BE30E94D01461E08BE30E94091575
:1007E00060E677E080E090E00C94F2130895CF93F8
:1007F000C0E06C2F61708BE30E9409156CEB70E018
:1008000080E090E00E94F213CF5FC43091F760E681
:1008100077E080E090E0CF910C94F21320E04BE081
:100820006AE086E696E00C94AA0E86E696E00C94C2
:10083000510E0E94F2138EE298E00E946815892BF7
:1008400029F08EE298E00E948115F5CF08954F922D
:100850005F926F927F928F929F92AF92BF92CF9250
:10086000DF92EF92FF920F931F93CF93DF93CDB759
:10087000DEB7C058D1090FB6F894DEBF0FBECDBFAA
:100880005C012A013B018E010F5F1F4F80E8F801D8
:1008900011928A95E9F70E94C3136B017C01912C98
:1008A0000E94C3136C197D098E099F096415750593
:1008B0008605970548F48EE298E00E946815892B1A
:1008C00029F097FE0BC002C080E015C0B501C80139
:1008D0000E94E921892B21F381E00DC088248394B3
:1008E000890C8EE298E00E948115F801E90DF11D56
:1008F0008083982CE0CFC058DF4F0FB6F894DEBF4E
:100900000FBECDBFDF91CF911F910F91FF90EF9060
:10091000DF90CF90BF90AF909F908F907F906F901F
:100920005F904F900895EF92FF920F931F93CF9394
:10093000DF9300D01F92CDB7DEB78C017B0160EB57
:1009400072E080E090E029833A834B835C830E94CD
:100950001904B8018EE298E00E94B11829813A8109
:100960004B815C81BA01A901C7010F900F900F90D4
:100970000F90DF91CF911F910F91FF90EF900C940A
:10098000270424E336E040E050E06FE274E08EE4B8
:1009900092E00E94930448EE5AE160E070E08AE041
:1009A00096E00E940C03811118C061E08DE00E9466
:1009B000091548E056EE60E070E087E495E00E949B
:1009C0000C0360E0882321F08DE00E94091505C02A
:1009D0008DE00E94091580E0089581E00895CF938D
:1009E000DF93D4E0D15011F4C0E02BC024E336E013
:1009F00040E050E06FE274E088E692E00E949304E9
:100A000024E336E040E050E06FE274E088E792E0F3
:100A10000E94930424E336E040E050E06FE274E08B
:100A200084E892E00E94930424E336E040E050E042
:100A30006FE274E081E992E00E949304C82F88235A
:100A400089F224E336E040E050E06FE274E08CE5A8
:100A500092E00E9493048C2FDF91CF91089524E3BC
:100A600036E040E050E06BEB72E083EC92E00E94F5
:100A70009304882351F024E336E040E050E063EF34
:100A800072E085EF92E00C94930480E0089528ECE6
:100A900039E440E050E060E073E088E093E00C94DB
:100AA000930424E336E040E050E061E274E088E142
:100AB00093E00C9493040E94510581110EC06BE1E8
:100AC00073E08EE298E00E94921862E071E080E0AC
:100AD00090E00E94F2130C94510581E008950E9469
:100AE0005B0581110EC040E35FE060E070E081E5EE
:100AF00095E00E940C03811104C00E94F7030C943E
:100B00005B0581E008952F923F924F925F926F9222
:100B10007F928F929F92AF92BF92CF92DF92EF928D
:100B2000FF920F931F93CF93DF93CDB7DEB7C258D9
:100B3000D1090FB6F894DEBF0FBECDBF5C014B01EB
:100B4000CF57DF4F59834883C158D040180129013E
:100B5000CE0101963C0180E8F30111928A95E9F7F4
:100B60000E94C3136B017C0110E00E94C3136C1937
:100B70007D098E099F09621573058405950548F462
:100B80008EE298E00E946815892B29F017FF1CC09F
:100B900002C080E025C0B501C3010E94E921892B74
:100BA00089F4B401C3010E94E921892B59F4CF577C
:100BB000DF4F68817981C158D040C3010E94E9218B
:100BC000892B99F281E00CC001E0010F8EE298E0E0
:100BD0000E948115F301E10FF11D8083102FD0CF0A
:100BE000CE57DF4F0FB6F894DEBF0FBECDBFDF91FB
:100BF000CF911F910F91FF90EF90DF90CF90BF901A
:100C0000AF909F908F907F906F905F904F903F90AC
:100C10002F9008950F931F9360EB72E080E090E0B7
:100C20000E9419046FE173E08EE298E00E94B1180F
:100C300004E316E020E030E04CE253E06FE273E0C2
:100C400082E393E00E9483051F910F9108954F92D4
:100C50005F926F927F928F929F92AF92BF92CF924C
:100C6000DF92EF92FF920F931F93CF93DF9300D009
:100C70001F92CDB7DEB75C017B014A0109831A835D
:100C80002B833C830E94C3132B013C0100E010E046
:100C90000E94C313641975098609970929813A814D
:100CA0004B815C81621773078407950768F46701BD
:100CB000C00ED11E8EE298E00E946815892B31F09B
:100CC0000815190558F002C080E012C0B501C7012F
:100CD0000E94E921892BE1F281E00AC00F5F1F4FDA
:100CE0008EE298E00E948115F60181936F01E2CFB8
:100CF0000F900F900F900F90DF91CF911F910F9158
:100D0000FF90EF90DF90CF90BF90AF909F908F902B
:100D10007F906F905F904F9008958F929F92AF92C7
:100D2000BF92CF92DF92EF92FF920F931F93CF93D8
:100D3000DF93CDB7DEB7C65CD1400FB6F894DEBF07
:100D40000FBECDBF65E373E081E997E00E94B11863
:100D50000E94E30368E773E080E090E00E941904DA
:100D6000809140068F9380913F068F9380913E063D
:100D70008F9380913D068F9380913C061F928F93B5
:100D8000809160068F9380915F068F9380915E06BD
:100D90008F9380915D068F9380915C068F938091F5
:100DA0005B068F9380915A068F93809159068F939B
:100DB000809158068F93809157068F9380915606A5
:100DC0008F93809155068F93809154068F938091D5
:100DD00053068F93809152068F93809151068F9383
:100DE000809150068F9380914F068F9380914E068D
:100DF0008F9380914D068F9380914C068F938091B5
:100E00004B068F9380914A068F93809149068F936A
:100E1000809148068F93809147068F938091460674
:100E20008F93809145068F93809144068F93809194
:100E300043068F93809142068F93809141068F9352
:100E400085E493E09F938F937E0181E0E80EF81E86
:100E5000FF92EF920E943D220FB6F894DEBF0FBEC4
:100E6000CDBF60E070E0C7010E94D721882E8E18A8
:100E7000912CA12CBB24B394CE0101966C019394C8
:100E800098E0991609F47BC0F601C501119201970B
:100E9000E9F7B701CE0181559E4F0E94561D4AE0E9
:100EA000682DCE018F539E4F0E94A41D67E973E009
:100EB000CE0185549E4F0E94561DBE016F537E4F3A
:100EC000CE0185549E4F0E94111E6FEB73E00E946D
:100ED000241EBC01CE018B549E4F0E94831DBE0177
:100EE0006B547E4FCE0187559E4F0E94831DBE01DD
:100EF00061557E4FCE0187559E4F0E94111EBC0149
:100F00008EE298E00E949F18CE0187559E4F0E9466
:100F1000E81CCE018B549E4F0E94E81CCE018554E4
:100F20009E4F0E94E81CCE018F539E4F0E94E81CEA
:100F3000CE0181559E4F0E94E81C00E31FE020E097
:100F400030E040E051E0B60184E294E00E942706E0
:100F5000882341F062E374E081E997E00E94B118D0
:100F600081E014C04AE050E0692D81E997E00E94D9
:100F70002919B60181E997E00E94B11880CF6CE48D
:100F800074E081E997E00E94B11880E0CA53DE4F17
:100F90000FB6F894DEBF0FBECDBFDF91CF911F918A
:100FA0000F91FF90EF90DF90CF90BF90AF909F9008
:100FB0008F900895AF92BF92CF92DF92EF92FF92FF
:100FC0000F931F93CF93DF9300D000D0CDB7DEB740
:100FD00080916506833009F094C06DE574E081E985
:100FE00097E00E94B1180E94B12060933D06709373
:100FF0003E0680933F069093400681E00E943A02AD
:1010000080E090E00E946724B82E0E948D0688231D
:1010100059F125E2A22EEE24E394F12CC7018C5362
:1010200096407C01BB2009F441C02B2D30E02150BB
:101030003109A29E6001A39ED00C11240CE316E09E
:10104000CE0CDF1CC601800F911F0E946724F8019F
:1010500081938F01F6E001361F07A1F70E948D06EC
:10106000882321F1BA94DECF9CE3E92E96E0F92E95
:1010700001E010E00C53164085E2B89E000D111DF2
:10108000112498012E0D3F1DF70161917F013A83D4
:101090002983CE0101960E941A02F1E6EF16F6E0CE
:1010A000FF0679F78DE68B1508F0B3941A82198242
:1010B0006B2DCE0101960E941A0283E10E943F151A
:1010C000892B79F06DE674E0CE0101960E94561DE1
:1010D000CE0101960E94E002CE0101960E94E81C1A
:1010E00010C069E974E0CE0101960E94561DCE0140
:1010F00001960E94E002CE0101960E94E81C80E069
:1011000001C081E026960FB6F894DEBF0FBECDBFBA
:10111000DF91CF911F910F91FF90EF90DF90CF90D3
:10112000BF90AF9008955F926F927F928F929F923F
:10113000AF92BF92CF92DF92EF92FF920F931F93E5
:10114000CF93DF93CDB7DEB7CD5AD1090FB6F89460
:10115000DEBF0FBECDBF48EE5AE160E070E08AE02E
:1011600096E00E940C03811102C080E0AAC060EBEF
:1011700072E080E090E00E941904CE0101967C01AB
:101180008EE9F70111928A95E9F76FEA74E08EE231
:1011900098E00E94B11804E316E020E030E04EE948
:1011A00050E0B7018FE294E00E9427068823E9F21D
:1011B0008E0101561F4F8FE0EAEBF4E0D801019059
:1011C0000D928A95E1F7F80101900020E9F7319737
:1011D0005E2E501A67E670E0C7010E94D7210A9779
:1011E0004C016EE670E0C7010E94D7210A975C01AE
:1011F0006FE470E0C7010E94D72104976C0160EB97
:1012000072E080E090E00E9419043801862D801B76
:10121000851540F4F30161913F018EE298E00E9450
:101220009418F4CF60E770E0C7010E94D7218C01C9
:101230000E5F1F4F0815190540F4F80161918F01E9
:101240008EE298E00E949418F5CF6CE28EE298E06E
:101250000E94941869E770E0C7010E94D7218C01B1
:101260000E5F1F4F0A151B0540F4F80161918F01B5
:101270008EE298E00E949418F5CF6CE28EE298E03E
:101280000E9494186BE670E0C7010E94D7218C0180
:101290000E5F1F4F0C151D0540F4F80161918F0181
:1012A0008EE298E00E949418F5CF8EE298E00E94BA
:1012B0009B1844E356E060E070E08FE294E00E9407
:1012C0002704C355DF4F0FB6F894DEBF0FBECDBF66
:1012D000DF91CF911F910F91FF90EF90DF90CF9012
:1012E000BF90AF909F908F907F906F905F90089588
:1012F0000E94E3030E946F05882371F00E94C104DD
:10130000882361F00E94EF04882351F00E94930823
:10131000811108C083E0089580E0089581E0089578
:1013200082E0089584E0089586E696E00E947C0DB0
:1013300021E0892B09F420E0822F08955F926F92BB
:101340007F928F929F92AF92BF92CF92DF92EF9255
:10135000FF920F931F93CF93DF93CDB7DEB72897FC
:101360000FB6F894DEBF0FBECDBF782E49018E01B7
:101370000F5F1F4F88E0F80111928A95E9F785EF1A
:10138000898388877A826C834D83FE013296CE01F1
:10139000079631912F8123272F83E817F907C9F783
:1013A00086E696E00E947C0D892B29F086E696E081
:1013B0000E94EE0CF5CFE0916606F0916706028080
:1013C000F381E02D48E050E0B80186E696E01995FB
:1013D0000E94C3136B017C01612CA12CB12C0E94D3
:1013E000C3136C197D098E099F09681579058A0553
:1013F0009B05E0F4F7E0F61598F086E696E00E948B
:101400007C0D892B61F355245394560C86E696E0A7
:101410000E94EE0CF801E60DF11D8083652CEACFE9
:10142000E8E06E12DCCF8981853F11F081E018C0C1
:101430008A818711FBCF8885853FC1F789E07816BF
:1014400049F0ECE07E1631F0FEE27F1619F088E2FA
:10145000781202C08C8101C080E0809361068D818A
:1014600028960FB6F894DEBF0FBECDBFDF91CF91A7
:101470001F910F91FF90EF90DF90CF90BF90AF90B2
:101480009F908F907F906F905F90089520E231E061
:1014900040E060E08CE20E949E09882341F06CEB02
:1014A00070E080E090E00E94F21380E0089581E017
:1014B0000895EF92FF920F931F93CF93DF9300D085
:1014C00000D0CDB7DEB78C0168ED74E0CE01019697
:1014D0000E94561DBE016F5F7F4FC8010E945A1EB9
:1014E0007C01CE0101960E94E81CF801248135811F
:1014F000A7015527495F5F4FB801CE0101960E94B1
:101500005E1ECE0101960E94A31E162FCE010196EB
:101510000E94E81C6FED74E0CE0101960E94561DFA
:10152000CE0101960E94F302CE0101960E94E81CB2
:1015300028EE3AE142E0612F81E00E949E0981118C
:1015400033C06AEF74E0CE0101960E94561DCE01B1
:1015500001960E94F302CE0101960E94E81C28EE3B
:101560003AE142E0612F82E00E949E0981111CC095
:101570006CE075E0CE0101960E94561DCE010196E9
:101580000E94F302CE0101960E94E81C28EE3AE187
:1015900042E0612F83E00E949E09811105C0612F06
:1015A00070E0645E7A4F07C0813019F060E073E04C
:1015B00002C06AEC74E0CE0101960E94561DCE0175
:1015C00001960E94F302CE0101960E94E81C269625
:1015D0000FB6F894DEBF0FBECDBFDF91CF911F9144
:1015E0000F91FF90EF900895CF92DF92EF92FF92CC
:1015F0001F93CF93DF9300D000D0CDB7DEB70E940A
:10160000C3136B017C010E94C3136C197D098E0901
:101610009F096E3971058105910558F486E696E0BB
:101620000E947C0D892B79F386E696E00E94EE0CF1
:10163000F5CF20E037E140E060E08CE00E949E09B9
:10164000182F8B7F8130F1F0809161068823D1F0D3
:1016500080933C0668E375E0CE0101960E94561D1A
:10166000CE0101960E94E002CE0101960E94E81C84
:101670004AE050E060913C0681E997E00E94301911
:1016800081E016C062E575E0CE0101960E94561D0C
:10169000CE0101960E94E002CE0101960E94E81C54
:1016A0004AE050E0612F81E997E00E94301980E024
:1016B00026960FB6F894DEBF0FBECDBFDF91CF9157
:1016C0001F91FF90EF90DF90CF9008958091650675
:1016D000813091F46EE575E081E997E00E94B118E0
:1016E00010923C060E94F10162E370E080E090E01D
:1016F0000E94F21381E0089580916506823021F402
:101700000E94F1010C94F40A80E008950F931F9356
:10171000CF93DF93CDB7DEB762970FB6F894DEBFF5
:101720000FBECDBF63E274E0CE010D960E94561D40
:101730008EE298E00E946815892BD1F38EE298E042
:101740000E9481158A3009F0E3C06FE775E0CE0191
:1017500001960E94561DBE016F5F7F4FCE010D9610
:101760000E945A1E8C01CE0101960E94E81C0F3F78
:101770001F4F19F00E94F40AC4C068ED74E0CE0156
:1017800007960E94561DBE01695F7F4FCE010D96E0
:101790000E945A1E0196B1F464E875E0CE010196EC
:1017A0000E94561DBE016F5F7F4FCE010D960E94B5
:1017B0005A1E11E0019609F410E0CE0101960E9434
:1017C000E81C01C011E0CE0107960E94E81C11231D
:1017D00061F0BE01635F7F4FCE0101960E94831DC1
:1017E000CE0101960E94590A88C06BE875E0CE01CF
:1017F00001960E94561DBE016F5F7F4FCE010D9670
:101800000E945A1E8C01CE0101960E94E81C0F3FD7
:101810001F4F61F020E231E040E060E085E00E948F
:101820009E09813059F162E775E05FC061E975E0BA
:10183000CE0101960E94561DBE016F5F7F4FCE0103
:101840000D960E945A1E8C01CE0101960E94E81C42
:101850000F3F1F4FB1F01092610620E231E040E0EF
:1018600060E089E00E949E09813041F04AE0609189
:101870006106CE0101960E94A41D3BC06AE775E097
:1018800034C065E975E0CE0101960E94561DBE0187
:101890006F5F7F4FCE010D960E945A1E8C01CE01C4
:1018A00001960E94E81C0F3F1F4FE9F06AE975E0BE
:1018B000CE0101960E94561DCE0101960E94F302B0
:1018C000CE0101960E94E81CCE010D960E94E81CF4
:1018D00062960FB6F894DEBF0FBECDBFDF91CF91F9
:1018E0001F910F91089565EA75E0CE0101960E945F
:1018F000561DCE0101960E94F302CE0101960E9470
:10190000E81C63E274E0CE010D960E948C1D10CF9E
:10191000682FCE010D960E94FD1D0ACFCF93DF9355
:1019200000D000D0CDB7DEB763EB75E0CE010196F5
:101930000E94561DCE0101960E94E002CE01019642
:101940000E94E81C0E947809809362064AE050E0F9
:10195000682F81E997E00E94301944E75CE060E07D
:1019600070E08FE295E00E940C03882389F06FEB12
:1019700075E0CE0101960E94561DCE0101960E948F
:10198000E002CE0101960E94E81C0E94860B06C070
:101990006EEC75E081E997E00E94B11883E10E9446
:1019A0003F158F5F8093630626960FB6F894DEBFCF
:1019B0000FBECDBFDF91CF91089580916306813036
:1019C00031F018F0823031F008950C948E0C0E94A2
:1019D000660B02C00E94DA070C9453032091C706DD
:1019E0003091C80628173907B9F49091850680917F
:1019F0008606981789F0E0918506F0E0E957F94FDF
:101A000080812091850630E02F5F3F4F2F73332771
:101A10002093850690E008958FEF9FEF08951F9320
:101A2000CF93DF93DC015C968D919C915D9700973D
:101A300049F481E090E013969C938E93129780E096
:101A400090E03BC05196ED91FC91529750962C91AD
:101A50005097322F30951FB75E964C915E9741FBA1
:101A6000772770F941FD6095F8944081772311F054
:101A7000422B01C043234083EC012197F1F748E05A
:101A8000508160FF02C0522B01C053235083EC01F0
:101A90002197F1F76695415099F78081772311F0EE
:101AA000832301C0822B80831FBF5C968D919C9104
:101AB0005D970197F1F781E090E0DF91CF911F9161
:101AC000089508952091C7063091C8062817390750
:101AD00081F49091850680918606981751F0E091E7
:101AE0008506F0E0E957F94F8081992787FD9095A9
:101AF00008958FEF9FEF08952091C7063091C80693
:101B00002817390771F4809186062091850690E0A8
:101B1000805C9F4F821B910960E470E00E94AF1EC1
:101B2000089580E090E00895E091C706F091C8061E
:101B3000E817F90769F4A389B4899C918589809590
:101B400089238C931092C8061092C70681E00895ED
:101B500080E00895CF93DF93EC018A8D9B8D892BD4
:101B6000F1F08091C7069091C8068C179D07B9F0D7
:101B7000009711F00E94940D8E8D8E7F8E8F1092A3
:101B8000860610928506D093C806C093C706EB89D7
:101B9000FC8980819D89892B808381E001C080E060
:101BA000DF91CF9108951F920F920FB60F921124DB
:101BB0000BB60F922F933F934F935F936F937F9347
:101BC0008F939F93AF93BF93EF93FF93E091C706DB
:101BD000F091C806309709F451C0868DA685B78567
:101BE000958581FF04C08C91892329F447C08C918D
:101BF000892309F043C0A389B4899C918589809584
:101C000089238C93868997890197F1F7208D318DEF
:101C1000A685B785758558E040E0C9010197F1F7C1
:101C2000842F90E095958795482F6C91672309F054
:101C30004068515091F7868D81FD409580918606D0
:101C400090E001968F73992720918506281749F017
:101C5000A0918606B0E0A957B94F4C9380938606B1
:101C600003C0868D8160868F828D938D0197F1F7F9
:101C7000A389B4898C919589892B8C93FF91EF91DD
:101C8000BF91AF919F918F917F916F915F914F9194
:101C90003F912F910F900BBE0F900FBE0F901F9092
:101CA000189523E036E0FC01318320830C94940DD9
:101CB0001F93CF93DF93EC01162F6E8D66956170A5
:101CC00081E06827812F0E94091561E0812F0E9421
:101CD000D014812F90E0FC01EE58FD4FE491E88B89
:101CE000FC01E854FD4FE491F0E0EE0FFF1FE85EC9
:101CF000FC4F859194919A8B898BDF91CF911F91A5
:101D000008951F93CF93DF93EC01162F60E0812F8E
:101D10000E94D0148E8D81FD04C061E0812F0E944D
:101D200009151C87812F90E0FC01EE58FD4FE491CE
:101D3000ED87FC01E854FD4FE491F0E0EE0FFF1F4A
:101D4000E250FD4F859194919F878E87DF91CF91CF
:101D50001F910895FF920F931F93CF93DF93EC0190
:101D6000F62E522F1B821A8208EE13E020E030E09C
:101D70000C831D832E833F8383E096E099838883C1
:101D80001F8A1E8A198E188E1B8E1A8E1D8E1C8E0F
:101D90008E8D8E7F50FB81F98E8F642FCE010E9435
:101DA000580E6F2DCE01DF91CF911F910F91FF90B3
:101DB0000C94810E0F931F93CF93DF93EC019A0144
:101DC000AB011B8E1A8E198E188E1F8A1E8A60E038
:101DD00079E08DE390E00E94E51EC90124303105D1
:101DE00020F0B9016350710902C061E070E07D8F9D
:101DF0006C8F1C8506EF010F043048F06EEC610F0C
:101E0000643028F062EC610F683008F07DC0B901E1
:101E1000769567956431710518F06351710902C0B8
:101E200061E070E07F8B6E8B069718F0C901059713
:101E300002C081E090E0998F888FC901880F991FB7
:101E4000820F931F96958795969587958D3091056E
:101E500010F00C9702C081E090E09B8F8A8F0430D5
:101E600060F08EEC810F843040F082EC810F88307E
:101E700008F051C0A8E6B0E050C0A8E6B0E0E8E63F
:101E8000F0E09081043028F01E53183010F484E004
:101E900001C081E0892B8C932C8536EF320F3430D2
:101EA00058F08EEC820F843038F082EC820F88304C
:101EB00030F48DE690E005C08BE690E002C080E053
:101EC00090E09C8B8B8B343010F426500BC0223367
:101ED00079F0233379F0243379F082EC820F883063
:101EE00068F4282F81E001C0880F2A95EAF707C01F
:101EF00088E005C084E003C082E001C081E08D8BF2
:101F00008C8D9D8D0197F1F7CE01DF91CF911F91BF
:101F10000F910C94AA0DA0E0B0E0883008F4AFCF88
:101F2000E0E0F0E0AECF8091F80690E02091F90675
:101F3000821B910908952091F9068091F8062817CF
:101F400050F4E22FF0E0E650F94F808190E02F5FEF
:101F50002093F90608958FEF9FEF0895E091F90619
:101F60008091F806E81730F4F0E0E650F94F8081F0
:101F700090E008958FEF9FEF08950895CF92DF923C
:101F8000EF92FF920F931F93CF93DF937C01CB01CE
:101F90008A012091D506222389F0EB016B01C40E42
:101FA000D51ECC15DD0569F06991D701ED91FC9145
:101FB0000190F081E02DC7011995F3CF642F0E94A5
:101FC0002E10C801DF91CF911F910F91FF90EF90DC
:101FD000DF90CF900895CF93DF931F92CDB7DEB7F8
:101FE00069832091D5062223D1F02091D606203294
:101FF00040F021E030E0FC013383228380E090E078
:1020000015C08091D706E82FF0E0E852F94F99818A
:1020100090838F5F8093D7068093D60605C061E0DA
:10202000CE0101960E942E1081E090E00F90DF918A
:10203000CF910895FC011382128248EE53E060E0D4
:1020400070E0448355836683778383E196E09183D0
:102050008083089589EC96E00C941A10613298F40C
:1020600020918707243089F460933C07FC018EE3BC
:1020700097E0DC012A2F281B261718F421912D93B5
:10208000F9CF80E0089581E0089582E0089585ED1C
:102090008093BC008091BC0084FDFCCF1092870728
:1020A000089585EC8093BC001092870708951F92D5
:1020B0000F920FB60F9211240BB60F922F933F93EE
:1020C0004F935F936F937F938F939F93AF93BF9340
:1020D000EF93FF938091B900887F803609F49EC00A
:1020E00078F5883209F45DC090F4803109F456C067
:1020F00038F4882309F4F5C0883009F44FC0F5C0DE
:10210000883109F44EC0803209F45FC0EEC08034DB
:1021100009F46AC058F4803309F457C0883309F0D1
:10212000E4C080931A070E945110DFC0803509F483
:102130004FC0883509F45DC0883409F0D6C0D3C0DB
:10214000883909F4C4C0A8F4883709F467C038F4A2
:10215000883609F463C0803709F460C0C6C0883887
:1021600009F4B5C0803909F45FC0803809F0BDC0FA
:102170005BC0803B09F483C038F4803A09F466C040
:10218000883A09F47CC0B1C0803C09F4A4C0883C02
:1021900009F4A1C0883B09F487C0A7C080918607D5
:1021A00010C090915F0780915E07981770F5E091DD
:1021B0005F0781E08E0F80935F07F0E0E05AF84FF1
:1021C00080818093BB0085EC83C080931A078BC00D
:1021D000E0915F0781E08E0F80935F078091BB00E5
:1021E000F0E0E05AF84F808390915F0780915E079E
:1021F0006BC0E0915F0781E08E0F80935F07809155
:10220000BB00F0E0E05AF84F808380918507811190
:102210006AC081E08093840784EA5EC083E0809393
:10222000870710921B07CFCF80911B07803208F0E1
:102230004EC0E0911B0781E08E0F80931B078091B9
:10224000BB00F0E0E45EF84F8083BDCF0E945110E8
:1022500080911B07803230F4E0911B07F0E0E45ED0
:10226000F84F108260911B0770E0E0918007F091B9
:1022700081078CE197E0199510921B0736C084E026
:102280008093870710923D0710923C07E0918207E8
:10229000F0918307199580913C07811105C081E079
:1022A00080933C0710923E07E0913D0781E08E0F3E
:1022B00080933D07F0E0E25CF84F80818093BB00A3
:1022C00090913D0780913C07981708F47CCF85E8F2
:1022D0008093BC000AC085EC8093BC0010928707F5
:1022E00004C010921A070E944710FF91EF91BF910E
:1022F000AF919F918F917F916F915F914F913F919E
:102300002F910F900BBE0F900FBE0F901F9018953E
:102310000895883008F06DC0E82FF0E0EE0FFF1F41
:10232000E65FFD4F7183608390E0FC013197E730F9
:10233000F10590F5EE58FF4F0C94041F8091690051
:102340008C7F842B80936900E89A089580916900BE
:10235000440F551F440F551F837F842B80936900C2
:10236000E99A08958091690074E0440F551F7A95A9
:10237000E1F78F7C842B80936900EA9A089580911D
:10238000690066E0440F551F6A95E1F78F73842B4F
:1023900080936900EB9A089580916A008C7F842B6A
:1023A00080936A00EC9A089580916A00440F551F4B
:1023B000440F551F837F842B80936A00ED9A089504
:1023C00080916A0024E0440F551F2A95E1F78F7C25
:1023D000842B80936A00EE9A089580916A0096E0BB
:1023E000440F551F9A95E1F78F73842B80936A00F1
:1023F000EF9A0895883020F5482F50E0FA01319780
:10240000E730F10560F4E758FF4F0C94041FE8989B
:102410000DC0E9980BC0EA9809C0EB9807C0EC988A
:1024200005C0ED9803C0EE9801C0EF98E82FF0E0EA
:10243000EE0FFF1FE65FFD4F88E891E191838083F7
:1024400008951F920F920FB60F9211240BB60F92A0
:102450002F933F934F935F936F937F938F939F93AC
:10246000AF93BF93EF93FF93E0910E02F0910F02B1
:102470001995FF91EF91BF91AF919F918F917F91AE
:102480006F915F914F913F912F910F900BBE0F90E5
:102490000FBE0F901F9018951F920F920FB60F92BC
:1024A00011240BB60F922F933F934F935F936F932B
:1024B0007F938F939F93AF93BF93EF93FF93E0919D
:1024C0001002F09111021995FF91EF91BF91AF9118
:1024D0009F918F917F916F915F914F913F912F913C
:1024E0000F900BBE0F900FBE0F901F9018951F926C
:1024F0000F920FB60F9211240BB60F922F933F93AA
:102500004F935F936F937F938F939F93AF93BF93FB
:10251000EF93FF93E0911202F09113021995FF914E
:10252000EF91BF91AF919F918F917F916F915F914B
:102530004F913F912F910F900BBE0F900FBE0F90B8
:102540001F9018951F920F920FB60F9211240BB681
:102550000F922F933F934F935F936F937F938F933C
:102560009F93AF93BF93EF93FF93E0911402F09189
:1025700015021995FF91EF91BF91AF919F918F91A6
:102580007F916F915F914F913F912F910F900BBE73
:102590000F900FBE0F901F9018951F920F920FB6BD
:1025A0000F9211240BB60F922F933F934F935F938B
:1025B0006F937F938F939F93AF93BF93EF93FF930B
:1025C000E0910A02F0910B021995FF91EF91BF91F2
:1025D000AF919F918F917F916F915F914F913F91BB
:1025E0002F910F900BBE0F900FBE0F901F9018955C
:1025F0001F920F920FB60F9211240BB60F922F93CA
:102600003F934F935F936F937F938F939F93AF937A
:10261000BF93EF93FF93E0910C02F0910D02199597
:10262000FF91EF91BF91AF919F918F917F916F91AA
:102630005F914F913F912F910F900BBE0F900FBE66
:102640000F901F9018951F920F920FB60F921124A2
:102650000BB60F922F933F934F935F936F937F939C
:102660008F939F93AF93BF93EF93FF93E0911602E5
:10267000F09117021995FF91EF91BF91AF919F9142
:102680008F917F916F915F914F913F912F910F901B
:102690000BBE0F900FBE0F901F9018951F920F92B8
:1026A0000FB60F9211240BB60F922F933F934F93B7
:1026B0005F936F937F938F939F93AF93BF93EF93AA
:1026C000FF93E0911802F09119021995FF91EF9193
:1026D000BF91AF919F918F917F916F915F914F913A
:1026E0003F912F910F900BBE0F900FBE0F901F9038
:1026F00018951F920F920FB60F9211242F933F93AC
:102700008F939F93AF93BF938091890790918A078E
:10271000A0918B07B0918C073091880723E0230F9D
:102720002D3720F40196A11DB11D05C026E8230F09
:102730000296A11DB11D209388078093890790936D
:102740008A07A0938B07B0938C0780918D07909197
:102750008E07A0918F07B09190070196A11DB11D22
:1027600080938D0790938E07A0938F07B093900767
:10277000BF91AF919F918F913F912F910F900FBE7D
:102780000F901F9018952FB7F8946091890770915A
:102790008A0780918B0790918C072FBF08953FB7D0
:1027A000F89480918D0790918E07A0918F07B0913A
:1027B000900726B5A89B05C02F3F19F00196A11DD3
:1027C000B11D3FBF6627782F892F9A2F620F711D89
:1027D000811D911D42E0660F771F881F991F4A9542
:1027E000D1F70895CF92DF92EF92FF92CF93DF93CC
:1027F0006B017C010E94CF13EB01C114D104E104F1
:10280000F10489F00E94AE1E0E94CF136C1B7D0B59
:10281000683E734090F381E0C81AD108E108F108DE
:10282000C851DC4FEACFDF91CF91FF90EF90DF905E
:10283000CF900895789484B5826084BD84B581601A
:1028400084BD85B5826085BD85B5816085BDEEE6B8
:10285000F0E0808181608083E1E8F0E01082808197
:1028600082608083808181608083E0E8F0E0808105
:1028700081608083E1EBF0E0808184608083E0EB25
:10288000F0E0808181608083E1E9F0E08081826016
:102890008083808181608083E0E9F0E080818160D5
:1028A0008083E1EAF0E080818260808380818160C2
:1028B0008083E0EAF0E0808181608083E1E2F1E002
:1028C000808182608083808181608083E0E2F1E0AA
:1028D000808181608083EAE7F0E08081846080838A
:1028E0008081826080838081816080838081806834
:1028F00080831092C100089590E0FC013197E2318D
:10290000F10508F04CC0E058FF4F0C94041F809173
:1029100080008F7703C0809180008F7D809380003E
:10292000089580918000877FF9CF84B58F7702C0AA
:1029300084B58F7D84BD08958091B0008F7703C0EA
:102940008091B0008F7D8093B000089580919000B9
:102950008F7707C0809190008F7D03C08091900099
:10296000877F8093900008958091A0008F7707C0A3
:102970008091A0008F7D03C08091A000877F80930D
:10298000A0000895809120018F7707C080912001D9
:102990008F7D03C080912001877F8093200108955F
:1029A000CF93DF9390E0FC01EE58FD4F2491FC01A2
:1029B000E854FD4F8491882349F190E0880F991FD6
:1029C000FC01EE5CFC4FA591B491885E9C4FFC012C
:1029D000C591D4919FB7611108C0F8948C9120954E
:1029E00082238C93888182230AC0623051F4F89448
:1029F0008C91322F309583238C938881822B88830E
:102A000004C0F8948C91822B8C939FBFDF91CF915F
:102A100008950F931F93CF93DF931F92CDB7DEB727
:102A2000282F30E0F901E45DFD4F8491F901EE5863
:102A3000FD4F1491F901E854FD4F04910023C9F0B2
:102A4000882321F069830E947C146981E02FF0E0E3
:102A5000EE0FFF1FE85EFC4FA591B4919FB7F8946D
:102A60008C91611103C01095812301C0812B8C933F
:102A70009FBF0F90DF91CF911F910F910895CF933A
:102A8000DF93282F30E0F901E45DFD4F8491F901D7
:102A9000EE58FD4FD491F901E854FD4FC491CC2379
:102AA00091F081110E947C14EC2FF0E0EE0FFF1FDB
:102AB000E250FD4FA591B4912C912D2381E090E03F
:102AC00021F480E002C080E090E0DF91CF91089592
:102AD000FC01818D228D90E0805C9F4F821B9109CB
:102AE0008F7399270895FC01918D828D981731F08D
:102AF000828DE80FF11D858D90E008958FEF9FEF97
:102B00000895FC01918D828D981761F0828DDF010F
:102B1000A80FB11D5D968C91928D9F5F9F73928FD0
:102B200090E008958FEF9FEF08958CE397E1892B54
:102B300041F080E090E0892B21F00E943C17811148
:102B400025C080E090E0892B41F080E090E0892B67
:102B500021F00E94000081111CC089EE97E1892BB1
:102B600041F080E090E0892B21F00E94E91781116B
:102B700013C080E090E0892BA1F080E090E0892BE9
:102B800081F00E94000081110AC008950E94000097
:102B9000D8CF0E940000E1CF0E940000EACF0C9441
:102BA00000000895FC01848DDF01A80FB11DA35A18
:102BB000BF4F2C91848D90E001968F739927848F5D
:102BC000A689B7892C93A089B1898C9180648C9354
:102BD000938D848D981306C00288F389E02D80813F
:102BE0008F7D80830895CF93DF93EC01888D8823B8
:102BF000C9F0EA89FB89808185FD05C0A889B9896A
:102C00008C9186FD0FC00FB607FCF5CF808185FF44
:102C1000F2CFA889B9898C9185FFEDCFCE010E94B2
:102C2000D215E7CFDF91CF910895CF92DF92FF9237
:102C30000F931F93CF93DF931F92CDB7DEB76C0135
:102C400081E0D60158968C9358975B969C915B9740
:102C50005C968C915C97981307C05096ED91FC910F
:102C60005197808185FD2EC0F601038D10E00F5F26
:102C70001F4F0F731127F02EF601848DF81211C02B
:102C80000FB607FCF9CFD6015096ED91FC91519704
:102C9000808185FFF1CFC60169830E94D2156981C9
:102CA000EBCF838DE80FF11DE35AFF4F6083D60110
:102CB0005B960C935B975296ED91FC9153978081B4
:102CC00080620CC0D6015696ED91FC9157976083B7
:102CD0005096ED91FC91519780818064808381E0D2
:102CE00090E00F90DF91CF911F910F91FF90DF90B7
:102CF000CF900895BF92CF92DF92EF92FF92CF9341
:102D0000DF93EC016A017B01B22EE889F98982E048
:102D10008083411581EE580761057105A1F060E0DF
:102D200079E08DE390E0A70196010E94C31E215037
:102D30003109410951095695479537952795211530
:102D400080E1380798F0E889F989108260E874E832
:102D50008EE190E0A70196010E94C31E2150310927
:102D6000410951095695479537952795EC85FD857D
:102D70003083EE85FF852083188EEC89FD89B08233
:102D8000EA89FB89808180618083EA89FB8980816F
:102D900088608083EA89FB89808180688083EA89F2
:102DA000FB8980818F7D8083DF91CF91FF90EF90B1
:102DB000DF90CF90BF9008951F920F920FB60F92A1
:102DC00011240BB60F922F938F939F93EF93FF9342
:102DD000E091A107F091A2078081E091A707F0910F
:102DE000A80782FD12C090818091AA078F5F8F7320
:102DF0002091AB07821751F0E091AA07F0E0EF565F
:102E0000F84F958F8093AA0701C08081FF91EF91C1
:102E10009F918F912F910F900BBE0F900FBE0F902F
:102E20001F9018951F920F920FB60F9211240BB698
:102E30000F922F933F934F935F936F937F938F9353
:102E40009F93AF93BF93EF93FF9381E997E00E9425
:102E5000D215FF91EF91BF91AF919F918F917F918B
:102E60006F915F914F913F912F910F900BBE0F90FB
:102E70000FBE0F901F90189581E997E00E9468158A
:102E800021E0892B09F420E0822F08951092940705
:102E90001092930788EE93E0A0E0B0E0809395074E
:102EA00090939607A0939707B093980783E296E0D4
:102EB000909392078093910785EC90E090939E0702
:102EC00080939D0784EC90E09093A00780939F07E8
:102ED00080EC90E09093A2078093A10781EC90E0B2
:102EE0009093A4078093A30782EC90E09093A607A9
:102EF0008093A50786EC90E09093A8078093A7079E
:102F00001092AA071092AB071092AC071092AD076F
:102F100008951F920F920FB60F9211240BB60F92C5
:102F20002F938F939F93EF93FF93E0913E08F0913F
:102F30003F088081E0914408F091450882FD12C06D
:102F40009081809147088F5F8F7320914808821786
:102F500051F0E0914708F0E0E25DF74F958F8093E4
:102F6000470801C08081FF91EF919F918F912F9130
:102F70000F900BBE0F900FBE0F901F9018951F92D1
:102F80000F920FB60F9211240BB60F922F933F930F
:102F90004F935F936F937F938F939F93AF93BF9361
:102FA000EF93FF938EE298E00E94D215FF91EF918C
:102FB000BF91AF919F918F917F916F915F914F9151
:102FC0003F912F910F900BBE0F900FBE0F901F904F
:102FD00018958EE298E00E94681521E0892B09F48B
:102FE00020E0822F0895109231081092300888EE68
:102FF00093E0A0E0B0E08093320890933308A09370
:103000003408B093350883E296E090932F088093BC
:103010002E0885ED90E090933B0880933A0884ED6C
:1030200090E090933D0880933C0880ED90E0909371
:103030003F0880933E0881ED90E090934108809393
:10304000400882ED90E0909343088093420886ED1B
:1030500090E090934508809344081092470810929E
:1030600048081092490810924A08089508950E944D
:103070001A140E9436180E94B903C5E9D5E10E94CE
:10308000DD0C2097E1F30E949515F9CFCF92DF92E6
:10309000EF92FF920F931F93CF93DF937C016A010E
:1030A000EB0100E010E00C151D0571F06991D701EE
:1030B000ED91FC910190F081E02DC7011995892BCC
:1030C00019F00F5F1F4FEFCFC801DF91CF911F9114
:1030D0000F91FF90EF90DF90CF90089561157105EB
:1030E00081F0DB010D900020E9F7AD01415051095D
:1030F000461B570BDC01ED91FC910280F381E02D22
:10310000199480E090E00895DC01ED91FC91DB01E1
:1031100014964D915C9115976D917C910280F3818D
:10312000E02D19940C946E18DC01ED91FC91019046
:10313000F081E02D199461E274E00C946E180F9305
:103140001F93CF93DF93EC010E9484188C01CE0172
:103150000E949B18800F911FDF91CF911F910F91BB
:1031600008950F931F93CF93DF93EC010E946E1885
:103170008C01CE010E949B18800F911FDF91CF918F
:103180001F910F9108958F929F92AF92BF92CF920D
:10319000DF92EF92FF920F931F93CF93DF93CDB700
:1031A000DEB7A1970FB6F894DEBF0FBECDBF7C018E
:1031B000C42EE52FCB01D22E19A221E02D1510F03F
:1031C0002AE0D22E8E010F5D1F4F8D2C912CA12C49
:1031D000B12C6C2D7E2FA50194010E94C31E8C2D55
:1031E000D29E80191124015011098A3014F4805D97
:1031F00001C0895CF8018083211531054105510525
:1032000021F0C22EE32FCA01E4CFB801C7010E940A
:103210006E18A1960FB6F894DEBF0FBECDBFDF913A
:10322000CF911F910F91FF90EF90DF90CF90BF90C3
:10323000AF909F908F9008952115310541F4DC01E6
:10324000ED91FC910190F081E02D642F19940C9484
:10325000C3189A01462F50E060E070E00C941C19EE
:103260000F931F93CF93DF93EC019A01462F50E009
:1032700060E070E00E941C198C01CE010E949B1836
:10328000800F911FDF91CF911F910F9108953F9271
:103290004F925F926F927F928F929F92AF92BF9266
:1032A000CF92DF92EF92FF920F931F93CF93DF9312
:1032B00000D01F92CDB7DEB78B0129013A01909162
:1032C0001A02981721F09F3F09F0BDC204C0ECE438
:1032D000F3E0349004C180931A02ECE4F3E0E4914B
:1032E000EF3F09F4B0C2E23009F480C074F5EE2378
:1032F00009F45BC0E13009F0F1C010928000109237
:10330000810090918100986090938100909181005C
:10331000916090938100282F30E0F901E854FD4F2F
:10332000E491F0E0EE0FFF1FE85EFC4F45915491F1
:103330005093E9084093E808F901EE58FD4F2491B5
:103340002093E70833243394CCC0E43009F49EC0C2
:103350000CF474C0E53009F0C1C010922001109245
:103360002101909121019860909321019091210178
:10337000916090932101282F30E0F901E854FD4F2E
:10338000E491F0E0EE0FFF1FE85EFC4F4591549191
:103390005093CD084093CC08F901EE58FD4F24918D
:1033A0002093CB0855E0352E9CC014BC15BC94B5B9
:1033B000926094BD95B5916095BD282F30E0F901DC
:1033C000E854FD4FE491F0E0EE0FFF1FE85EFC4F84
:1033D000459154915093F0084093EF08F901EE584D
:1033E000FD4F24912093EE08312C7BC01092B00049
:1033F0001092B1009091B00092609093B0009091C3
:10340000B10091609093B100282F30E0F901E854A9
:10341000FD4FE491F0E0EE0FFF1FE85EFC4F459199
:1034200054915093E2084093E108F901EE58FD4FA2
:1034300024912093E00822E0322E53C01092900095
:1034400010929100909191009860909391009091CA
:103450009100916090939100282F30E0F901E85499
:10346000FD4FE491F0E0EE0FFF1FE85EFC4F459149
:1034700054915093DB084093DA08F901EE58FD4F60
:1034800024912093D908B3E03B2E2BC01092A000CA
:103490001092A1009091A10098609093A10090914A
:1034A000A10091609093A100282F30E0F901E85429
:1034B000FD4FE491F0E0EE0FFF1FE85EFC4F4591F9
:1034C00054915093D4084093D308F901EE58FD4F1E
:1034D00024912093D20874E0372E03C03E2E37FC8F
:1034E000B2C161E00E94D0144801A12CB12C832DFF
:1034F0008D7F09F0C7C060E072E18AE790E0A50126
:1035000094010E94E51E29833A834B835C83690101
:103510007A0181E0C81AD108E108F1089FEFC916C5
:10352000D104E104F10409F008F49AC060E472E403
:103530008FE090E0A50194010E94E51E69017A01E7
:10354000E1E0CE1AD108E108F108F2E03F1219C01B
:103550008FEFC816D104E104F10409F008F48AC021
:1035600060E970ED83E090E0A50194010E94E51E02
:1035700069017A0191E0C91AD108E108F10883E0F4
:1035800001C082E0EFEFCE16D104E104F10409F0AE
:1035900008F467C068E478EE81E090E0A50194014A
:1035A0000E94E51E69017A01F1E0CF1AD108E10815
:1035B000F1083320E1F082E038121BC09FEFC916FA
:1035C000D104E104F10409F008F43BC164E274EFB2
:1035D00080E090E0A50194010E94E51E69017A0156
:1035E000E1E0CE1AD108E108F10885E003C083E0EC
:1035F00001C084E0FFEFCF16D104E104F10489F1AA
:1036000080F162E17AE780E090E0A50194010E94F8
:10361000E51E69017A0181E0C81AD108E108F108C4
:10362000311002C084E001C086E09FEFC916D104CA
:10363000E104F104B1F0A8F0C980DA80EB80FC80ED
:103640009AE0F594E794D794C7949A95D1F7E1E07E
:10365000CE1AD108E108F108332031F087E00BC021
:1036600081E0332011F007C085E095B5987F982B55
:1036700095BD56C082E09091B100987F982B9093B1
:10368000B1004EC060E072E18AE790E0A5019401CC
:103690000E94E51E69017A01F1E0CF1AD108E10824
:1036A000F108C114D10481E0E806F10488F068E46F
:1036B00078EE81E090E0A50194010E94E51E690189
:1036C0007A0191E0C91AD108E108F10893E001C03C
:1036D00091E0E1E03E1207C080918100887F892B54
:1036E000809381001DC0F3E03F1207C080919100DC
:1036F000887F892B8093910013C084E0381207C023
:103700008091A100887F892B8093A10009C0E5E00A
:103710003E1206C080912101887F892B8093210170
:10372000411451046104710471F0D801AA0FBB1F48
:10373000A30192010E940A1F28EE33E040E050E00E
:103740000E94C31E03C02FEF3FEFA901F2E03F1616
:1037500009F443C0F315BCF0332081F181E0381245
:1037600072C0D0928900C09288002093EA083093FA
:10377000EB084093EC085093ED0880916F00826055
:1037800080936F0060C094E0391609F448C0391680
:10379000A4F1E5E03E1257C0D0922901C092280161
:1037A0002093CE083093CF084093D0085093D1088F
:1037B0008091730082608093730045C0C7BC2093E2
:1037C000F1083093F2084093F3085093F408809185
:1037D0006E00826080936E0036C0C092B30020936A
:1037E000E3083093E4084093E5085093E60880919D
:1037F000700082608093700026C0D0929900C092C1
:1038000098002093DC083093DD084093DE08509345
:10381000DF088091710082608093710014C0D092A3
:10382000A900C092A8002093D5083093D6084093F1
:10383000D7085093D80880917200826080937200FC
:1038400002C084E018CF0F900F900F900F90DF917F
:10385000CF911F910F91FF90EF90DF90CF90BF908D
:10386000AF909F908F907F906F905F904F903F9020
:1038700008958230A9F028F4882349F0813051F06E
:103880000895843021F1E8F0853039F108951092DF
:103890006E00089580916F008D7F80936F00089572
:1038A000809170008D7F8093700081E08093B000E4
:1038B0008091B100887F84608093B1001092B30042
:1038C0000895809171008D7F80937100089580919B
:1038D00072008D7F809372000895809173008D7FB8
:1038E000809373000895CF93C82F80911A028C1390
:1038F00007C0ECE4F3E084919FEF90931A0201C0BB
:103900008FEF0E94391C60E08C2FCF910C94091529
:103910001F920F920FB60F9211240BB60F922F9396
:103920003F934F935F936F937F938F939F93AF9347
:10393000BF93EF93FF938091E3089091E408A091E7
:10394000E508B091E608892B8A2B8B2B51F19091D9
:10395000E008E091E108F091E20880818927808306
:103960008091E3089091E408A091E508B091E60801
:10397000181619061A061B06C4F48091E3089091E4
:10398000E408A091E508B091E6080197A109B10902
:103990008093E3089093E408A093E508B093E608C9
:1039A00004C080911A020E94731CFF91EF91BF9195
:1039B000AF919F918F917F916F915F914F913F91C7
:1039C0002F910F900BBE0F900FBE0F901F90189568
:1039D000FC01808191810C94D41FCF93DF93EC0183
:1039E00088819981009711F00E94D41F1982188252
:1039F0001D821C821B821A82DF91CF9108950F9342
:103A00001F93CF93DF93EC018B016F5F7F4F888112
:103A100099810E94BE20009731F0998388831B838F
:103A20000A8381E001C080E0DF91CF911F910F9167
:103A30000895CF93DF93EC0188819981892B29F038
:103A40008A819B818617970760F4CE010E94FF1C34
:103A5000882341F08C819D81892B19F4E881F981BB
:103A6000108281E0DF91CF910895EF92FF920F9342
:103A70001F93CF93DF93EC017B018A01BA010E946F
:103A8000191D811104C0CE010E94ED1C07C01D83C9
:103A90000C83B701888199810E94E221CE01DF91D8
:103AA000CF911F910F91FF90EF900895FC0111822B
:103AB000108213821282158214826115710559F0E9
:103AC000FB0101900020E9F7AF0141505109461B6D
:103AD000570B0C94351D0895CF93DF93EC01FB0138
:103AE0008617970761F0608171816115710529F072
:103AF000448155810E94351D02C00E94ED1CCE01FB
:103B0000DF91CF910895FC011182108213821282FD
:103B1000158214820C946C1DCF93DF93EC01611518
:103B2000710561F0FB0101900020E9F7AF01415000
:103B30005109461B570B0E94351D02C00E94ED1C07
:103B4000CE01DF91CF9108950F931F93CF93DF9311
:103B5000CDB7DEB729970FB6F894DEBF0FBECDBF45
:103B60008C01862FF8011182108213821282158235
:103B7000148250E0BE016F5F7F4F90E00E941822D8
:103B8000BE016F5F7F4FC8010E948C1D29960FB642
:103B9000F894DEBF0FBECDBFDF91CF911F910F9183
:103BA0000895EF92FF920F931F93CF93DF93EC0151
:103BB0007B010C811D816115710511F480E016C037
:103BC0004115510591F0040F151FB8010E94191DF0
:103BD0008823A1F3288139818C819D81B701820FCF
:103BE000931F0E94E2211D830C8381E0DF91CF911E
:103BF0001F910F91FF90EF900895CF93DF931F9245
:103C00001F92CDB7DEB769831A8241E050E0BE0152
:103C10006F5F7F4F0E94D11D0F900F90DF91CF916A
:103C20000895CF93DF93EC01FB01448155816081BE
:103C300071810E94D11D811103C0CE010E94ED1C33
:103C4000CE01DF91CF910895CF93DF93EC01611501
:103C5000710569F0FB0101900020E9F7AF014150C7
:103C60005109461B570B0E94D11D811103C0CE0183
:103C70000E94ED1CCE01DF91CF910895CF93DF9389
:103C8000FC01848195814817590778F4C081D1815E
:103C9000FB0160817181CE01840F951F0E94E92193
:103CA000009719F08C1B9D0B02C08FEF9FEFDF91E7
:103CB000CF91089540E050E00C943E1EBF92CF9209
:103CC000DF92EF92FF920F931F93CF93DF936C01DC
:103CD0007B01EA0189012417350720F48D2FE901C2
:103CE000042F182F63E274E0C6010E94561DD7010D
:103CF00014968D919C911597C817D907C8F4801711
:103D0000910708F48C01D701ED91FC911197E00F18
:103D1000F11FB08010826D917C916C0F7D1FC601E8
:103D20000E948C1DD701ED91FC91E00FF11FB08234
:103D3000C601DF91CF911F910F91FF90EF90DF901F
:103D4000CF90BF900895FC0180819181009711F080
:103D50000C94A72160E070E0CB010895089597FBD3
:103D6000072E16F4009407D077FD09D00E94191F82
:103D700007FC05D03EF4909581959F4F089570956E
:103D800061957F4F0895A1E21A2EAA1BBB1BFD016E
:103D90000DC0AA1FBB1FEE1FFF1FA217B307E4072A
:103DA000F50720F0A21BB30BE40BF50B661F771F82
:103DB000881F991F1A9469F7609570958095909562
:103DC0009B01AC01BD01CF010895052E97FB1EF4A8
:103DD00000940E94FC1E57FD07D00E94C31E07FCE2
:103DE00003D04EF40C94FC1E5095409530952195CF
:103DF0003F4F4F4F5F4F0895909580957095619517
:103E00007F4F8F4F9F4F0895EE0FFF1F0590F49146
:103E1000E02D19940E942D1FA59F900DB49F900D29
:103E2000A49F800D911D112408950790F691E02D17
:103E30001994AA1BBB1B51E107C0AA1FBB1FA617E1
:103E4000B70710F0A61BB70B881F991F5A95A9F743
:103E500080959095BC01CD010895A29FB001B39FBC
:103E6000C001A39F700D811D1124911DB29F700D83
:103E7000811D1124911D0895CF93DF938230910508
:103E800010F482E090E0E091F708F091F80820E06B
:103E900030E0A0E0B0E0309739F14081518148171F
:103EA0005907B8F04817590771F482819381109728
:103EB00029F013969C938E9312972CC09093F80838
:103EC0008093F70827C02115310531F042175307B9
:103ED00018F0A901DB0101C0EF019A01BD01DF016A
:103EE0000280F381E02DD7CF21153105F9F0281B91
:103EF000390B2430310580F48A819B81611571056D
:103F000021F0FB019383828304C09093F80880938F
:103F1000F708FE01329644C0FE01E20FF31F8193C1
:103F2000919322503109398328833AC02091F508B2
:103F30003091F608232B41F42091020230910302C4
:103F40003093F6082093F508209100023091010289
:103F50002115310541F42DB73EB74091040250912F
:103F60000502241B350BE091F508F091F608E217E5
:103F7000F307A0F42E1B3F0B2817390778F0AC018C
:103F80004E5F5F4F2417350748F04E0F5F1F509369
:103F9000F6084093F5088193919302C0E0E0F0E0C9
:103FA000CF01DF91CF910895CF93DF93009709F46C
:103FB00087C0FC01329713821282C091F708D0911A
:103FC000F808209781F420813181280F391F8091D2
:103FD000F5089091F6088217930779F5F093F608A3
:103FE000E093F5086DC0DE0120E030E0AE17BF07BA
:103FF00050F412964D915C9113979D014115510516
:1040000009F1DA01F3CFB383A28340815181840F98
:10401000951F8A179B0771F48D919C911197840FBE
:10402000951F02969183808312968D919C91139790
:10403000938382832115310529F4F093F808E093E6
:10404000F7083EC0D9011396FC93EE9312974D9159
:104050005D91A40FB51FEA17FB0779F48081918168
:10406000840F951F0296D90111969C938E9382819D
:10407000938113969C938E931297E0E0F0E08A81EF
:104080009B81009719F0FE01EC01F9CFCE01029659
:1040900028813981820F931F2091F5083091F6080D
:1040A0002817390769F4309729F41092F80810920C
:1040B000F70802C013821282D093F608C093F50865
:1040C000DF91CF9108958F929F92AF92BF92CF923E
:1040D000DF92EF92FF92CF93DF93EC0168817981B9
:1040E0008A819B81611571058105910521F464E246
:1040F00079ED8BE597E02DE133EF41E050E00E9450
:10410000E51E49015A019B01AC01A7EAB1E40E94F6
:104110000A1F6B017C01ACEEB4EFA50194010E9473
:104120003625C60ED71EE81EF91EF7FE06C081E032
:10413000C81AD108E10880E8F80AC882D982EA8260
:10414000FB82C701B6019F77DF91CF91FF90EF907F
:10415000DF90CF90BF90AF909F908F9008950C9478
:10416000632086E092E00C946320609306027093D3
:104170000702809308029093090208956F927F923C
:104180008F929F92AF92BF92CF92DF92EF92FF9267
:104190000F931F93CF93DF93EC01CB01209781F412
:1041A000DF91CF911F910F91FF90EF90DF90CF9013
:1041B000BF90AF909F908F907F906F900C943C1F1A
:1041C000FE01E60FF71F9E0122503109E217F307A7
:1041D00008F4ACC0D9010D911C911197061717076F
:1041E000B8F00530110508F49FC0A80144505109EA
:1041F0004617570708F498C002501109061B170B01
:10420000019311936D937C93CF010E94D41F8CC0B6
:104210005B01A01AB10A4E01800E911EA091F70811
:10422000B091F808612C712C60E070E0109709F4EF
:1042300049C0A815B905C9F5ED90FC901197670123
:1042400042E0C40ED11CCA14DB0478F147018A187D
:104250009B08640142E0C40ED11C1296BC901297D8
:104260001396AC91B5E0CB16D10440F0B282A38393
:1042700091828082D9018D939C9309C00E5F1F4F5C
:104280000E0D1F1DF90111830083EB2DFA2F61150F
:10429000710531F0DB011396FC93EE93129744C045
:1042A000F093F808E093F7083FC06D917C91119767
:1042B0006616770608F43B01BD0112960D90BC917D
:1042C000A02DB4CF6091F5087091F60868157905B6
:1042D000E9F468167906D0F4409100025091010289
:1042E0004115510541F44DB75EB7609104027091DC
:1042F0000502461B570BE417F507C0F4F093F608C8
:10430000E093F508F901918380830EC00E943C1F61
:104310007C01009759F0A801BE010E94CE21CE0178
:104320000E94D41FC70104C0CE0102C080E090E00B
:10433000DF91CF911F910F91FF90EF90DF90CF9081
:10434000BF90AF909F908F907F906F9008951F9334
:10435000FC0199278827BC01E89411911032E9F3F8
:10436000193010F01E30C8F31B3251F01D3249F4E1
:10437000689406C00E940322610F711D811D911D6A
:10438000119110531A30B0F33EF4909580957095CA
:1043900061957F4F8F4F9F4F1F910895FB01DC0167
:1043A00002C001900D9241505040D8F70895FC0191
:1043B0008191861721F08823D9F79927089531979D
:1043C000CF010895FB01DC0101900D920020E1F77F
:1043D0000895FB0151915523A9F0BF01DC014D91D6
:1043E00045174111E1F759F4CD010190002049F042
:1043F0004D9140154111C9F3FB014111EFCF81E00F
:1044000090E001970895592F482F372F262F660FD8
:10441000771F881F991F660F771F881F991F620FCC
:10442000731F841F951F660F771F881F991F08959C
:104430004532510520F4423010F00C942322FB0148
:104440001082CB010895BB27FB015527AA27880FAF
:10445000991FAA1FA41710F0A41B83955051B9F7F8
:10446000A05DAA3308F0A95DA193009779F7B11177
:10447000B1931192CB010C9493240F931F93CF937C
:10448000DF93CDB7DEB72E970FB6F894DEBF0FBE21
:10449000CDBF0E891F8986E08C831A8309838FEF35
:1044A0009FE79E838D83AE01465E5F4F688D798D59
:1044B000CE0101960E946C22EF81F885E00FF11F7A
:1044C00010822E960FB6F894DEBF0FBECDBFDF91DF
:1044D000CF911F910F9108952F923F924F925F922B
:1044E0006F927F928F929F92AF92BF92CF92DF9204
:1044F000EF92FF920F931F93CF93DF93CDB7DEB769
:104500002C970FB6F894DEBF0FBECDBF7C016B01B8
:104510008A01FC0117821682838181FFBDC1CE0111
:1045200001964C01F7019381F60193FD859193FF6C
:1045300081916F01882309F4ABC1853239F493FD71
:10454000859193FF81916F01853229F4B70190E045
:104550000E94A324E7CF512C312C20E02032A0F47C
:104560008B3269F030F4803259F0833269F4206183
:104570002CC08D3239F0803339F4216026C022609E
:10458000246023C0286021C027FD27C030ED380FEC
:104590003A3078F426FF06C0FAE05F9E300D112411
:1045A000532E13C08AE0389E300D1124332E206222
:1045B0000CC08E3221F426FD6BC1206406C08C36FF
:1045C00011F4206802C0883641F4F60193FD85910C
:1045D00093FF81916F018111C1CF982F9F7D9554D9
:1045E000933028F40C5F1F4FFFE3F9830DC083362F
:1045F00031F0833771F0833509F05BC022C0F801D8
:10460000808189830E5F1F4F44244394512C5401B1
:1046100015C03801F2E06F0E711CF801A080B18066
:1046200026FF03C0652D70E002C06FEF7FEFC5016C
:104630002C870E9488242C0183012C852F77222E21
:1046400017C03801F2E06F0E711CF801A080B18034
:1046500026FF03C0652D70E002C06FEF7FEFC5013C
:104660002C870E947D242C012C852068222E83011A
:1046700023FC1BC0832D90E048165906B0F4B70107
:1046800080E290E00E94A3243A94F4CFF50127FC45
:10469000859127FE81915F01B70190E00E94A324DC
:1046A00031103A94F1E04F1A51084114510471F756
:1046B000E5C0843611F0893639F5F80127FF07C0C7
:1046C00060817181828193810C5F1F4F08C060817E
:1046D0007181882777FD8095982F0E5F1F4F2F7669
:1046E000B22E97FF09C090958095709561957F4F88
:1046F0008F4F9F4F2068B22E2AE030E0A4010E9425
:10470000D524A82EA81844C0853729F42F7EB22EB0
:104710002AE030E025C0F22FF97FBF2E8F36C1F09E
:1047200018F4883579F0B4C0803719F0883721F053
:10473000AFC02F2F2061B22EB4FE0DC08B2D846030
:10474000B82E09C024FF0AC09F2F9660B92E06C05C
:1047500028E030E005C020E130E002C020E132E096
:10476000F801B7FE07C060817181828193810C5F7F
:104770001F4F06C06081718180E090E00E5F1F4F87
:10478000A4010E94D524A82EA818FB2DFF77BF2EC8
:10479000B6FE0BC02B2D2E7FA51450F4B4FE0AC01C
:1047A000B2FC08C02B2D2E7E05C07A2C2B2D03C009
:1047B0007A2C01C0752C24FF0DC0FE01EA0DF11DFD
:1047C0008081803311F4297E09C022FF06C07394D2
:1047D000739404C0822F867809F0739423FD13C06C
:1047E00020FF06C05A2C731418F4530C5718732C5E
:1047F000731468F4B70180E290E02C870E94A32430
:1048000073942C85F5CF731410F4371801C0312C34
:1048100024FF12C0B70180E390E02C870E94A324FC
:104820002C8522FF17C021FF03C088E590E002C05D
:1048300088E790E0B7010CC0822F867859F021FDFF
:1048400002C080E201C08BE227FD8DE2B70190E05B
:104850000E94A324A51438F4B70180E390E00E94DD
:10486000A3245A94F7CFAA94F401EA0DF11D808194
:10487000B70190E00E94A324A110F5CF332009F4E2
:1048800051CEB70180E290E00E94A3243A94F6CF83
:10489000F7018681978102C08FEF9FEF2C960FB6AC
:1048A000F894DEBF0FBECDBFDF91CF911F910F9166
:1048B000FF90EF90DF90CF90BF90AF909F908F9040
:1048C0007F906F905F904F903F902F900895F9994F
:1048D000FECF92BD81BDF89A992780B50895262F05
:1048E000F999FECF1FBA92BD81BD20BD0FB6F894D5
:1048F000FA9AF99A0FBE01960895FC01059061504D
:1049000070400110D8F7809590958E0F9F1F0895E5
:10491000FC016150704001900110D8F7809590958E
:104920008E0F9F1F0895DC01FC01672F7191772383
:10493000E1F7329704C07C916D9370836291AE175A
:10494000BF07C8F308950F931F93CF93DF93182FDA
:10495000092FEB018B8181FD03C08FEF9FEF20C0FA
:1049600082FF10C04E815F812C813D814217530729
:104970007CF4E881F9819F012F5F3F4F39832883C1
:10498000108306C0E885F985812F1995892B29F7B1
:104990002E813F812F5F3F4F3F832E83812F902FAA
:1049A000DF91CF911F910F910895FA01AA27283026
:1049B00051F1203181F1E8946F936E7F6E5F7F4FEC
:1049C0008F4F9F4FAF4FB1E03ED0B4E03CD0670F68
:1049D000781F891F9A1FA11D680F791F8A1F911DBB
:1049E000A11D6A0F711D811D911DA11D20D009F40B
:1049F00068943F912AE0269F11243019305D31934D
:104A0000DEF6CF010895462F4770405D4193B3E035
:104A10000FD0C9F7F6CF462F4F70405D4A3318F0DC
:104A2000495D31FD4052419302D0A9F7EACFB4E08D
:104A3000A6959795879577956795BA95C9F7009745
:104A40006105710508959B01AC010A2E06945795E6
:104A5000479537952795BA95C9F7620F731F841F3D
:104A6000951FA01D0895B7FF0C940A1F0E940A1FEE
:104A7000821B930B089513E0C6E5D3E000E006C067
:104A800022970109FE010BBF0E94151FC835D107EF
:0A4A900080E00807A9F7F894FFCFB3
:104A9A000000F908800001000000881188118811BF
:104AAA0088118811881188118811FF536C65657007
:104ABA0021004177616B6521005761726E696E67EB
:104ACA003A426565706572214E6F74204C6F636B54
:104ADA0021007E7E7E53544152547E7E7E00415494
:104AEA002B4357444843503D312C310041542B430A
:104AFA004950434C4F53450041542B43574D4F4463
:104B0A00455F4445463D310041542B4349504D557C
:104B1A00583D300041542B4349504D4F44453D3197
:104B2A000041542B534156455452414E534C494E21
:104B3A004B3D312C223139322E3136382E322E3736
:104B4A00222C38302C225443502200434F4E4E45DB
:104B5A0043540041542B43495053544152543D222B
:104B6A00554450222C223235352E3235352E3235E7
:104B7A00352E323535222C383838382C37373737F6
:104B8A002C30003E0041542B43495053454E4400BB
:104B9A00535543434553530041542B4357534D41B7
:104BAA0052545354415254004154002B2B2B004170
:104BBA00542B434950535441545553003A34003A04
:104BCA0033003A3200446174612053656E64696E41
:104BDA00672E2E2E0061303D256C752662303D25EC
:104BEA006C752663303D256C752664303D256C75E1
:104BFA002661313D256C752662313D256C7526632B
:104C0A00313D256C752664313D256C752666696EC5
:104C1A006765725F69643D25752661637465645FC3
:104C2A0061743D256C7500504F5354202F72656393
:104C3A006F726420485454502F312E310D0A436F3D
:104C4A006E74656E742D4C656E6774683A20000D3B
:104C5A000A436F6E74656E742D547970653A2061DB
:104C6A0070706C69636174696F6E2F782D777777CE
:104C7A002D666F726D2D75726C656E636F646564F7
:104C8A003B20636861727365743D47424B0D0A4865
:104C9A006F73743A20696F742E636F6D0D0A436FD8
:104CAA006E6E656374696F6E3A20636C6F73650D1F
:104CBA000A0D0A004D6F74696F6E6C6966652D4F37
:104CCA004B004F6E65207061796C6F61642077616B
:104CDA00732073656E74206F7574210053656E645A
:104CEA00696E67204661696C75726521002D2D3EDB
:104CFA00446F6F72206C6F636B656421002D2D3ECB
:104D0A004D697373696F6E20436F6D706C6574655E
:104D1A00642C2062757420646F6F72207374696CDE
:104D2A006C206F70656E6564002D2D3E4D6973733E
:104D3A00696F6E20436F6D706C6574656421004104
:104D4A00542B4349505354413F0041542B4349503B
:104D5A005354415F4445463D004A4F42204641492B
:104D6A004C20434F44453A007265636F72640050A9
:104D7A00555420594F55522046494E474552204FC7
:104D8A004E2054484520504144004F4B2C204F4E52
:104D9A0045204D4F52452054494D4500474F4F44F9
:104DAA002C204C4153542054494D45005245434F01
:104DBA00524420535543434553532C2046494E47AA
:104DCA0045522049443A2000446F6F72204F706563
:104DDA006E212057656C636F6D652C207573657243
:104DEA003A004572726F7220436F64653A003D3D26
:104DFA003E4F70656E65642062792061204B45598B
:104E0A002100436C6561726564004641494C00614A
:104E1A007574680064656C65746500636C656172BD
:104E2A0000616C6C007175697400434F4E464947C6
:104E3A0020454E440057524F4E4720434F4D4D4157
:104E4A004E4400436F6E66696720574946490043DE
:104E5A006F6E6669672046504331303230005544E0
:104E6A005020436F6E6E656374204661696C003230
:104E7A0030253032642D253032642D2530326420BD
:104E8A00253032643A253032643A253032640000E3
:104E9A000000000F0D46187C0DEE0C620D610D002E
:104EAA00000000EB0FBE0F930F9B0FAE0FBD0F005C
:104EBA0000000015164618681581157315F3156E4E
:0C4ECA00616E00696E66006F7666000085
:00000001FF
