:100000000C94A8020C94F10C0C941C0D0C94470D4C
:100010000C94720D0C949D0D0C94C80D0C94F30D62
:100020000C941E0E0C94D9020C94D9020C94D90293
:100030000C94E5040C9423180C94D9020C94D90266
:100040000C94D9020C94D9020C94D9020C94D902C4
:100050000C94D9020C94D9020C94D9020C94490E38
:100060000C94D9020C94D9020C94D9020C94D902A4
:100070000C94D9020C94D9020C94D9020C94D90294
:100080000C94D9020C94D9020C94D9020C94D90284
:100090000C94AC110C94E2110C94D9020C949F03B3
:1000A0000C94D9020C94D9020C94D9020C94D90264
:1000B0000C94D9020C94D9020C94D9020C94D90254
:1000C0000C94D9020C94D9020C94D9020C945912B4
:1000D0000C948F120C94D9020C9406130C943C13BC
:1000E0000C94D902A40C6E0C760C820C8F0CB00C04
:1000F000BD0CE10CD70CD90CDB0CDD0CE30CE50CD2
:10010000650F680F570F5B0F610F9F0F6C0F700F1C
:10011000760F7A0F7E0F840F880F8C0F9F0F920F30
:10012000960F9A0F0C940C120C9470130C94580C9C
:100130000C948C0F0C94880F0C94DC040C94C3105A
:100140000C94DB020C94E30C0C946C0F0C94CD0B10
:100150000C94D0040C9451100C94E5100C948F0C5A
:100160000C94700F0C94760F0C94650F0C949A0FEE
:100170000C9433030C94E3020C94760C0C9438101A
:100180000C94570F0C94C3120C94210A0C94161261
:100190000C94D4040C947A0F0C94D8040C94E50CB1
:1001A0000C94F6020C947E0F0C9466130C94D90CEC
:1001B0000C94AB0B0C9465100C946E0C0C94B00C5E
:1001C0000C949F0F0C94D70C0C94920F0C94E10C90
:1001D0000C94BD0C0C94960F0C945B0F0C94840F34
:1001E0000C94610F0C9472030C9443100C94B9128C
:1001F0000C94A40C0C94820C0C94C30B0C94680FFC
:100200000C94DD0C0C94C3130C9406030C94DB0CBF
:100210000C9405034572726F7220436F64653A0057
:1002200057656C636F6D652C20757365723A004479
:100230006174612053656E64696E672E2E2E0041D5
:1002400077616B652100536C6565702100576172A1
:100250006E696E673A426565706572214E6F7420F3
:100260004C6F636B21002D2D3E4D697373696F6E6A
:1002700020436F6D706C65746521002D2D3E4D69B6
:100280007373696F6E20436F6D706C6574652C209D
:1002900062757420646F6F72207374696C6C206F68
:1002A00070656E65640053657276657220476F7481
:1002B00020697421002D2D3E446F6F72206C6F6396
:1002C0006B656421003D3D3E4F70656E6564206244
:1002D000792061204B45592100436F6E6E65637430
:1002E000204661696C00436F6E6669672046504323
:1002F0003130323000436F6E666967205749464996
:10030000007E7E7E53544152547E7E7E0041542BAB
:100310004357534D41525453544152540041542B6E
:1003200043495053454E440041542B434950535484
:100330004152543D22554450222C223235352E3222
:1003400035352E3235352E323535222C3838383881
:100350002C373737372C300041542B4349505354F6
:10036000415F4445463D0041542B4349505354415D
:100370003F0041542B434950434C4F534500415497
:100380002B534156455452414E534C494E4B3D31EF
:100390002C223139322E3136382E322E37222C385B
:1003A000302C22544350220041542B4349504D4F8E
:1003B00044453D310041542B4349504D55583D3043
:1003C0000041542B43574D4F44455F4445463D3112
:1003D000002B2B2B0041542B43495053544154556F
:1003E000530041542B4357444843503D312C310076
:1003F0004154007B757365723D25643B74696D657E
:100400003D25733B73746174653D3130313131305A
:1004100031313031313031303130313031313131D1
:1004200031303131317D0000000A0B02090C0D0E14
:1004300008070304010000000000000000000000A5
:1004400000000000000000000000000000000000AC
:100450000000001211100000000000000000000069
:100460000000000000000000000000000001021079
:1004700020200808102040102040800201020108BE
:10048000040201010204081020408080402010086E
:1004900004020180040201804020100804020108C7
:1004A0000402010102040810204080010204081027
:1004B0002040800505050507050808080802020216
:1004C000020A0A08080404040401010101010101EF
:1004D000010303030303030303040707070C0C0CC6
:1004E0000C0C0C0C0C02020202060606060606069E
:1004F000060B0B0B0B0B0B0B0B0000200023002635
:100500000029002C002F003200000100000301062A
:1005100001090100002200250028002B002E0031D7
:1005200000340002010000050108010B0100002158
:1005300000240027002A002D0030003300010100B4
:1005400000040107010A010272031612C31270139C
:1005500011241FBECFEFD1E2DEBFCDBF00E00CBF44
:1005600012E0A0E0B2E0EAEEF7E300E00BBF02C069
:1005700007900D92AA35B107D9F725E0AAE5B2E0B8
:1005800001C01D92A832B207E1F715E0C0E5D5E041
:1005900000E006C022970109FE010BBF0E94D61899
:1005A000C834D10780E00807A9F70E94B4130C945F
:1005B000F31B0C9400008091890290E020918A0244
:1005C000821B9109089520918A028091890228173F
:1005D00050F4E22FF0E0E557FD4F808190E02F5F6F
:1005E00020938A0208958FEF9FEF0895E0918A0289
:1005F00080918902E81730F4F0E0E557FD4F8081E3
:1006000090E008958FEF9FEF08950895CF92DF92C5
:10061000EF92FF920F931F93CF93DF937C01CB0157
:100620008A0120916602222389F0EB016B01C40E3E
:10063000D51ECC15DD0569F06991D701ED91FC91CE
:100640000190F081E02DC7011995F3CF642F0E942E
:100650007603C801DF91CF911F910F91FF90EF902A
:10066000DF90CF900895CF93DF931F92CDB7DEB781
:100670006983209166022223D1F020916702203203
:1006800040F021E030E0FC013383228380E090E001
:1006900015C080916802E82FF0E0E759FD4F99817D
:1006A00090838F5F809368028093670205C061E04A
:1006B000CE0101960E94760381E090E00F90DF91D9
:1006C000CF910895FC011382128248EE53E060E05E
:1006D00070E0448355836683778385E192E091835C
:1006E000808308958AE592E00C946203613298F465
:1006F00020911803243089F46093CD02FC018FEC23
:1007000092E0DC012A2F281B261718F421912D9343
:10071000F9CF80E0089581E0089582E0089585EDA5
:100720008093BC008091BC0084FDFCCF1092180324
:10073000089585EC8093BC001092180308951F92D1
:100740000F920FB60F9211240BB60F922F933F9377
:100750004F935F936F937F938F939F93AF93BF93C9
:10076000EF93FF938091B900887F803609F49EC093
:1007700078F5883209F45DC090F4803109F456C0F0
:1007800038F4882309F4F5C0883009F44FC0F5C067
:10079000883109F44EC0803209F45FC0EEC0803465
:1007A00009F46AC058F4803309F457C0883309F05B
:1007B000E4C08093AB020E949903DFC0803509F446
:1007C0004FC0883509F45DC0883409F0D6C0D3C065
:1007D000883909F4C4C0A8F4883709F467C038F42C
:1007E000883609F463C0803709F460C0C6C0883811
:1007F00009F4B5C0803909F45FC0803809F0BDC084
:100800005BC0803B09F483C038F4803A09F466C0C9
:10081000883A09F47CC0B1C0803C09F4A4C0883C8B
:1008200009F4A1C0883B09F487C0A7C080911703D1
:1008300010C09091F0028091EF02981770F5E0914E
:10084000F00281E08E0F8093F002F0E0EF50FD4F58
:1008500080818093BB0085EC83C08093AB028BC00A
:10086000E091F00281E08E0F8093F0028091BB0056
:10087000F0E0EF50FD4F80839091F0028091EF0205
:100880006BC0E091F00281E08E0F8093F0028091C6
:10089000BB00F0E0EF50FD4F808380911603811183
:1008A0006AC081E08093150384EA5EC083E0809390
:1008B00018031092AC02CFCF8091AC02803208F0C6
:1008C0004EC0E091AC0281E08E0F8093AC0280912B
:1008D000BB00F0E0E355FD4F8083BDCF0E9499033C
:1008E0008091AC02803230F4E091AC02F0E0E3554C
:1008F000FD4F10826091AC0270E0E0911103F09125
:1009000012038DEA92E019951092AC0236C084E091
:10091000809318031092CE021092CD02E09113033F
:10092000F091140319958091CD02811105C081E0E9
:100930008093CD021092CF02E091CE0281E08E0F23
:100940008093CE02F0E0E153FD4F80818093BB00A5
:100950009091CE028091CD02981708F47CCF85E863
:100960008093BC000AC085EC8093BC0010921803F1
:1009700004C01092AB020E948F03FF91EF91BF91D0
:10098000AF919F918F917F916F915F914F913F9127
:100990002F910F900BBE0F900FBE0F901F901895C8
:1009A00081E080931D03089582E080931D030895E4
:1009B00083E080931D03089580911D03823021F40C
:1009C00010921D0381E0089508951F920F920FB6B3
:1009D0000F9211248F9384E080931D0380911C0358
:1009E0008F5F80931C038F910F900FBE0F901F900D
:1009F000189514BEE0E6F0E088E1808381E680830C
:100A0000A8950895CF93C82F809168008D7F80931B
:100A1000680041E050E060E070E00C2E04C0440F3C
:100A2000551F661F771F0A94D2F74CBB42E050E077
:100A3000CC2341F068ED74E081E00E94590C0E94E3
:100A4000F9040CC064ED74E080E00E94590C43E0AE
:100A500050E060ED74E081E00E94590C10921D039B
:100A600010927A0093B7917F946093BF83B78160AF
:100A700083BF83B7816083BF889583B78E7F83BF31
:100A800083B78E7F83BF80E00E94CA0C81E00E9402
:100A9000CA0C88E10FB6F894809360001092600051
:100AA0000FBED99A8091680082608093680080911F
:100AB000BC008A7B8093BC0060E084E10E94D90F77
:100AC00060E085E10E94D90FCF5FC0931B03CF91F7
:100AD0000895CF93DF93EC0128EA30E040E050E046
:100AE00068E773E088E30E94E214BE0181E694E0C7
:100AF0000E942F1468EA70E080E090E0DF91CF91CF
:100B00000C94C20ECF93C82F66E572E080E090E0AF
:100B10000E94C20E2CEB30E040E050E068E773E04A
:100B200088E30E94E2146C2F87E293E0CF910C944B
:100B300053148F929F92AF92BF92CF92DF92EF9217
:100B4000FF92CF93DF93EC016A017B010E94930E29
:100B50004B015C010E94930E681979098A099B096F
:100B60006C157D058E059F0530F4FE0119958823CF
:100B700089F381E001C080E0DF91CF91FF90EF9099
:100B8000DF90CF90BF90AF909F908F90089586E3B5
:100B90000E940F10892B51F461E086E30E94D90F67
:100BA00060E677E080E090E00C94C20E0895CF9369
:100BB000C0E06C2F617086E30E94D90F6CEB70E08F
:100BC00080E090E00E94C20ECF5FC43091F760E6F3
:100BD00077E080E090E0CF910C94C20E0E94C20EAC
:100BE00087E293E00E943810892B29F087E293E096
:100BF0000E945110F5CF08954F925F926F927F92AD
:100C00008F929F92AF92BF92CF92DF92EF92FF921C
:100C10000F931F93CF93DF93CDB7DEB7C058D109A1
:100C20000FB6F894DEBF0FBECDBF5C012A013B01B9
:100C30008E010F5F1F4F80E8F80111928A95E9F746
:100C40000E94930E6B017C01912C0E94930E6C19F3
:100C50007D098E099F09641575058605970548F479
:100C600087E293E00E943810892B29F097FE0BC091
:100C700002C080E015C0B501C8010E94FB18892B95
:100C800021F381E00DC088248394890C87E293E0EE
:100C90000E945110F801E90DF11D8083982CE0CFDE
:100CA000C058DF4F0FB6F894DEBF0FBECDBFDF9147
:100CB000CF911F910F91FF90EF90DF90CF90BF9059
:100CC000AF909F908F907F906F905F904F9008951E
:100CD0001F93CF93DF93EC010E94C7056FE272E090
:100CE00081E694E00E942F141AE0115089F0BE01B1
:100CF00087E293E00E94411448E45BE060E070E02A
:100D00008CE292E00E94FC05882379F381E001C027
:100D100080E0DF91CF911F9108950F931F93CF93A0
:100D2000DF93CDB7DEB7C85CD1090FB6F894DEBF4C
:100D30000FBECDBF80911D03833009F042C065EB2B
:100D400072E081E694E00E942F148E010F571F4F2E
:100D500063EF73E0C8010E94E918CE018B549F4FE6
:100D60009F938F93809119031F928F931F930F93DB
:100D70001F9280E88F93005811091F930F930E94D0
:100D80001519C8010E9468060FB6F894DEBF0FBEA1
:100D9000CDBF882331F066EA72E081E694E00E94DC
:100DA0002F1483E00E940F10892B29F08BE792E02B
:100DB0000E94690506C086E692E00E94690580E00F
:100DC00001C081E0C853DF4F0FB6F894DEBF0FBEFD
:100DD000CDBFDF91CF911F910F9108954F925F92F8
:100DE0006F927F928F929F92AF92BF92CF92DF923B
:100DF000EF92FF920F931F93CF93DF93CDB7DEB7A0
:100E0000C058D1090FB6F894DEBF0FBECDBF7C012C
:100E10006B015A018E010F5F1F4F80E8F80111929C
:100E20008A95E9F70E94930E2B013C01912C0E94B8
:100E3000930E641975098609970964337640810514
:100E4000910548F487E293E00E943810892B29F03D
:100E500097FE17C002C080E021C0B701C8010E9400
:100E6000FB18892B61F4B601C8010E94FB18892B7D
:100E700031F4B501C8010E94FB18892BC1F281E051
:100E80000DC088248394890C87E293E00E9451105E
:100E9000F801E90DF11D8083982CD4CFC058DF4FA5
:100EA0000FB6F894DEBF0FBECDBFDF91CF911F917B
:100EB0000F91FF90EF90DF90CF90BF90AF909F90F9
:100EC0008F907F906F905F904F9008954F925F92B8
:100ED0006F927F92AF92BF92CF92DF92EF92FF928A
:100EE0000F931F93CF93DF936C017B015A010E94F4
:100EF000930E2B013C01C0E0D0E00E94930E6419D8
:100F0000750986099709643376408105910568F46F
:100F100087010C0F1D1F87E293E00E943810892B78
:100F200031F0CA15DB0558F002C080E011C0B601EF
:100F3000C7010E94FB18892B01F381E009C02196AB
:100F400087E293E00E945110F80181938F01E3CF73
:100F5000DF91CF911F910F91FF90EF90DF90CF9095
:100F6000BF90AF907F906F905F904F9008955F9289
:100F70006F927F928F929F92AF92BF92CF92DF92A9
:100F8000EF92FF920F931F93CF93DF93CDB7DEB70E
:100F900028970FB6F894DEBF0FBECDBF782E49015B
:100FA0008E010F5F1F4F88E0F80111928A95E9F7D3
:100FB00085EF898388877A826C834D83FE01329620
:100FC000CE01079631912F8123272F83E817F90748
:100FD000C9F784EC93E00E943810892B29F084EC47
:100FE00093E00E945110F5CFE091C403F091C50346
:100FF0000280F381E02D48E050E0B80184EC93E0FA
:1010000019950E94930E6B017C01612CA12CB12CCF
:101010000E94930E6C197D098E099F096815790548
:101020008A059B05E0F4F7E0F61598F084EC93E070
:101030000E943810892B61F355245394560C84EC8C
:1010400093E00E945110F801E60DF11D8083652C9C
:10105000EACFE8E06E12DCCF8981853F11F081E0B4
:1010600018C08A818711FBCF8885853FC1F789E049
:10107000781649F0ECE07E1631F0FEE27F1619F0AA
:1010800088E2781202C08C8101C080E0809319034D
:101090008D8128960FB6F894DEBF0FBECDBFDF91CD
:1010A000CF911F910F91FF90EF90DF90CF90BF9065
:1010B000AF909F908F907F906F905F90089560E0C9
:1010C00086E30E94D90F20E030E040E060E08CE24F
:1010D0000E94B7076CEB70E080E090E00C94C20EC9
:1010E000CF93C82F80911D03843011F010921C0300
:1010F000CC2321F080911C03833000F580911D03E7
:10110000843031F066E472E081E694E00E942F14AE
:101110000E945F088C2F0E94020580911D0384307D
:1011200031F06FE372E081E694E00E942F14CC234B
:1011300051F080911D03843031F4DACF8DE492E0D8
:101140000E946905DBCFCF91089520E030E040E0B8
:1011500060E08CE20E94B70742E050E064ED74E08A
:1011600080E00E94590C6CEB70E080E090E00E94FF
:10117000C20E10921D0340E057E160E070E08CED7C
:1011800094E00E949905811105C083E00E940F1030
:101190008F5F01C080E080931B0380E00C94CA0C39
:1011A00026E040E052EC61E070E087E293E00E94CC
:1011B0004A1126E040E05BE460E070E084EC93E0FC
:1011C0000E944A1126E040E05BE460E070E081E6C6
:1011D00094E00E944A1161E073E081E694E00E948D
:1011E0002F1461E087E30E94A00F61E08DE00E9470
:1011F000A00F61E086E30E94A00F0C94A508CF9396
:10120000DF931F92CDB7DEB76CE670E080E090E030
:101210000E94C20E28EB32E240E060E08CE00E94C7
:10122000B707682F8B7F813091F080911903882355
:1012300071F080E292E00E9469054AE050E060911E
:10124000190381E694E00E94CB1481E00DC084E193
:1012500092E069830E9469054AE050E0698181E675
:1012600094E00E94CB1480E00F90DF91CF9108951D
:1012700080911D03813041F465EC72E081E694E0D9
:101280000E942F1481E0089580911D03823011F493
:101290000C94FF0880E00895CF92DF92EF92FF92C6
:1012A0001F93CF93DF93182F8FE30E9482050E9434
:1012B000930E6B017C01C1E00E94930E6C197D09B5
:1012C0008E099F09683C79448105910508F052C058
:1012D00087E293E00E943810892B71F387E293E054
:1012E0000E9451109C013327205331092A303105C7
:1012F000E8F5D0EDD80F123549F588E50E94820552
:1013000028EB32E242E06D2F81E00E94B707C82F40
:1013100081112AC089E50E94820528EB32E242E071
:101320006D2F82E00E94B707C82F81111DC08AE58A
:101330000E94820528EB32E242E06D2F83E00E949A
:10134000B707C82F811110C083E515C0143461F4AC
:1013500020E231E040E06D2F84E00E94B707C82F03
:10136000811102C084E407C08C2F01C089E40E946F
:101370008205A2CF8FE4DF91CF911F91FF90EF9074
:10138000DF90CF900C94820587E293E00E943810A2
:10139000892B39F087E293E00E945110853411F4D3
:1013A00031C080E010921903843419F40E944C0972
:1013B000EBCF8534B4F4813419F40E94FF08E4CFF4
:1013C000833411F720E231E040E060E085E00E94E4
:1013D000B707813011F083E401C086E40E948205E2
:1013E000D3CF813561F420E231E040E060E089E074
:1013F0000E94B707813089F380911903EFCF8235BE
:10140000A9F2C2CF8AE40C9482051F93CF93DF9395
:10141000EC01162FFE016491662331F087E293E020
:101420000E94E5102196F6CF112339F087E293E070
:10143000DF91CF911F910C942B14DF91CF911F91CD
:10144000089560EB72E080E090E00E94EE0561E0BC
:1014500085ED93E00E94050A41E252E064E272E009
:1014600087E292E00C94EE065F926F927F928F92E9
:101470009F92AF92BF92CF92DF92EF92FF920F9323
:101480001F93CF93DF93CDB7DEB7CF58D1090FB6F7
:10149000F894DEBF0FBECDBF48EE5AE160E070E0C9
:1014A00081E29AE00E949905811102C080E0A1C00A
:1014B00060EB72E080E090E00E94EE0561E087E67C
:1014C00093E00E94050A8E010F5F1F4F80E8F8012C
:1014D00011928A95E9F740E850E0B8018CE292E079
:1014E0000E946607882311F37E01F1E8EF0EF11CDC
:1014F00068E573E0C7010E94E918F7010190002038
:10150000E9F731975E2E5E1867E670E0C8010E9429
:10151000F0180A974C016EE670E0C8010E94F018BE
:101520000A975C016FE470E0C8010E94F01804970C
:101530006C0160EB72E080E090E00E94EE05370104
:10154000862D8E19851540F4F30161913F0187E2E4
:1015500093E00E942414F4CF60E770E0C8010E9479
:10156000F01802967C01E814F90440F4F701619147
:101570007F0187E293E00E942414F5CF6CE287E2BA
:1015800093E00E94241469E770E0C8010E94F018FB
:1015900002967C01EA14FB0440F4F70161917F019B
:1015A00087E293E00E942414F5CF6CE287E293E097
:1015B0000E9424146BE670E0C8010E94F0188C01B0
:1015C0000E5F1F4F0C151D0540F4F80161918F014E
:1015D00087E293E00E942414F5CF87E293E00E9413
:1015E0002B1444E356E060E070E08CE292E00E944D
:1015F000FC05C157DF4F0FB6F894DEBF0FBECDBF5D
:10160000DF91CF911F910F91FF90EF90DF90CF90DE
:10161000BF90AF909F908F907F906F905F90089554
:10162000EF92FF920F931F93CF93DF9300D01F92FF
:10163000CDB7DEB78C017B0160EB72E080E090E01B
:1016400029833A834B835C830E94EE0561E0C801E5
:101650000E94050A29813A814B815C81BA01A90166
:10166000C7010F900F900F900F90DF91CF911F91B6
:101670000F91FF90EF900C94FC0524E336E040E0DE
:1016800050E06CE272E082EE93E00E94100B48EEB4
:101690005AE160E070E081E29AE00E9499058111D0
:1016A00018C061E08DE00E94D90F48E056EE60E07E
:1016B00070E083EC9BE00E94990560E0882321F0B4
:1016C0008DE00E94D90F05C08DE00E94D90F80E007
:1016D000089581E00895CF93DF93D4E0D15011F4C1
:1016E000C0E02BC024E336E040E050E06CE272E062
:1016F00081EC93E00E94100B24E336E040E050E0E0
:101700006CE272E085EB93E00E94100B24E336E07C
:1017100040E050E06CE272E088EA93E00E94100B37
:1017200024E336E040E050E06CE272E08EE793E0C4
:101730000E94100BC82F882389F224E336E040E092
:1017400050E06CE272E082E793E00E94100B8C2F75
:10175000DF91CF91089524E336E040E050E065E367
:1017600072E088E293E00E94100B882351F024E39A
:1017700036E040E050E063E372E08DE193E00C94EA
:10178000100B80E0089528EC39E440E050E06FE26F
:1017900072E08DE093E00C94100B24E336E040E01F
:1017A00050E06AE272E080EF93E00C94100B0E942C
:1017B000CD0B81110DC060E081ED93E00E94050A20
:1017C0006CEB70E080E090E00E94C20E0C94CD0BB8
:1017D00081E008950E94D70B81110EC040E35FE0C5
:1017E00060E070E08DEC9BE00E949905811104C0DF
:1017F0000E94D7050C94D70B81E008950E94C7057D
:101800000E94EA0B882371F00E943D0B882361F04F
:101810000E946B0B882351F00E94340A811108C08A
:1018200083E0089580E0089581E0089582E00895BE
:1018300084E0089585EF92E00E9469050E94FE0B06
:1018400080931A034AE050E0682F81E694E00E94FA
:10185000CB1444E75CE060E070E08BEA9BE00E9420
:101860009905882339F086EE92E00E9469050E946E
:10187000C40906C069ED72E081E694E00E942F146D
:1018800083E00E940F108F5F80931B030895809167
:101890001B03813031F018F0823031F008950C9440
:1018A0001A0C0E94380902C00E948D060C94700820
:1018B0000895883008F06DC0E82FF0E0EE0FFF1FAC
:1018C000E050FE4F7183608390E0FC013197E73078
:1018D000F10590F5EE58FF4F0C94C5188091690002
:1018E0008C7F842B80936900E89A08958091690029
:1018F000440F551F440F551F837F842B809369002D
:10190000E99A08958091690074E0440F551F7A9513
:10191000E1F78F7C842B80936900EA9A0895809187
:10192000690066E0440F551F6A95E1F78F73842BB9
:1019300080936900EB9A089580916A008C7F842BD4
:1019400080936A00EC9A089580916A00440F551FB5
:10195000440F551F837F842B80936A00ED9A08956E
:1019600080916A0024E0440F551F2A95E1F78F7C8F
:10197000842B80936A00EE9A089580916A0096E025
:10198000440F551F9A95E1F78F73842B80936A005B
:10199000EF9A0895883020F5482F50E0FA013197EA
:1019A000E730F10560F4E758FF4F0C94C518E8984C
:1019B0000DC0E9980BC0EA9809C0EB9807C0EC98F5
:1019C00005C0ED9803C0EE9801C0EF98E82FF0E055
:1019D000EE0FFF1FE050FE4F88E59CE0918380836F
:1019E00008951F920F920FB60F9211240BB60F920B
:1019F0002F933F934F935F936F937F938F939F9317
:101A0000AF93BF93EF93FF93E0910402F09105022F
:101A10001995FF91EF91BF91AF919F918F917F9118
:101A20006F915F914F913F912F910F900BBE0F904F
:101A30000FBE0F901F9018951F920F920FB60F9226
:101A400011240BB60F922F933F934F935F936F9395
:101A50007F938F939F93AF93BF93EF93FF93E09107
:101A60000602F09107021995FF91EF91BF91AF9196
:101A70009F918F917F916F915F914F913F912F91A6
:101A80000F900BBE0F900FBE0F901F9018951F92D6
:101A90000F920FB60F9211240BB60F922F933F9314
:101AA0004F935F936F937F938F939F93AF93BF9366
:101AB000EF93FF93E0910802F09109021995FF91CD
:101AC000EF91BF91AF919F918F917F916F915F91B6
:101AD0004F913F912F910F900BBE0F900FBE0F9023
:101AE0001F9018951F920F920FB60F9211240BB6EC
:101AF0000F922F933F934F935F936F937F938F93A7
:101B00009F93AF93BF93EF93FF93E0910A02F091FD
:101B10000B021995FF91EF91BF91AF919F918F911A
:101B20007F916F915F914F913F912F910F900BBEDD
:101B30000F900FBE0F901F9018951F920F920FB627
:101B40000F9211240BB60F922F933F934F935F93F5
:101B50006F937F938F939F93AF93BF93EF93FF9375
:101B6000E0910002F09101021995FF91EF91BF9170
:101B7000AF919F918F917F916F915F914F913F9125
:101B80002F910F900BBE0F900FBE0F901F901895C6
:101B90001F920F920FB60F9211240BB60F922F9334
:101BA0003F934F935F936F937F938F939F93AF93E5
:101BB000BF93EF93FF93E0910202F0910302199516
:101BC000FF91EF91BF91AF919F918F917F916F9115
:101BD0005F914F913F912F910F900BBE0F900FBED1
:101BE0000F901F9018951F920F920FB60F9211240D
:101BF0000BB60F922F933F934F935F936F937F9307
:101C00008F939F93AF93BF93EF93FF93E0910C0259
:101C1000F0910D021995FF91EF91BF91AF919F91B6
:101C20008F917F916F915F914F913F912F910F9085
:101C30000BBE0F900FBE0F901F9018951F920F9222
:101C40000FB60F9211240BB60F922F933F934F9321
:101C50005F936F937F938F939F93AF93BF93EF9314
:101C6000FF93E0910E02F0910F021995FF91EF9111
:101C7000BF91AF919F918F917F916F915F914F91A4
:101C80003F912F910F900BBE0F900FBE0F901F90A2
:101C900018951F920F920FB60F9211242F933F9316
:101CA0008F939F93AF93BF9380911F0390912003D5
:101CB000A0912103B091220330911E0323E0230F52
:101CC0002D3720F40196A11DB11D05C026E8230F74
:101CD0000296A11DB11D20931E0380931F039093B4
:101CE0002003A0932103B0932203809123039091BA
:101CF0002403A0912503B09126030196A11DB11DD7
:101D00008093230390932403A0932503B093260389
:101D1000BF91AF919F918F913F912F910F900FBEE7
:101D20000F901F9018952FB7F89460911F03709132
:101D3000200380912103909122032FBF08953FB784
:101D4000F8948091230390912403A0912503B091EE
:101D5000260326B5A89B05C02F3F19F00196A11DAB
:101D6000B11D3FBF6627782F892F9A2F620F711DF3
:101D7000811D911D42E0660F771F881F991F4A95AC
:101D8000D1F70895CF92DF92EF92FF92CF93DF9336
:101D90006B017C010E949F0EEB01C114D104E10490
:101DA000F10489F00E9483180E949F0E6C1B7D0B2A
:101DB000683E734090F381E0C81AD108E108F10849
:101DC000C851DC4FEACFDF91CF91FF90EF90DF90C9
:101DD000CF900895789484B5826084BD84B5816085
:101DE00084BD85B5826085BD85B5816085BDEEE623
:101DF000F0E0808181608083E1E8F0E01082808102
:101E000082608083808181608083E0E8F0E080816F
:101E100081608083E1EBF0E0808184608083E0EB8F
:101E2000F0E0808181608083E1E9F0E08081826080
:101E30008083808181608083E0E9F0E0808181603F
:101E40008083E1EAF0E0808182608083808181602C
:101E50008083E0EAF0E0808181608083E1E2F1E06C
:101E6000808182608083808181608083E0E2F1E014
:101E7000808181608083EAE7F0E0808184608083F4
:101E8000808182608083808181608083808180689E
:101E900080831092C100089590E0FC013197E231F7
:101EA000F10508F04CC0E058FF4F0C94C518809124
:101EB00080008F7703C0809180008F7D80938000A9
:101EC000089580918000877FF9CF84B58F7702C015
:101ED00084B58F7D84BD08958091B0008F7703C055
:101EE0008091B0008F7D8093B00008958091900024
:101EF0008F7707C0809190008F7D03C08091900004
:101F0000877F8093900008958091A0008F7707C00D
:101F10008091A0008F7D03C08091A000877F809377
:101F2000A0000895809120018F7707C08091200143
:101F30008F7D03C080912001877F809320010895C9
:101F4000CF93DF9390E0FC01E359FB4F2491FC0118
:101F5000ED54FB4F8491882349F190E0880F991F3D
:101F6000FC01E35DFA4FA591B4918D5E9A4FFC019F
:101F7000C591D4919FB7611108C0F8948C912095B8
:101F800082238C93888182230AC0623051F4F894B2
:101F90008C91322F309583238C938881822B888378
:101FA00004C0F8948C91822B8C939FBFDF91CF91CA
:101FB00008950F931F93CF93DF931F92CDB7DEB792
:101FC000282F30E0F901E95DFB4F8491F901E359D5
:101FD000FB4F1491F901ED54FB4F04910023C9F01C
:101FE000882321F069830E944C0F6981E02FF0E083
:101FF000EE0FFF1FED5EFA4FA591B4919FB7F894D5
:102000008C91611103C01095812301C0812B8C93A9
:102010009FBF0F90DF91CF911F910F910895CF93A4
:10202000DF93282F30E0F901E95DFB4F8491F9013E
:10203000E359FB4FD491F901ED54FB4FC491CC23EC
:1020400091F081110E944C0FEC2FF0E0EE0FFF1F7A
:10205000E750FB4FA591B4912C912D2381E090E0A6
:1020600021F480E002C080E090E0DF91CF910895FC
:10207000FC01818D228D90E0805C9F4F821B910935
:102080008F7399270895FC01918D828D981731F0F7
:10209000828DE80FF11D858D90E008958FEF9FEF01
:1020A0000895FC01918D828D981761F0828DDF017A
:1020B000A80FB11D5D968C91928D9F5F9F73928F3B
:1020C00090E008958FEF9FEF089580E090E0892BD6
:1020D00041F080E090E0892B21F00E940000811106
:1020E00025C08CE092E1892B41F080E090E0892BC3
:1020F00021F00E940C1281111CC089EB92E1892B06
:1021000041F080E090E0892B21F00E94B91281110A
:1021100013C086E693E1892BA1F080E090E0892B43
:1021200081F00E94661381110AC008950E94000088
:10213000D8CF0E940000E1CF0E940000EACF0C94AB
:1021400000000895FC01848DDF01A80FB11DA35A82
:10215000BF4F2C91848D90E001968F739927848FC7
:10216000A689B7892C93A089B1898C9180648C93BE
:10217000938D848D981306C00288F389E02D8081A9
:102180008F7D80830895CF93DF93EC01888D882322
:10219000C9F0EA89FB89808185FD05C0A889B989D4
:1021A0008C9186FD0FC00FB607FCF5CF808185FFAF
:1021B000F2CFA889B9898C9185FFEDCFCE010E941D
:1021C000A210E7CFDF91CF910895CF92DF92FF92D7
:1021D0000F931F93CF93DF931F92CDB7DEB76C01A0
:1021E00081E0D60158968C9358975B969C915B97AB
:1021F0005C968C915C97981307C05096ED91FC917A
:102200005197808185FD2EC0F601038D10E00F5F90
:102210001F4F0F731127F02EF601848DF81211C095
:102220000FB607FCF9CFD6015096ED91FC9151976E
:10223000808185FFF1CFC60169830E94A210698168
:10224000EBCF838DE80FF11DE35AFF4F6083D6017A
:102250005B960C935B975296ED91FC91539780811E
:1022600080620CC0D6015696ED91FC915797608321
:102270005096ED91FC91519780818064808381E03C
:1022800090E00F90DF91CF911F910F91FF90DF9021
:10229000CF900895BF92CF92DF92EF92FF92CF93AB
:1022A000DF93EC016A017B01B22EE889F98982E0B3
:1022B0008083411581EE580761057105A1F060E04A
:1022C00079E08DE390E0A70196010E9484182150E7
:1022D000310941095109569547953795279521159B
:1022E00080E1380798F0E889F989108260E874E89D
:1022F0008EE190E0A70196010E94841821503109D7
:10230000410951095695479537952795EC85FD85E7
:102310003083EE85FF852083188EEC89FD89B0829D
:10232000EA89FB89808180618083EA89FB898081D9
:1023300088608083EA89FB89808180688083EA895C
:10234000FB8980818F7D8083DF91CF91FF90EF901B
:10235000DF90CF90BF9008951F920F920FB60F920B
:1023600011240BB60F922F938F939F93EF93FF93AC
:10237000E0913703F09138038081E0913D03F091C3
:102380003E0382FD12C09081809140038F5F8F7366
:1023900020914103821751F0E0914003F0E0E95DA4
:1023A000FC4F958F8093400301C08081FF91EF9196
:1023B0009F918F912F910F900BBE0F900FBE0F909A
:1023C0001F9018951F920F920FB60F9211240BB603
:1023D0000F922F933F934F935F936F937F938F93BE
:1023E0009F93AF93BF93EF93FF9387E293E00E9495
:1023F000A210FF91EF91BF91AF919F918F917F912B
:102400006F915F914F913F912F910F900BBE0F9065
:102410000FBE0F901F90189587E293E00E9438102E
:1024200021E0892B09F420E0822F089510922A03DD
:102430001092290388EE93E0A0E0B0E080932B0394
:1024400090932C03A0932D03B0932E038DE392E081
:1024500090932803809327038DEC90E090933403AE
:10246000809333038CEC90E0909336038093350394
:1024700088EC90E0909338038093370389EC90E0E8
:1024800090933A03809339038AEC90E090933C0355
:1024900080933B038EEC90E090933E0380933D034A
:1024A0001092400310924103109242031092430392
:1024B00008951F920F920FB60F9211240BB60F9230
:1024C0002F938F939F93EF93FF93E091D403F09119
:1024D000D5038081E091DA03F091DB0382FD12C025
:1024E00090818091DD038F5F8F732091DE038217CF
:1024F00051F0E091DD03F0E0EC53FC4F958F8093B9
:10250000DD0301C08081FF91EF919F918F912F9109
:102510000F900BBE0F900FBE0F901F9018951F923B
:102520000F920FB60F9211240BB60F922F933F9379
:102530004F935F936F937F938F939F93AF93BF93CB
:10254000EF93FF9384EC93E00E94A210FF91EF9130
:10255000BF91AF919F918F917F916F915F914F91BB
:102560003F912F910F900BBE0F900FBE0F901F90B9
:10257000189584EC93E00E94381021E0892B09F42F
:1025800020E0822F08951092C7031092C60388EEB0
:1025900093E0A0E0B0E08093C8039093C903A093B8
:1025A000CA03B093CB038DE392E09093C50380936D
:1025B000C40385ED90E09093D1038093D00384ED24
:1025C00090E09093D3038093D20380ED90E09093BA
:1025D000D5038093D40381ED90E09093D70380934B
:1025E000D60382ED90E09093D9038093D80386EDD3
:1025F00090E09093DB038093DA031092DD03109256
:10260000DE031092DF031092E00308951F920F92F1
:102610000FB60F9211240BB60F922F938F939F93A7
:10262000EF93FF93E0917104F09172048081E09147
:102630007704F091780482FD12C0908180917A0431
:102640008F5F8F7320917B04821751F0E0917A04A1
:10265000F0E0EF59FB4F958F80937A0401C08081A1
:10266000FF91EF919F918F912F910F900BBE0F9043
:102670000FBE0F901F9018951F920F920FB60F92DA
:1026800011240BB60F922F933F934F935F936F9349
:102690007F938F939F93AF93BF93EF93FF9381E6C5
:1026A00094E00E94A210FF91EF91BF91AF919F9192
:1026B0008F917F916F915F914F913F912F910F90EB
:1026C0000BBE0F900FBE0F901F90189581E694E0FF
:1026D0000E94381021E0892B09F420E0822F089510
:1026E000109264041092630488EE93E0A0E0B0E0DE
:1026F0008093650490936604A0936704B093680484
:102700008DE392E0909362048093610485E391E00D
:1027100090936E0480936D0484E391E09093700431
:1027200080936F0480E391E090937204809371042E
:1027300081E391E0909374048093730482E391E0C9
:10274000909376048093750486E391E090937804E7
:102750008093770410927A0410927B0410927C0488
:1027600010927D04089508950E94EA0E0E94B3130A
:102770000E94D008C5E6D0E10E94470C2097E1F303
:102780000E946510F9CFCF92DF92EF92FF920F93E4
:102790001F93CF93DF937C016A01EB0100E010E00F
:1027A0000C151D0571F06991D701ED91FC91019017
:1027B000F081E02DC7011995892B19F00F5F1F4F8C
:1027C000EFCFC801DF91CF911F910F91FF90EF9054
:1027D000DF90CF9008956115710581F0DB010D90B8
:1027E0000020E9F7AD0141505109461B570BDC01B0
:1027F000ED91FC910280F381E02D199480E090E04E
:102800000895EF92FF920F931F93CF93DF938C0164
:102810007B01C0E0D0E0F701EC0FFD1F649166235F
:1028200059F0F801A081B181ED91FC91C801199591
:10283000892B11F02196EFCFCE01DF91CF911F911F
:102840000F91FF90EF900895DC01ED91FC910190C4
:10285000F081E02D199469E472E00C94EB130F936E
:102860001F93CF93DF93EC010E9401148C01CE01E2
:102870000E942B14800F911FDF91CF911F910F9118
:1028800008950F931F93CF93DF93EC010E94EB13F6
:102890008C01CE010E942B14800F911FDF91CF91EC
:1028A0001F910F9108950F931F93CF93DF93EC0126
:1028B0000E9424148C01CE010E942B14800F911FC2
:1028C000DF91CF911F910F9108958F929F92AF92B8
:1028D000BF92CF92DF92EF92FF920F931F93CF930D
:1028E000DF93CDB7DEB7A1970FB6F894DEBF0FBE6A
:1028F000CDBF7C01C42EE52FCB01D22E19A221E041
:102900002D1510F02AE0D22E8E010F5D1F4F8D2C59
:10291000912CA12CB12C6C2D7E2FA50194010E942D
:1029200084188C2DD29E80191124015011098A30EF
:1029300014F4805D01C0895CF801808321153105A4
:102940004105510521F0C22EE32FCA01E4CFB801A1
:10295000C7010E94EB13A1960FB6F894DEBF0FBE1D
:10296000CDBFDF91CF911F910F91FF90EF90DF903E
:10297000CF90BF90AF909F908F9008952115310513
:1029800041F4DC01ED91FC910190F081E02D642F88
:1029900019940C9465140F931F93CF93DF93EC015C
:1029A0009A01462F50E060E070E00E94BE148C0156
:1029B000CE010E942B14800F911FDF91CF911F91A8
:1029C0000F9108953F924F925F926F927F928F92F4
:1029D0009F92AF92BF92CF92DF92EF92FF920F93AE
:1029E0001F93CF93DF9300D01F92CDB7DEB78B013B
:1029F00029013A0190911002981721F09F3F09F0A8
:102A0000BDC204C0E7E4F5E0349004C18093100235
:102A1000E7E4F5E0E491EF3F09F4B0C2E23009F4F5
:102A200080C074F5EE2309F45BC0E13009F0F1C019
:102A30001092800010928100909181009860909394
:102A4000810090918100916090938100282F30E067
:102A5000F901ED54FB4FE491F0E0EE0FFF1FED5E46
:102A6000FA4F4591549150931C0540931B05F90171
:102A7000E359FB4F249120931A0533243394CCC09F
:102A8000E43009F49EC00CF474C0E53009F0C1C014
:102A90001092200110922101909121019860909351
:102AA000210190912101916090932101282F30E024
:102AB000F901ED54FB4FE491F0E0EE0FFF1FED5EE6
:102AC000FA4F45915491509300054093FF04F9014A
:102AD000E359FB4F24912093FE0455E0352E9CC012
:102AE00014BC15BC94B5926094BD95B5916095BD2C
:102AF000282F30E0F901ED54FB4FE491F0E0EE0FA8
:102B0000FF1FED5EFA4F459154915093230540937A
:102B10002205F901E359FB4F249120932105312C23
:102B20007BC01092B0001092B1009091B000926002
:102B30009093B0009091B10091609093B100282FD4
:102B400030E0F901ED54FB4FE491F0E0EE0FFF1F90
:102B5000ED5EFA4F4591549150931505409314053D
:102B6000F901E359FB4F24912093130522E0322E03
:102B700053C0109290001092910090919100986033
:102B80009093910090919100916090939100282FE3
:102B900030E0F901ED54FB4FE491F0E0EE0FFF1F40
:102BA000ED5EFA4F4591549150930E0540930D05FB
:102BB000F901E359FB4F249120930C05B3E03B2E20
:102BC0002BC01092A0001092A1009091A1009860DB
:102BD0009093A1009091A10091609093A100282F63
:102BE00030E0F901ED54FB4FE491F0E0EE0FFF1FF0
:102BF000ED5EFA4F459154915093070540930605B9
:102C0000F901E359FB4F24912093050574E0372E19
:102C100003C03E2E37FCB2C161E00E94A00F480104
:102C2000A12CB12C832D8D7F09F0C7C060E072E12B
:102C30008AE790E0A50194010E94A61829833A83AF
:102C40004B835C8369017A0181E0C81AD108E108ED
:102C5000F1089FEFC916D104E104F10409F008F46A
:102C60009AC060E472E48FE090E0A50194010E94B4
:102C7000A61869017A01E1E0CE1AD108E108F1084D
:102C8000F2E03F1219C08FEFC816D104E104F1043D
:102C900009F008F48AC060E970ED83E090E0A501D6
:102CA00094010E94A61869017A0191E0C91AD1081D
:102CB000E108F10883E001C082E0EFEFCE16D10415
:102CC000E104F10409F008F467C068E478EE81E0FB
:102CD00090E0A50194010E94A61869017A01F1E033
:102CE000CF1AD108E108F1083320E1F082E0381270
:102CF0001BC09FEFC916D104E104F10409F008F4E8
:102D00003BC164E274EF80E090E0A50194010E9471
:102D1000A61869017A01E1E0CE1AD108E108F108AC
:102D200085E003C083E001C084E0FFEFCF16D1044B
:102D3000E104F10489F180F162E17AE780E090E05A
:102D4000A50194010E94A61869017A0181E0C81AC0
:102D5000D108E108F108311002C084E001C086E02A
:102D60009FEFC916D104E104F104B1F0A8F0C980C5
:102D7000DA80EB80FC809AE0F594E794D794C794CE
:102D80009A95D1F7E1E0CE1AD108E108F108332095
:102D900031F087E00BC081E0332011F007C085E0FF
:102DA00095B5987F982B95BD56C082E09091B10063
:102DB000987F982B9093B1004EC060E072E18AE753
:102DC00090E0A50194010E94A61869017A01F1E042
:102DD000CF1AD108E108F108C114D10481E0E80656
:102DE000F10488F068E478EE81E090E0A5019401B8
:102DF0000E94A61869017A0191E0C91AD108E10878
:102E0000F10893E001C091E0E1E03E1207C080913B
:102E10008100887F892B809381001DC0F3E03F12E1
:102E200007C080919100887F892B8093910013C007
:102E300084E0381207C08091A100887F892B80939D
:102E4000A10009C0E5E03E1206C080912101887F03
:102E5000892B80932101411451046104710471F0A4
:102E6000D801AA0FBB1FA30192010E94CB1828EE24
:102E700033E040E050E00E94841803C02FEF3FEFA2
:102E8000A901F2E03F1609F443C0F315BCF033206A
:102E900081F181E0381272C0D0928900C09288001E
:102EA00020931D0530931E0540931F055093200568
:102EB00080916F00826080936F0060C094E039164B
:102EC00009F448C03916A4F1E5E03E1257C0D0928B
:102ED0002901C092280120930105309302054093F7
:102EE0000305509304058091730082608093730002
:102EF00045C0C7BC20932405309325054093260583
:102F00005093270580916E00826080936E0036C0DA
:102F1000C092B3002093160530931705409318050F
:102F2000509319058091700082608093700026C0D4
:102F3000D0929900C092980020930F05309310050D
:102F40004093110550931205809171008260809327
:102F5000710014C0D092A900C092A8002093080567
:102F60003093090540930A0550930B058091720038
:102F700082608093720002C084E018CF0F900F909F
:102F80000F900F90DF91CF911F910F91FF90EF90D5
:102F9000DF90CF90BF90AF909F908F907F906F9079
:102FA0005F904F903F9008958230A9F028F48823D5
:102FB00049F0813051F00895843021F1E8F08530F6
:102FC00039F1089510926E00089580916F008D7F01
:102FD00080936F000895809170008D7F80937000C2
:102FE00081E08093B0008091B100887F84608093FD
:102FF000B1001092B3000895809171008D7F80938D
:1030000071000895809172008D7F80937200089501
:10301000809173008D7F809373000895CF93C82FA4
:10302000809110028C1307C0E7E4F5E084919FEFD4
:103030009093100201C08FEF0E94D41760E08C2F94
:10304000CF910C94D90F1F920F920FB60F921124AB
:103050000BB60F922F933F934F935F936F937F9392
:103060008F939F93AF93BF93EF93FF938091160538
:1030700090911705A0911805B0911905892B8A2BFD
:103080008B2B51F190911305E0911405F0911505EA
:103090008081892780838091160590911705A091E2
:1030A0001805B0911905181619061A061B06C4F45E
:1030B0008091160590911705A0911805B0911905FA
:1030C0000197A109B1098093160590931705A09364
:1030D0001805B093190504C0809110020E940E18C3
:1030E000FF91EF91BF91AF919F918F917F916F91E0
:1030F0005F914F913F912F910F900BBE0F900FBE9C
:103100000F901F9018950895A1E21A2EAA1BBB1BC1
:10311000FD010DC0AA1FBB1FEE1FFF1FA217B307A3
:10312000E407F50720F0A21BB30BE40BF50B661FB9
:10313000771F881F991F1A9469F76095709580957D
:1031400090959B01AC01BD01CF010895052E97FB21
:103150001EF400940E94BD1857FD07D00E948418E9
:1031600007FC03D04EF40C94BD1850954095309553
:1031700021953F4F4F4F5F4F0895909580957095E3
:1031800061957F4F8F4F9F4F0895EE0FFF1F059062
:10319000F491E02D19940E94DA18A59F900DB49F28
:1031A000900DA49F800D911D112408950790F69114
:1031B000E02D1994A29FB001B39FC001A39F700D91
:1031C000811D1124911DB29F700D811D1124911D2F
:1031D0000895FB01DC0105900D920020E1F70895B0
:1031E000FC018191861721F08823D9F7992708954A
:1031F0003197CF010895FB0151915523A9F0BF01EB
:10320000DC014D9145174111E1F759F4CD010190D1
:10321000002049F04D9140154111C9F3FB014111C6
:10322000EFCF81E090E0019708950F931F93CF9324
:10323000DF93CDB7DEB72E970FB6F894DEBF0FBE83
:10324000CDBF0E891F89888D998D26E02C831A8326
:10325000098397FF02C080E090E801979E838D83E9
:10326000AE01445E5F4F6A8D7B8DCE0101960E9458
:1032700052194D815E8157FD0AC02F813885421752
:1032800053070CF49A01F801E20FF31F10822E96F7
:103290000FB6F894DEBF0FBECDBFDF91CF911F9167
:1032A0000F9108952F923F924F925F926F927F926B
:1032B0008F929F92AF92BF92CF92DF92EF92FF9246
:1032C0000F931F93CF93DF93CDB7DEB72C970FB635
:1032D000F894DEBF0FBECDBF7C016B018A01FC01FB
:1032E00017821682838181FFBDC1CE0101964C01F8
:1032F000F7019381F60193FD859193FF81916F0111
:10330000882309F4ABC1853239F493FD859193FF8D
:1033100081916F01853229F4B70190E00E94631B0F
:10332000E7CF512C312C20E02032A0F48B3269F011
:1033300030F4803259F0833269F420612CC08D3230
:1033400039F0803339F4216026C02260246023C024
:10335000286021C027FD27C030ED380F3A3078F4BF
:1033600026FF06C0FAE05F9E300D1124532E13C0D5
:103370008AE0389E300D1124332E20620CC08E322C
:1033800021F426FD6BC1206406C08C3611F4206840
:1033900002C0883641F4F60193FD859193FF819137
:1033A0006F018111C1CF982F9F7D9554933028F4E0
:1033B0000C5F1F4FFFE3F9830DC0833631F0833775
:1033C00071F0833509F05BC022C0F80180818983E8
:1033D0000E5F1F4F44244394512C540115C03801F3
:1033E000F2E06F0E711CF801A080B18026FF03C0CF
:1033F000652D70E002C06FEF7FEFC5012C870E9442
:10340000581B2C0183012C852F77222E17C03801E1
:10341000F2E06F0E711CF801A080B18026FF03C09E
:10342000652D70E002C06FEF7FEFC5012C870E9411
:103430004D1B2C012C852068222E830123FC1BC0F0
:10344000832D90E048165906B0F4B70180E290E071
:103450000E94631B3A94F4CFF50127FC859127FE67
:1034600081915F01B70190E00E94631B31103A9493
:10347000F1E04F1A51084114510471F7E5C0843648
:1034800011F0893639F5F80127FF07C06081718195
:10349000828193810C5F1F4F08C0608171818827F2
:1034A00077FD8095982F0E5F1F4F2F76B22E97FFD6
:1034B00009C090958095709561957F4F8F4F9F4F74
:1034C0002068B22E2AE030E0A4010E94951BA82EAD
:1034D000A81844C0853729F42F7EB22E2AE030E0A8
:1034E00025C0F22FF97FBF2E8F36C1F018F4883532
:1034F00079F0B4C0803719F0883721F0AFC02F2F92
:103500002061B22EB4FE0DC08B2D8460B82E09C090
:1035100024FF0AC09F2F9660B92E06C028E030E035
:1035200005C020E130E002C020E132E0F801B7FE42
:1035300007C060817181828193810C5F1F4F06C03B
:103540006081718180E090E00E5F1F4FA4010E94B6
:10355000951BA82EA818FB2DFF77BF2EB6FE0BC01B
:103560002B2D2E7FA51450F4B4FE0AC0B2FC08C067
:103570002B2D2E7E05C07A2C2B2D03C07A2C01C05A
:10358000752C24FF0DC0FE01EA0DF11D80818033F2
:1035900011F4297E09C022FF06C07394739404C0FD
:1035A000822F867809F0739423FD13C020FF06C094
:1035B0005A2C731418F4530C5718732C731468F4A2
:1035C000B70180E290E02C870E94631B73942C85E6
:1035D000F5CF731410F4371801C0312C24FF12C03A
:1035E000B70180E390E02C870E94631B2C8522FFAB
:1035F00017C021FF03C088E590E002C088E790E093
:10360000B7010CC0822F867859F021FD02C080E2FC
:1036100001C08BE227FD8DE2B70190E00E94631BA1
:10362000A51438F4B70180E390E00E94631B5A941C
:10363000F7CFAA94F401EA0DF11D8081B70190E063
:103640000E94631BA110F5CF332009F451CEB701BE
:1036500080E290E00E94631B3A94F6CFF7018681E6
:10366000978102C08FEF9FEF2C960FB6F894DEBFC4
:103670000FBECDBFDF91CF911F910F91FF90EF90C3
:10368000DF90CF90BF90AF909F908F907F906F9082
:103690005F904F903F902F900895FC0105906150EE
:1036A00070400110D8F7809590958E0F9F1F089558
:1036B000FC016150704001900110D8F78095909501
:1036C0008E0F9F1F08950F931F93CF93DF93182F93
:1036D000092FEB018B8181FD03C08FEF9FEF20C08D
:1036E00082FF10C04E815F812C813D8142175307BC
:1036F0007CF4E881F9819F012F5F3F4F3983288354
:10370000108306C0E885F985812F1995892B29F743
:103710002E813F812F5F3F4F3F832E83812F902F3C
:10372000DF91CF911F910F910895FA01AA272830B8
:1037300051F1203181F1E8946F936E7F6E5F7F4F7E
:103740008F4F9F4FAF4FB1E03ED0B4E03CD0670FFA
:10375000781F891F9A1FA11D680F791F8A1F911D4D
:10376000A11D6A0F711D811D911DA11D20D009F49D
:1037700068943F912AE0269F11243019305D3193DF
:10378000DEF6CF010895462F4770405D4193B3E0C8
:103790000FD0C9F7F6CF462F4F70405D4A3318F06F
:1037A000495D31FD4052419302D0A9F7EACFB4E020
:1037B000A6959795879577956795BA95C9F70097D8
:1037C0006105710508959B01AC010A2E0694579579
:1037D000479537952795BA95C9F7620F731F841FD0
:0A37E000951FA01D0895F894FFCF77
:1037EA00580C580C580C580C580C580C580C580CAF
:1037FA00FF0000000033030603DB02E302F60205C2
:10380A00033A34003A33003A32000A004F4B00457B
:10381A005353003E004543540000000000E510C326
:10382A0013381051104310C3100D0A006E616E0058
:0A383A00696E66006F7666002E00CE
:00000001FF
